:020000040000FA
:10000000FC7F0020790B0000690B00006D0B0000E5
:1000100000000000000000000000000000000000E0
:10002000000000000000000000000000710B000054
:100030000000000000000000750B0000CD0C000067
:1000400010B5064C2378002B07D1054B002B02D0AE
:10005000044800E000BF0123237010BD5C000020B5
:1000600000000000D01E000008B5084B002B03D094
:100070000748084900E000BF07480368002B03D089
:10008000064B002B00D0984708BDC046000000007A
:10009000D01E00006000002058000020000000007A
:1000A000064B0322104002040549586808401043DB
:1000B0005860DA695107FCD47047C0460008004216
:1000C000FFFFFCFF38B5284A284B5A805A7852B2B5
:1000D000002AFBDB264B04211A6A264D0A431A62CA
:1000E0002B68012213432B602A680123214C1A42FA
:1000F000FAD1E2691A42F7D11423236041001E4865
:1001000001F008FD421EE068FF231A4098431043A7
:10011000E0602368022213432360EA69154B9107CC
:10012000FBD45A8B30218A4310210A435A83EB694E
:1001300001205A07FBD4114B02241A7802431A708B
:100140000F4B0F22197891431970197821431970B8
:100150000C490C782043087019780A401A701A78F4
:1001600020210A431A7038BD14400000000C0040E2
:100170000004004000080042006CDC0248440041DA
:100180003444004149440041F7B500230F1C01925B
:100190001D1C994254D001212A4E4000084333705F
:1001A000C1B2294B0322588B1C1C000910400128A6
:1001B00004D05B8B1B091A40022AF2D1606AC00A84
:1001C000C00208436062217E1F4B0122880708D4C9
:1001D000197E1142F7D05968C02292020A435A6030
:1001E00003E05B8B9B08134201D0002528E03270AE
:1001F000237E9907FCD5154A154B117801251970F6
:100200006268BD4212D0134B022013406360FFF7B7
:1002100047FF33785A1C3270227E9007FCD50B4979
:100220000B480A780135C254EDB2E9E78023DB02BE
:10023000134363600199002902D00320FFF730FFC8
:10024000281CFEBD7800002000080042280800425B
:1002500099000020FFFFFBFF024B00221870024BA9
:100260001A7070477A00002079000020F8B5274BFB
:100270001C786400E4B2264B03215D8B1A1C2D0907
:100280000D40012D04D05B8B1B0919400229F2D1CE
:10029000536ADB0ADB0223435362117E01231942B6
:1002A000FBD01B49498B8908194204D00320FFF772
:1002B000F7FE022427E017490D782B1C002B11D0E4
:1002C000154EEC1A365D154C2670114E177E012422
:1002D000768B274202D12642F7D00BE0B6082642A1
:1002E0000ED007E00B701C1C00280CD00320FFF779
:1002F000D7FE08E003200B700324FFF7D1FE02E0D5
:10030000013BDBB2DAE7201CF8BDC0467A000020D2
:1003100000080042790000207B00002028080042ED
:10032000034A1378591C1170024AD05401207047B7
:10033000790000207B000020154A164B1178002917
:1003400009D11549187809784118C9B21970802067
:1003500012494003C86111780131C9B2117019788E
:10036000F02902D81978092909D80B4908784042A0
:10037000C0B20870187809784118C9B2197012789B
:100380001B789A4203D18022044B5203DA617047F2
:100390007D000020010000200000002000440041FA
:1003A00010B5041C6B20FFF757FF201CFFF7B8FFA8
:1003B0000120FFF75BFF01210A1C6B20FFF7E4FE21
:1003C000014B187810BDC0469900002038B5051CB7
:1003D0006B200C1CFFF740FF281CFFF7A1FF201C1F
:1003E000FFF79EFF0120FFF741FF022038BD08B54F
:1003F0000520FFF7D5FFCE23011C19400520FFF78C
:10040000E5FF012008BD000010B5041C0020FFF727
:10041000C7FF78232D4A9843C1B2944242D018D8DE
:100420002B4B9C4238D009D82A4B9C4230D02A4BC7
:100430009C422FD0294B9C4245D13FE0284B9C4207
:100440002CD0284B9C422BD0274B9C423BD12023C5
:1004500033E0264A94422BD00AD8254B9C4223D025
:10046000244B9C4222D0244B9C422CD1402324E09C
:10047000224A94421ED004D8214B9C4223D16023AF
:100480001BE0204A944217D01F4A944215D01AE02C
:10049000082312E0102310E018230EE028230CE0BC
:1004A00030230AE0382308E0482306E0502304E024
:1004B000582302E0682300E0702319430020FFF76F
:1004C00085FF012000E0002010BDC046581100004B
:1004D00018100000780F0000C80F0000280F00005F
:1004E000B810000008110000681000009812000009
:1004F000F811000048120000A81100003813000095
:10050000E812000088130000D813000010B5041C86
:100510000020FFF745FF07239843E122C1B2920074
:10052000944220D008D8962C18D0FA235B009C4225
:1005300017D0642C22D11CE0114A944215D005D862
:100540009623DB009C4219D1042311E0FA22D20049
:1005500094420CD00B4A94420AD00FE0012421436C
:1005600007E0022304E0032302E0052300E0062362
:1005700019430020FFF72AFF012000E0002010BDF2
:10058000DC050000B80B000070B504AC267805ACA3
:100590002578441EA041C401002901D040210C430C
:1005A000002A01D020221443002B01D010231C4329
:1005B000002E01D008231C43002D01D004231C432E
:1005C0000220FFF7EDFE0125011C294021430220F6
:1005D000FFF7FCFE281C70BD10B5041C0420FFF7BB
:1005E000DFFE03231840084B9C4204D0074B9C427B
:1005F00008D1B02100E0982101430420FFF7E6FE76
:10060000012000E0002010BD10100000701000005C
:1006100008B50120FFF7C4FECF23011C19400120BB
:10062000FFF7D4FE012008BD07B5FFF7E0FEFFF796
:10063000EFFF0948FFF7E8FEFA20C000FFF766FF6A
:10064000002300930193181C191C1A1CFFF79CFF30
:100650000248FFF7C1FF07BD08110000101000009D
:1006600008B50348FFF72EFDFFF7DEFF08BDC046C3
:10067000A086010010B5C3699C07FCD4036802245E
:10068000A3430360C46901231C42FBD104682343D4
:1006900003600368DC07FCD4C46901231C42FBD15E
:1006A000C469DC401C42F7D1084B1A430260C3699D
:1006B0005A07FCD4C0239B0243608181C3699C0715
:1006C000FCD4036802221343036010BD0400004001
:1006D000037EDA07FCD5018570470000027E012306
:1006E0005107FBD5428B1A4207D1428BDA401A429E
:1006F00003D1428B92081A4202D0034B01221A7096
:10070000008DC0B27047C0467E00002070B50368FF
:10071000041C988B1A1C0821FF32084226D0802026
:1007200099839872112353704021144B9171507129
:100730005E68134DC0202E40800506435E605E69F2
:100740003540284358610F4818600F4818615D68AC
:100750000E4828408025AD02284358605868800B19
:100760008003586000235171237105E0137ADA0683
:1007700002D5201C00F0E4FA207970BD9C01002015
:10078000FFFFFF8F9C0000201C010020FF3F00F0B6
:10079000002303714371044B016083600B780222D4
:1007A00013430B707047C0460D07000038B5364B39
:1007B0002021DA6901200A43DA61344B06241A78D1
:1007C00002431A70324B0F2219789143197019782D
:1007D000214319702F490C782043087019780A407A
:1007E0001A701A7860210A431A702B4B2B4A5A80D0
:1007F0005A7852B2002AFBDB294B01211A780A43AE
:100800001A709A78D107FCD426480268510B1F222F
:100810001140914200D1052111408C011D8D2249CA
:100820002940214319850468A10C0A401F2A00D1E0
:100830001D221C8D1F210A408C4322431A85026809
:100840000721D20D0A408A4200D103220A40188DA6
:100850001103164A02400A431A8519787F220A407A
:100860001A701A78042112480A431A7058621A89B9
:100870000C218A431A811A8901218A431A81002195
:10088000802201F0A0F938BD000400405844004126
:100890003C44004159440041000C00400640000027
:1008A00000500041246080003FF8FFFFFF8FFFFFF2
:1008B0009C010020F7B5141C1F4A5F0101971D1C05
:1008C000D319061C5869271C4000400F0330103311
:1008D000C74006D00F1C8022596812060A435A608E
:1008E00009E02F1C7B1E9F41144BBF01FF18381CD1
:1008F000221C01F05FF901990F4808354218176171
:10090000131C5269A104920B890C92030A435A6189
:1009100059690B4A0A405A616B01F3180222DA71D5
:100920005979802252420A435A716B01F318DB79DC
:100930009A07FAD5201CFEBD9C0100201C01002056
:10094000FF3F00F0F8B51A4E051C3378141C002B3D
:1009500012D1184B184A1A645A6C920B92035A64BB
:10096000586C164A02405A64A2235B00EA5C40209D
:100970000243EA54012333704827FF37EA5D01231D
:10098000134012D00B4B5A6C9204920CA24202D22A
:100990005C6CA404A40C081C221C074901F00AF991
:1009A0000123EB550023337000E01C1C201CF8BD14
:1009B0007F0000209C010020DC000020FF3F00F0B1
:1009C000FF3083792022002900D110221343837144
:1009D00070470000084BFF305A69920B92035A612E
:1009E00002230372827980235B4213438371037A6B
:1009F0009A07FCD57047C0469C01002080235B42CB
:100A00001943C9B28172704770B5A02303225B00FD
:100A1000C254134B134A5C6CC021144089050C432B
:100A200046255C64FF35402444550F4D30261D6437
:100A300090256D0046555D6B1540294392255963FD
:100A40006D0080214155094D1D63B0256D00445551
:100A50005C6F22405A67B2235B00C15470BDC04630
:100A60009C010020FFFFFF8FDC0000205C010020C4
:100A7000024B5B785BB2002BFADB7047000C004046
:100A8000024BDB68DA06FBD57047C0460008004021
:100A9000F8B52A4B1E22596891430222114359602E
:100AA000274B28491E1C9982998A0A439A82F36827
:100AB0000227234C3B42FAD0234D0123AB60FFF7C2
:100AC000D7FF224B6B60FFF7D3FF8223DB016B80E4
:100AD000FFF7CEFFA38C80229343A384FFF7D0FFC0
:100AE0001B4BE362FFF7CCFFA38C1A4A1343A3848A
:100AF000FFF7C6FFA38C1F43A784F3681A06FCD533
:100B00000F4BDB685A06F8D50024FFF7B9FFAC603D
:100B1000FFF7AEFF104B6B60FFF7AAFF0F4B104AB9
:100B2000C0215A600F4A0906106A0002000A0143F8
:100B3000116207229C601A60F8BDC0460040004167
:100B4000000800400C060000000C004001050100F8
:100B5000B805FF7D040A00000007030010E000E074
:100B6000E703000000ED00E00EBEFEE70DBEFEE76D
:100B700005BEFEE702BEFEE70E4A0F4838B58242C8
:100B800004D10E4A0E4B93420ED10AE00D4C944212
:100B9000F7D00023D1188842F3D9E55804330D600B
:100BA000F8E700F011F804E09342FAD2002102C302
:100BB000FAE7FEE7000000205C000020AC03002004
:100BC0005C000020D41E000038B5344D2B68013382
:100BD0001AD0334B2A1D1A60EAB2002A14D1314BC5
:100BE000197801231940304B0AD118682F4A9042D6
:100BF00001D1196008E01A602D4A013A002AFCD19F
:100C00001A602C4B01221A70FFF742FF62B6FFF701
:100C100027FD284B284C1B78002B0AD02B6883F328
:100C200008881E4BFF229343A3601D4B1B681B6863
:100C3000184700F09DFD00F04FF8204B8022520332
:100C40009A601F4B1F4A051C5A60216AC022090284
:100C5000090A12060A43226200229A6007221A60D9
:100C6000AB68281C9847184B002801D001221A7045
:100C70001A78002A05D0002000F08CFA00F004FB5E
:100C8000FCE71B78002BEBD100F0E6FD0028E7D055
:100C9000012000F07FFA00F0F7FAFCE700200000E6
:100CA0001C02002038040040FC7F002035817307BF
:100CB00048E801008000002000ED00E00044004111
:100CC00010E000E0E70300008100002008B5FFF716
:100CD00033FB00F0C3FA08BD10B5054B054C23608B
:100CE000FFF764FD201C2168FFF752FD201C10BD9A
:100CF000005000412002002070B5051CC0B0081C47
:100D0000161C0C1C00F067FF40006A4603230230EB
:100D10005370107076080123E218013A11785A00D6
:100D2000002906D1281C69460023FFF7C3FD40B007
:100D300070BDB342F6DA684681520133ECE7000039
:100D4000F7B5BA4A04681378B949271CFF37051C60
:100D5000102038720B705378B648B74E03709378F2
:100D60003380D178338809020B4333801179B34B38
:100D70001980517918880902084318809079B04980
:100D80000880D2790888120202430A8040227A71D0
:100D9000A84F3A78A64F120238780F1C0243A94890
:100DA0008446181C624500D1C2E020DC8021490045
:100DB0008A4200D16EE109DC812A00D192E0822AC8
:100DC00000D195E0802A00D064E18BE081235B00B4
:100DD0009A4200D1CFE000DA58E1C0239B009A424A
:100DE00000D157E1984B9A4200D14FE152E1902354
:100DF0001B019A4269D015DCD023DB009A4222D035
:100E000088231B019A4269D0A023DB009A4200D0BC
:100E100040E1201CFFF7DEFD3188286889B2FFF72A
:100E2000EDFD3BE1894B9A4200D12FE100DC31E13D
:100E3000874B9A4200D11DE1864B9A4200D029E1AE
:100E400033886B7122E133881B0A012B08D10B8890
:100E500012222868934201D80A8892B27E4911E191
:100E600033881B0A022B08D10B884322286893423F
:100E700001D80A8892B2794904E133881B0A032B0E
:100E800000D007E13388DBB2012B17D0002B07D04D
:100E9000022B00D0FEE00A882868D2B2704911E027
:100EA000042201A86F4900F085FE3B8804222868CF
:100EB000934201D83A8892B201A9E3E00A882868EF
:100EC0006949D2B2FFF718FFE8E03388201C2B7184
:100ED000FFF780FD201CFFF797FDDFE0291C01C90B
:100EE0000122CFE0614900230B8028680222CAE07A
:100EF0005E4900220A801888502210405C4A107017
:100F00001E880F20304018801888032800D9C1E0BF
:100F100012781B8808335B01E418A379002A01D0FA
:100F20009B0600E0DB06DB0F0B8028680222A9E0AD
:100F300019887F2291434E4AC9B2117018880F2137
:100F4000014019803188002900D0A3E019880029C8
:100F500000D19FE01988032900D99BE012781B88F3
:100F600008335B01E318002A02D020225A718DE079
:100F7000102159718AE002887F239A433C4BD2B2F8
:100F80001A7001880F220A4002803288002A00D09D
:100F900080E00288002A00D17CE00288032A00D980
:100FA00078E01B78002B1FD0038808335B01E3181F
:100FB0009B799A066AD50388202208335B01E318DF
:100FC0001A71038808335B01E318DB795F065DD58E
:100FD0000388402208335B01E318DA710388022298
:100FE00008335B01E3181EE0038808335B01E31854
:100FF0009B79D9064AD50388102208335B01E31890
:101000001A71038808335B01E318DB799A063DD532
:101010000388202208335B01E318DA710388012278
:1010200008335B01E3181A7130E0C0469C000020D1
:1010300083000020880000208A0000208C0000200F
:1010400086000020020300000103000021200000B0
:10105000A121000021220000241C00000400002027
:101060000C1C0000FC1B0000001C00008400002081
:10107000820000200B8808222868934201D80A8841
:1010800092B207490023FFF715FC07E0201CFFF789
:10109000A1FC03E0201C0121FFF792FCF7BDC04634
:1010A0004800002007B5054B0122019001A91868EE
:1010B000131CFFF7FFFB01200EBDC04620020020DD
:1010C00013B5054B6C4607341868211C0122FFF745
:1010D00039FC207816BDC0462002002010B5074C10
:1010E000201CFFF713FB031C0020834205D022685D
:1010F0004823FF33D05C0123184010BD200200209C
:1011000010B5054A0C1C031C191C10680123221C75
:10111000FFF7D0FB201C10BD2002002070B5084C4A
:10112000061C201C0D1CFFF7F1FA0023984205D085
:101130002068311C2A1CFFF705FC031C181C70BD1D
:1011400020020020F8B50C4C051C201C0E1CFFF7DB
:10115000DDFA0023271C341C98420AD0002C07D04B
:10116000291C221C3868FFF7EDFB241A2D18F5E71F
:10117000331C181CF8BDC0462002002008B5031C13
:10118000081C111C9847024B64221A8008BDC046F7
:1011900092000020012805D1054B064A1A60064B33
:1011A000187004E0002802D1044A014B1A6070470D
:1011B00090020020581C000098000020A41C000091
:1011C00030B50A1C1C4985B00978031C00292AD0B7
:1011D000042A01D1006804E0022A01D1008800E05D
:1011E0000078520004A98B180B3B9C1AA3420BD029
:1011F0000F210140092902D83025294300E0373169
:1012000019700009013BF1E701A930230B70782325
:101210004B700A208B1898700D20D870074B043241
:101220001B68D86803E005490968C868191CFFF7FE
:10123000A5FF05B030BDC0468E0000209002002002
:1012400072B6EFF30883044A1360036883F30888D7
:10125000436818477047C04694020020084B1A881C
:10126000002A03D01A88013A92B21A80054B1A88D4
:10127000002A03D01A88013A92B21A807047C046F9
:101280009200002090000020F0B591B008A9CC4A4F
:101290000B1C31CA31C351CA51C360CA60C3C94BA8
:1012A000C9489A687A255203520F92005258C7498A
:1012B00002609C68A4B262430C60C54900240A60C5
:1012C000C44A1460C44C2570C44CC54D2368281C06
:1012D0001B6940219847002802D0C24B64221A8023
:1012E000C14B00221860C14B1D60C14BC04DBE4FA9
:1012F0001A602A683B689A42E6D2BC4B1B681A788F
:10130000FF2A00D114E2232A00D0EBE1B94E337852
:10131000002B06D0B14BB8491B680222D868FFF7F2
:101320002DFFAD4B1B78532B3CD13B682A68934271
:101330001ED9AE4801322A609A1AB04B01681B6868
:1013400001310160AE4E9A4201D2326000E033605A
:10135000A04832680068049000F02CFC33682968CB
:101360005A182A60A14A1668F1181160A54A13702C
:101370002B68013B2B609D4B1A68013A1A60A14B08
:101380009E4A1B7811688B420AD222689148C91A7A
:10139000006892699047002802D0924B64221A801C
:1013A000C0468DE1522B0AD18A48944A23680068CE
:1013B00011685B69039098476422934B0DE04F2BB3
:1013C00005D1844B8D4A1B6812681A7078E1482B4E
:1013D00005D1804B894A1B6812681A8070E1572B2F
:1013E00005D17C4B854A1B6812681A6068E16F2B37
:1013F00003D1784B0121186807E0682B08D1754BA1
:101400007E481B6802211B880360FFF7D9FE57E165
:10141000772B06D16F4B79481B6804211B6803604A
:10142000F3E7472B13D1754B1868FFF709FF774B8C
:101430001B6883F3088862B6754B1B78002B00D1BC
:101440003EE1664B06201B681B68984738E1542B29
:1014500004D101233370614B1B6864E04E2B0CD127
:101460003378002B06D15D4B63491B680222D86894
:10147000FFF784FE0023337022E1562B57D12368F7
:101480006449D8680122FFF779FE23686249D86869
:101490000322FFF773FE614D2368291CD8680122DF
:1014A000FFF76CFE23685E49D8680D22FFF766FEE1
:1014B0002368291CD8680122FFF760FE4B4F4C4D72
:1014C0005849002339602B603A1C281C13685E1CA5
:1014D00016601B780593002B03D00368013303606B
:1014E000F4E73E4E2A683368D868FFF747FE336852
:1014F0004A49D8680122FFF741FE059929604A4907
:1015000039603A4A1368581C10601B78002B04D0CD
:10151000374B1A6801321A60F3E733682A68D868D3
:10152000FFF72CFE3368D86833490222C6E0334AFD
:10153000582B17D1244E264D366813682A68B100FF
:1015400093420AD21F4D5808E861384828801D4D43
:10155000287DC607FBD55B18F2E7204B34491B6892
:10156000D868AAE0592B79D112681A4B3149002A60
:1015700002D11B680B606CE0124D086819686B683B
:10158000104E8025AB4392087360002A61D02A4B2D
:101590000C4D2B800B4E337DDD07FBD500230A4D10
:1015A0002D680195AD08AB4203D3244D054E35801F
:1015B00046E09342F9D09D00465901334E51EEE783
:1015C000381C00000040004148020020400200207A
:1015D0003C0200208C0200203802002090020020F3
:1015E0004C02002090000020300200203402002035
:1015F000440200208E000020981C00009802002069
:101600009C0200202C020020920000209402002066
:1016100098000020741C00009D1C0000761C000037
:10162000C01C0000781C0000841C000002A5FFFF05
:101630008D1C00009400002044A5FFFF04A5FFFFBF
:101640003F4E357DEE07FBD59D0049194019D21A52
:101650009BE73C4B3C491B68D8682EE05A2B2FD1A6
:101660003A4B17681D680026EF19BD4206D028784E
:10167000311C00F013F90135061CF6E7314B3449F3
:101680001B680122D868FFF779FD07230F2232403B
:10169000111C36093031092A00DD07311820C01825
:1016A0006A468154013BF1D2236806A9D868082212
:1016B000FFF764FD23682749D8680322FFF75EFD22
:1016C000254B7A221A70254B00221A60244B1B7876
:1016D00093422DD01B4B23491B680122D868FFF78A
:1016E0004DFD25E0111C3039C8B21C4B092804D827
:1016F0001D682A01114319601AE0111C413905299E
:1017000003D81E68373A310106E0111C61390529FA
:1017100004D81868573A01010A4308E02C2A03D17B
:101720000A4A1968116001E00B490A7000221A6028
:101730000D4B1A6801321A600C4B1A680132D5E55C
:101740000040004190020020911C00008C0200200B
:10175000951C0000971C0000380200209802002011
:101760008E0000209B1C0000440200203402002058
:1017700010B51C4B01201A78032402431A701A4B2F
:101780000F2219789143197019782143197017495C
:101790000C782043087019780A401A701A783021A2
:1017A0000A431A70124B80211A6A0A431A62114BBB
:1017B000114A5A805A7852B2002AFBDBC4220F48E1
:1017C0000F499203FEF756FF0E4A002313700E4A8C
:1017D00013700E4A13700E4A13700E4A13700E4A9D
:1017E000137010BDD6440041BB440041D7440041B2
:1017F00000040040000C004019400000001C0042A2
:101800002AF60000A002002027030020A1020020E9
:10181000A4020020280300202503002008B5C1B23F
:101820000248FEF755FF012008BDC046001C0042DB
:10183000024B187E4007C00F7047C046001C004294
:1018400008B5FFF7F5FF0028FBD00248FEF746FF7A
:1018500008BDC046001C004208B5FFF7E9FF0023A1
:10186000984205D0FFF7ECFF031C233B5A4253413B
:10187000181C08BD70B5041C0D1C4618B44204D0D9
:101880002078FFF7CBFF0134F8E7281C70BD10B5B6
:10189000041CFFF7D5FF2070012010BD0B0A584033
:1018A000034B4000C05A0902484080B27047C0460E
:1018B000CE1C0000F7B50024051C0F1C261CBC42E2
:1018C00020D0FFF7BDFF114BC0B21B780190002B59
:1018D0001AD1311CFFF7E2FF0D4B061C1A88002AB3
:1018E00004D10C4A11782A1C002907D001996A1CDE
:1018F0002970802F02D11988013919800134A4B2CE
:10190000151CDCE7301C00E00120FEBD2503002093
:10191000A202002026030020F0B53E4E85B0002232
:1019200003900C1C32703C4B914201D1012201E02A
:101930003A490C801A707F231C4201D080349C43AA
:10194000FFF77EFF3378C0B2002B07D0002535703B
:10195000FFF776FF3378C0B2AB4236D1432803D0CD
:10196000712853D01528EBD1012300930120FFF7F4
:1019700055FF0098FFF752FF00998025C843C0B279
:10198000FFF74CFF039B00270293244A1388002B88
:101990001DD1214901930978002918D10198FFF739
:1019A0003DFF391C0198FFF779FF013D071C002D11
:1019B000EBD1000AC0B2FFF731FFF8B2FFF72EFFFC
:1019C000FFF73EFF3378002B0AD035701FE00299F5
:1019D000013B09781380029B019101330293DDE7FB
:1019E000C0B2062807D1009B03990133DBB28031D6
:1019F0000093803C0391002CB8D10420FFF70EFF28
:101A0000FFF71EFF044B01251C7000E00025281C79
:101A100005B0F0BD2503002026030020A20200200F
:101A2000F0B5384C87B0002301902370994201D162
:101A3000012301E0344A1180344A642613704320A4
:101A4000FFF7ECFE324FFFF7F3FE002803D1002F23
:101A500003D0013FF7E7002F03D1013E002EEED166
:101A60004DE00125FFF7ECFE2378002B38D1C0B202
:101A70000290012805D004283DD10620FFF7CEFEB4
:101A800039E005AE0221301CFFF714FF01988021D8
:101A9000FFF710FF23780390002B18D1FFF7D0FE3B
:101AA0000702FFF7CDFEBFB223783F18BFB2012B6C
:101AB0000DD0039B9F4207D13378AB4204D1EB4357
:101AC0007278DBB29A4204D01820FFF7A7FE0023F9
:101AD00003E00620FFF7A2FE029B2278002A02D034
:101AE000002626700BE0012B05D1019A6B1C803279
:101AF000DDB20192B6E7054A002313700126301CBF
:101B000007B0F0BD25030020A2020020260300201C
:101B100000350C00002934D00123002210B4884283
:101B20002CD301242407A14204D2814202D209010C
:101B30001B01F8E7E400A14204D2814202D249002D
:101B40005B00F8E7884201D3401A1A434C08A042D0
:101B500002D3001B5C0822438C08A04202D3001B66
:101B60009C082243CC08A04202D3001BDC0822437D
:101B7000002803D01B0901D00909E3E7101C10BCA1
:101B80007047002801D00020C04307B4024802A1DA
:101B90004018029003BDC046190000000029F0D093
:101BA00003B5FFF7B9FF0EBC4243891A1847C04678
:101BB0007047C04610B50023934203D0CC5CC45498
:101BC0000133F9E710BD031C8218934202D019704B
:101BD0000133FAE770470023C25C0133002AFBD1CE
:101BE000581E7047F8B5C046F8BC08BC9E46704702
:101BF000F8B5C046F8BC08BC9E467047040309040B
:101C000041726475696E6F204C4C4300417264757B
:101C1000696E6F204D4B5220576946692031303133
:101C20003000000012010002020000404123540075
:101C30000002010200010000080000001000000086
:101C400020000000400000008000000000010000B3
:101C500000020000000400001D18000041180000F0
:101C600031180000751800008F18000019190000C5
:101C7000211A00007600200041707220313120329C
:101C80003031390031333A30393A353600580A0D9F
:101C900000590A0D005A00230A0D003E00322E3072
:101CA00000000000A5100000C1100000DD100000C1
:101CB000011100001D11000001110000451100007C
:101CC0005B41726475696E6F3A58595A5D00000045
:101CD0002110422063308440A550C660E77008811F
:101CE00029914AA16BB18CC1ADD1CEE1EFF1311296
:101CF000100273325222B5529442F772D66239936F
:101D000018837BB35AA3BDD39CC3FFF3DEE36224E5
:101D1000433420040114E664C774A44485546AA5BE
:101D20004BB528850995EEE5CFF5ACC58DD5533675
:101D3000722611163006D776F6669556B4465BB70E
:101D40007AA719973887DFF7FEE79DD7BCC7C44845
:101D5000E5588668A7784008611802282338CCC95E
:101D6000EDD98EE9AFF9488969990AA92BB9F55AD5
:101D7000D44AB77A966A711A500A333A122AFDDBAE
:101D8000DCCBBFFB9EEB799B588B3BBB1AABA66CA5
:101D9000877CE44CC55C222C033C600C411CAEEDFE
:101DA0008FFDECCDCDDD2AAD0BBD688D499D977EB5
:101DB000B66ED55EF44E133E322E511E700E9FFF4E
:101DC000BEEFDDDFFCCF1BBF3AAF599F788F889104
:101DD000A981CAB1EBA10CD12DC14EF16FE18010E8
:101DE000A100C230E3200450254046706760B983EB
:101DF0009893FBA3DAB33DC31CD37FE35EF3B10238
:101E00009012F322D2323542145277625672EAB5FA
:101E1000CBA5A89589856EF54FE52CD50DC5E23487
:101E2000C324A01481046674476424540544DBA7CA
:101E3000FAB79987B8975FE77EF71DC73CD7D326D7
:101E4000F2369106B01657667676154634564CD95A
:101E50006DC90EF92FE9C899E9898AB9ABA9445827
:101E6000654806782768C018E1088238A3287DCB2A
:101E70005CDB3FEB1EFBF98BD89BBBAB9ABB754A77
:101E8000545A376A167AF10AD01AB32A923A2EFDBA
:101E90000FED6CDD4DCDAABD8BADE89DC98D267CC7
:101EA000076C645C454CA23C832CE01CC10C1FEF0A
:101EB0003EFF5DCF7CDF9BAFBABFD98FF89F176E17
:101EC000367E554E745E932EB23ED10EF01E00004B
:101ED000000000000114000009024300020100801C
:101EE0003209040000010202000005240010010470
:101EF00024020005240600010524010001070583D2
:101F0000030800FF09040100020A00000007058120
:101F100002400000070502024000000000C201006C
:101F200000000800690000004100000000000000FF
:1020000000800020F95A0000E15A0000E15A000067
:1020100000000000000000000000000000000000C0
:10202000000000000000000000000000E15A000075
:102030000000000000000000E15A00004D5B0000BD
:10204000E15A0000E15A0000E15A0000E15A0000A4
:10205000E15A0000E15A0000E15A0000E55A000090
:10206000E15A0000E15A0000E15A0000992A0000FC
:10207000E15A0000315A0000215A0000E15A0000E4
:10208000E15A0000E15A0000E15A0000E15A000064
:1020900000000000E15A0000E15A0000E15A00008F
:1020A000E15A0000E15A0000E15A0000E15A000044
:1020B0000000000010B5064C2378002B07D1054B1B
:1020C000002B02D0044800E000BF0123237010BDA4
:1020D000300200200000000090FA0000044B10B510
:1020E000002B03D00349044800E000BF10BDC046E8
:1020F000000000003402002090FA0000034B10B5ED
:1021000018680368DB68984710BDC0464C02002081
:1021100013B596210D4C8901200004F029FD200003
:1021200004F028FD0028FAD0142006F0EBFB040090
:1021300000F04CF8064B074A1C60074B0749009318
:102140002000074B00F027F813BDC046600A0020AE
:102150004C02002038EB000049EB000042EB00008D
:1021600010EB0000002070477047000010B504001D
:10217000034B08330360006906F0CCFB200010BD60
:1021800088EB000010B50400FFF7F0FF200006F018
:10219000C1FB200010BDF0B51F00036985B004002D
:1021A00003911600002B0BD1102006F0ABFB0500AD
:1021B0000A9B3200009303993B0000F0A5F82561CB
:1021C000206900F0A7F805B0F0BD00000F4B70B516
:1021D00008330360002305000D4C0361200000F06C
:1021E00091FA2000532100F051FA2D21200000F037
:1021F0006AFB0821200000F066FB200000F052FA84
:102200000A2003F0E7FC280070BDC04688EB000000
:102210005002002073B5374C05005321200000F018
:1022200035FA3221200000F04EFB0021200000F0A2
:1022300070FB012306225321200000F0FCFA20004D
:1022400000F09AFB0600200000F096FB00023043ED
:1022500006F08AFFEE21890506F054FE6860200032
:1022600000F08AFB0600200000F086FB00023043ED
:1022700006F07AFFEE21890506F044FEA8602000F2
:1022800000F07AFB0600200000F076FB00023043ED
:1022900006F06AFFEE21890506F034FE164CE86070
:1022A0001649200005F0BAFF686808F045FD0226CF
:1022B00002000B000096200006F0BEF91049200035
:1022C00005F0ACFFA86808F037FD009602000B008F
:1022D000200006F0B1F90B49200005F09FFFE868E7
:1022E00008F02AFD009602000B00200006F0AAF973
:1022F00073BDC04650020020600A002072EB00004F
:1023000077EB00007FEB00008360009B0160426080
:10231000C3607047F0B5C14CCBB00500C049200088
:1023200005F0A0FFFA20800003F054FCBD4E6A685F
:102330002968300002F0E3F907009620400003F01E
:1023400049FC032FF2D1B849200005F08BFFB749B3
:10235000200005F063FF31000EA802F0B7F90EA9C6
:10236000200005F089FF0EA801F01AFFA96802A855
:1023700006F0C5F9E96805A80BAE06F0C0F92968B2
:1023800008A806F0BCF96968300006F0B8F9A84D55
:1023900008AB05AA02A92800009600F009FC30004D
:1023A00006F05EF908A806F05BF905A806F058F9F2
:1023B00002A806F055F92800012100F012FC9D4901
:1023C000300006F09CF9BE239B4A5B00009201930B
:1023D000280032000EA901F0E5FC0500300006F0EF
:1023E0003FF9002D00D101E19449200005F03AFFAA
:1023F0009349300006F083F90EA908A801F094FD76
:1024000008A9300006F004FA0100200005F020FFC2
:1024100008A806F025F9300006F022F989493000B5
:1024200006F06DF90EA908A801F032FD08A93000E8
:1024300006F0EEF90100200005F00AFF08A806F0FA
:102440000FF9300006F00CF97F49200005F0E6FE98
:102450000EA9300001F01CFD7C49300006F0E5F9C2
:102460000500300006F0FCF8002D07D00EA801F0A2
:1024700062FD0A220100200005F04BFF0EA90BA807
:1024800001F006FD72490BA806F0CFF904000BA875
:1024900006F0E6F8002C09D00EA801F074FD0B0040
:1024A0000A21020000915D4805F0E6FF0EA90BA885
:1024B00001F0EEFC67490BA806F0B7F904000BA881
:1024C00006F0CEF8002C0ED00EA801F044FD0B0053
:1024D0000A2102000091514805F0E9FF0EA801F021
:1024E000B2FE4BB0F0BD0EA90BA801F0D1FC5A49C9
:1024F0000BA806F09AF904000BA806F0B1F8002C1E
:102500000AD00EA801F052FD0B000221020000913A
:10251000424806F097F8E1E70EA90BA801F0B8FCD5
:102520004E490BA806F081F904000BA806F098F8B4
:10253000002C05D00EA801F04AFD08F0FDFBE3E7F2
:102540000EA90BA801F0A4FC45490BA806F06DF9F3
:1025500004000BA806F084F8002C0AD00EA801F0A5
:1025600049FD4049002800D13F492C4805F07AFE3A
:10257000B4E70EA90BA801F08BFC3C490BA806F0B0
:1025800054F904000BA806F06BF80EA90BA8002C58
:1025900009D001F043FD0BA9204805F059FE0BA816
:1025A00006F05EF89AE701F073FC31490BA806F0DB
:1025B0003CF904000BA806F053F80EA90BA8002C58
:1025C00002D001F041FDE6E701F062FC29490BA8C9
:1025D00006F02BF904000BA806F042F8002C00D1FD
:1025E0007CE70EA90BA801F043FDD4E72249300097
:1025F00006F085F80EA908A801F04EFD08A93000E4
:1026000006F006F90100200005F022FE08A806F0F9
:1026100027F8300006F024F860E7C046600A002082
:10262000B3EB000010050020D0EB0000EDEB000044
:102630008C040020F3EB0000D0439A97FEEB0000DF
:1026400001EC000008EC00000FEC000017EC0000AB
:102650001CEC00001BEC000022EC000029EC000048
:102660002FEC0000A8EB0000ADEB000037EC000001
:102670003EEC000043EC000049EC000000207047F5
:1026800010B503689C6B0123A04710BD8C2300226A
:102690009B00C154103BC3185A609A60DA60012352
:1026A0008375704710B5036801211B6B984710BDF7
:1026B000F8B505000E0017000024BC4208D02B68B6
:1026C000315D1B6828009847002801D00134F4E7E9
:1026D0002000F8BDFC30406A704770478E239B0095
:1026E000C15070478D239B00C15070470300FC33DD
:1026F0005A6A002A03D01B6AC018007E7047012066
:102700004042FBE770B5060018250C49006904F04B
:102710003FF8306903F07DFE2B000821307D084C26
:102720004343E318595603F0DFFC0821707D45430D
:102730006419615603F0D8FC70BDC046A086010044
:102740006CF2000070B504000D00006903F076FE25
:102750002900206904F01CF8206903F05AFE70BDBE
:1027600010B5006903F06AFE10BD0000F7B50193D3
:10277000FA238026002504009B008360134B76001B
:1027800008330F00456029000092036032001830C2
:1027900008F056FC23002000FC332530DD613200B8
:1027A0001D6229005D62FF3008F04AFC88239B000F
:1027B000E3185D609D60DD606B461B7827612375C3
:1027C0006B461B79A57520006375FEBD54EC0000B7
:1027D00070B506001825006903F0B5FF306903F0F5
:1027E00018FE2B000821307D064C4343E318595650
:1027F00003F07AFC0821707D45436419615603F0AB
:1028000073FC70BD6CF2000010B50022FFF7E0FF12
:1028100010BD0300802210B5FC33DC6852009442E6
:1028200008D05A6881545A680132D2B25A60DA68C4
:102830000132DA6010BDF7B50400171E019302D112
:1028400000252800FEBD03000022FC33DA611A6275
:102850005A620069013203F023FE061EF0D0230005
:1028600020691833009303F0AEFE01000098FFF7D3
:10287000D0FF01252069BD4214D003F082FE00285C
:102880000FD0206903F0ECFD0221206903F0F2FD76
:10289000206903F098FE01000098FFF7BAFF0135A8
:1028A000E8E70600206903F0D3FD019B002B06D06A
:1028B000002E06D00321206903F0DCFDC1E7002EC5
:1028C000BFD1013DBDE7002310B5827D9A420CD0F7
:1028D000882292008218D46880225200944204D048
:1028E0002530FF30FFF795FF0123180010BD0300CE
:1028F000FC33DA68002A09D09A68805C9A68013251
:10290000D2B29A60DA68013ADA6070470120404238
:10291000FBE700228C2370B59B00827504000E003B
:10292000C15C006903F0BCFD002806D103212069C9
:1029300003F0A0FD0225280070BD88239B00E3184A
:10294000DD68002D11D020002530FF302569FFF70C
:10295000CEFFC1B2280003F0E5FD0028EDD1032130
:10296000206903F087FD0325E5E7002EE3D003216E
:10297000206903F07FFDDEE710B51830FFF7B7FFE1
:1029800010BD70B50400006903F0F2FD002815D0F9
:10299000206903F004FE002811D0206903F060FDD7
:1029A0000321206903F066FD8E239B00E558002D6E
:1029B00035D10023FC34E3612362636270BD20697A
:1029C00003F0F7FD002809D0206903F0EDFD002891
:1029D00004D0206903F0F2FD0028DED0206903F066
:1029E000E8FD002821D1206903F0D4FD0028E5D0BE
:1029F000206903F0E3FD002833D088239B00E3180F
:102A0000DB68FF21002B05D020002530FF30FFF7C9
:102A10006EFFC1B2206903F09DFDA075CEE723686B
:102A200020001B699847A847C3E7206903F018FDF9
:102A30002069032103F01EFD206903F0BFFD00287B
:102A4000BCD0882300229B00E3185A609A60DA60A9
:102A50000123A3758D239B00E3589342AED0984782
:102A6000ACE72300FC335A6A802320695B009A425A
:102A700006D103F0EDFC0321206903F0FBFC9DE788
:102A800003F0A1FD010020001830FFF7C2FE20690D
:102A900003F0E6FCEFE7000010B50248FFF771FF16
:102AA00010BDC0465002002010B50C230B22024975
:102AB0000248FFF75BFE10BD380A002050020020DC
:102AC00010B50400243005F0CBFD2000183005F0CF
:102AD000C7FD20000C3005F0C3FD200005F0C0FD4F
:102AE000200010BD70B5050005F010FF04002A009D
:102AF000002108F0A5FA200070BD10B5002801D013
:102B000005F00CFF10BD10B5002801D005F006FF40
:102B100010BD10B58268002105F0BAFE10BD10B5D9
:102B200004000068FFF7E9FF200010BD70B50C003D
:102B300005000068FFF7E1FF601CFFF7D3FF286086
:102B400070BD000070B50D0004004021FFF7EEFFDE
:102B50002A000249206808F09DFF70BD58F100006E
:102B6000002310B504000360FFF7ECFF200010BD48
:102B700070B504000C4D290005F0C1FD20002900AE
:102B80000C3005F0BCFD20002900183005F0B7FD21
:102B900020002900243005F0B2FD00236363034BBD
:102BA0002000238770BDC046C6F600001027000035
:102BB00070B504001D00160005F0C0FD20003100B6
:102BC0000C3005F0BBFD20002900183005F0B6FDE3
:102BD00020000499243005F0B1FDBC23FF33238687
:102BE00070BD32300170704710B506480C0001F01E
:102BF00076FD0123032803D0053BB834236000236E
:102C0000180010BD10050020030070B532331B788A
:102C10000400002B10D0094D280001F060FD0328AE
:102C20000AD0236A002B07D0E36A002B04D0626A23
:102C3000A169280001F063FD70BDC04610050020A9
:102C4000030070B532331B780400154D002B1ED0E5
:102C5000280001F044FD032819D0636B002B05D137
:102C60002000FFF7D1FF02F07FFF6063280001F032
:102C700036FD032809D002F077FF636B228FC31A59
:102C80000020934200D9606370BD00236363280075
:102C900001F025FD033843425841C0B2F4E7C04675
:102CA0001005002010B50C00FFF7CAFF002803D163
:102CB0000423B8345B42236010BD000010B50C0043
:102CC000080008F027FF21002218094891420ED081
:102CD0000C78031263401C0963409CB20002584008
:102CE000230358406401604080B20131EEE710BD1B
:102CF000FFFF000070B54C1C200005F007FE05002A
:102D00002200002108F09CF9280070BD70B5040075
:102D100008000D0008F0FEFE411C2000FFF7EAFF4E
:102D20000400290008F0D6FE200070BDF0B587B081
:102D30000391C8211500029349000CAB1E782F00A7
:102D4000FFF7D8FF731FDBB2040001934937042E4D
:102D500000D080E0744908F0BDFE01233B700D9B5C
:102D60001B78002B05D02F2B03D07049200008F0D2
:102D7000B1FE0D99200008F0ADFE019B012B03D898
:102D80006A49200008F0A6FE6949200008F0A2FE6A
:102D90000E99200008F09EFE664F032E74D1AB689A
:102DA000002B3ED06449200008F094FE29682000E2
:102DB00008F090FE6B69002B07D06049200008F0F6
:102DC00089FEE968200008F085FE2B6A002B07D0F9
:102DD0005B49200008F07EFEA969200008F07AFE19
:102DE000EB6A002B07D05749200008F073FE696A90
:102DF000200008F06FFEAB6B002B07D0524920007B
:102E000008F068FE296B200008F064FE6B6C002B54
:102E100007D04E49200008F05DFEE96B200008F065
:102E200059FE3900200008F055FE4949200008F0FD
:102E300051FE0299200008F04DFE4649200008F09E
:102E400049FE4549200008F045FE4449200008F0AD
:102E500041FE43493BE04349012E0CD94249022E31
:102E600009D04249032E06D0019B4149012B02D9CA
:102E7000072E03D13F49200008F02CFE3E492000D8
:102E800008F028FE002369E7012E01D0062E03D1A9
:102E90003A49200008F01EFE3900200008F01AFE12
:102EA0002B49200008F016FE0299200008F012FEBF
:102EB0002849200008F00EFE2749200008F00AFEED
:102EC000042EC2D12E49200008F004FE2D49200016
:102ED00008F000FE2C49200008F0FCFD022E02D96B
:102EE000019B012B0ED82949200008F0F3FD0F9912
:102EF00005A8FFF735FE0599200008F0EBFD05A8B1
:102F0000FFF70DFE134D2000290008F0E3FD290016
:102F1000200008F0DFFD2100039805F029FC2000C7
:102F200005F0FCFC07B0F0BD3DED0000A4EC000096
:102F3000A6EC00006AED0000F8F0000002F10000CD
:102F400011F100001FF1000029F1000031F1000033
:102F500076ED00003AED00007DED0000C4ED0000CC
:102F6000DDED000042ED000046ED00004BED0000FD
:102F70004FED000055ED0000C0EC00005CED0000DE
:102F800094ED0000A8ED0000FFED0000F0EC000063
:102F90000A00002310B54B328831137053709370C0
:102FA000D3700800FFF7B5FD10BD0000F0B50500B7
:102FB00008000C008FB0059314AB1B78A030099368
:102FC0001700FFF7A6FD230052331B780693002B52
:102FD00007D02000C43001F0B1F9002528000FB05F
:102FE000F0BD21002800FFF7FFFD002800D1C4E05C
:102FF0003B78002B05D0AB68002B02D06B69002B0F
:1030000004D1C825B8346D002560E7E7260021000B
:1030100028006436FFF7BCFF3000FFF77AFD23007D
:1030200049330793059B042B00D08CE0E16F3800F7
:1030300008F05EFD002803D0230001224D331A70F2
:10304000079B1B78002B04D023004D331B78002BEB
:1030500009D02600C436300001F061F9002802D002
:10306000300001F06BF926007C363000FFF751FD8F
:103070003B78002B05D02F2B03D04549300005F0BD
:1030800077FB3900300005F0B1FB21002800FFF785
:1030900009FE0890002870D02300C433079318005D
:1030A0002A8E296801F01EF9059B033B012B05D9E7
:1030B000159808F02FFD059B072B61D1159808F096
:1030C00029FD86B233490BA805F019FB0396EB687E
:1030D00001970293059B220000932B680BA92800FF
:1030E000FFF724FE069B002B0BD02B492800FFF78F
:1030F0000DFE060001000BA805F078FB3000FFF77D
:1031000002FD15990BA805F071FB069B002B0BD057
:1031100021492800FFF7FAFD050001000BA805F082
:1031200065FB2800FFF7EFFC0B99079801F03BF9CE
:10313000059B0500062B02D14A34053B23700BA8E2
:1031400005F08EFA4AE7079B1B78002B03D020007E
:10315000C43001F0F3F83B78002B05D02F2B03D0BF
:103160000B49300005F004FB3900300005F03EFB50
:103170002300002248331A7087E704256D422DE7AB
:10318000099B082B9AD1089B023086B2069399E7D7
:103190005CF10000C6F60000B2EC00000B00F0B5D8
:1031A0000600080052331D7885B00C001700C430AB
:1031B000002D04D001F0C2F8280005B0F0BD01F0E8
:1031C000AEF800280BD0230049331B780393002B63
:1031D00005D0E16F380008F08BFC002820D03B7848
:1031E000002B18D0B368002B15D07369002B12D0B8
:1031F00002F0BAFC2300C03318600A4B3A00019376
:103200000823210000933000043BFFF7CFFE454226
:103210004541EDB2D0E7C823B8345B002360CBE76B
:10322000039DC9E7C6F60000C82310B55B009942AC
:1032300000D18EE042DCCB1C00D184E0CB1C1DDC35
:103240000B000B3300D1A8E00B000B330CDC0B00A0
:103250000D3300D19DE00B000D3300DD9FE00E31FA
:1032600000D198E000206BE08B1D00D16FE00B1DBA
:1032700000D16AE00A31F5D14A495FE0CC2900D19A
:1032800069E007DC4B1C58D04B1C5ADBCB29E9D139
:10329000454953E03223FF3399425ED005DC2E23AB
:1032A000FF339942DED1414948E03423FF3399424C
:1032B00055D001339942D5D13D493FE09C23FF339E
:1032C000994258D019DC9623FF3399424DD00ADC3D
:1032D0009423FF33994244D045DC9223FF33994233
:1032E000C0D134492AE09823FF33994241D03EDBD4
:1032F00001339942B6D1304920E0FB235B0099426B
:103300003FD00CDCB023FF33994236D0453399428D
:1033100035D0AE23FF339942A4D128490EE0FC23D7
:103320005B00994231D02EDBFA23FF3399422ED035
:10333000234B994296D1234900E02349FFF7E6FC4D
:1033400010BD2249FAE72249F8E72249F6E7224967
:10335000F4E72249F2E72249F0E72249EEE7224961
:10336000ECE72249EAE72249E8E72249E6E7224971
:10337000E4E72249E2E72249E0E72249DEE7224981
:10338000DCE72249DAE72249D8E72249D6E7224991
:10339000D4E72249D2E72249D0E72249CEE72249A1
:1033A000CCE7C04644F0000096EE0000BEEE000000
:1033B000EDEE000000EF00005FEF00007FEF000087
:1033C000FF0100000FF0000033EE000046EE0000A9
:1033D0005DEE00006BEE00007BEE00008AEE000068
:1033E000B3EE0000D0EE0000DAEE00000DEF0000BA
:1033F00017EF000021EF000032EF000041EF000066
:103400006FEF000091EF0000B0EF0000C6EF00008A
:10341000D2EF0000E6EF0000F6EF000051F00000F0
:1034200064F00000C3F000002FF00000F8B50D00BC
:1034300016001C0000291DD0002A1BD0080008F02F
:1034400069FB0700300008F065FB002F12D0002850
:1034500010D00023295D00290CD0F25C002A09D08D
:10346000BC4207DA01349142F3D101339842F1D1E1
:10347000201AF8BD01204042FBE7F8B50E0011000C
:103480001F000500FFF742FC3B0002003100040072
:103490002800FFF7CBFF05002000FFF734FB2800D2
:1034A000F8BDF7B517000C000190926800213800B4
:1034B000009305F0EDF90023009A21000198FFF731
:1034C000DCFF0500431C23D0200008F023FB06008E
:1034D000009808F01FFB761B311A0198FFF70AFCD1
:1034E000061E15D0009808F015FB0090200008F08B
:1034F00011FB009B421BED18D21A6119300008F035
:1035000021FB3100380005F033F93000FFF7FBFAFA
:10351000F7BD0000F7B5167807000C001500002E67
:1035200020D009237B2E0FD00A235B2E0CD02549F7
:10353000100008F0DDFA002805D02349280008F023
:10354000D7FA002805D107236365636D5C342370C7
:10355000F7BD0823222EF7D01C49280008F0C8FA2E
:10356000002801D10123EFE70023194A2900380080
:10357000FFF783FF431C07D0280008F0CBFA06238F
:103580000728E1D90223DFE72B782D2B0DD10A2262
:10359000681C01A909F03CFB2B782D2B0BD10029CD
:1035A00007D1002805DB0323CEE70A2201A9280062
:1035B000F0E70423C8E7002901D10028F3DA052346
:1035C000C2E7C046A7F00000A2F000002BED00000B
:1035D000B4EC0000F0B50F0095B00600C1483C0007
:1035E00001F07DF8B834032805D004235B42236042
:1035F0000023039340E03B00703318000693FFF76D
:1036000088FA3A000023BC3223601360713A1370C9
:103610003B00883318000893FFF77BFA02F0A4FA06
:103620003B00029049331B780393002B27D13B00CA
:10363000C433180004933D0000F071FEDC3500280F
:1036400010D0049800F072FE049000280AD102F015
:103650008BFA029BC01A2B88984203D2049802F07E
:10366000B9FAE4E702F080FA029BC21A2B889A4268
:1036700005D30A235B422360039815B0F0BD02F026
:1036800073FA3B00C43309901800079300F047FE1B
:1036900002900390002802D149373B78A9E70798A8
:1036A00000F044FE0028F7D000258F4C0BA8210025
:1036B00005F025F821000EA805F021F8210011A839
:1036C00005F01DF805950495079800F02FFE0028D9
:1036D00000D165E1079800F02DFE041E0CDB0D28DB
:1036E00008D00A2806D0814B9D4203D8C1B20BA84E
:1036F00005F085F80135ADB280230D9A5B019A4241
:1037000007D93B0001214B3319700BA8002105F0AC
:10371000BFF80A2C00D031E102F026FA0D9B099087
:10372000002B00D126E1724B0EAA0B993000FFF757
:10373000B8FE109B002B00D09BE00B996D4B0EAA9E
:103740003000FFF7AEFE1099002909D002390EA80B
:10375000022205F09DF838000EA9A03004F0EEFF1B
:10376000654B0EAA0B993000FFF79BFE109B002BB8
:103770000DD00EA911A804F0E1FF3B00C822B83318
:103780001A600BA8FFF7C5F9029B059304935B4BE6
:103790000EAA0B993000FFF784FE109B002B00D17E
:1037A000E8E03B00C822B8331A600BA8FFF7B1F974
:1037B0000EA90BA804F0C2FF029B079304933B00E1
:1037C000B8331A68C82A00D0A9E1049B002B00D1A5
:1037D0006BE13B00002548331D703C00049302F070
:1037E000C3F9079BC0342060AB4200D122E1059BA6
:1037F000AB4200D11EE12B00414A11993000FFF786
:103800003CFE431C00D0CDE02B003E4A1199300015
:10381000FFF733FE431C00D0C4E03B49119808F089
:1038200067F9A84204D1049B187002F09DF920604A
:10383000119C3649200008F05BF9002806D0344975
:10384000200008F055F9002800D0F3E00023049A86
:10385000137002F089F93B00C0331860380011A9D9
:10386000AC3004F06BFF3B0001224C331A709A70AD
:10387000E0E00E9807F065FB3B00B8331860342396
:10388000FF33984248D1234B0EAA0B993000FFF723
:1038900008FE109B002B3FD03C0094340EA9200062
:1038A00004F04CFF3B00104A5E331B7801923A0053
:1038B0005F3212783900009222683000FFF776FB01
:1038C000002804D139003000FFF784FE039011A8CE
:1038D00004F0C6FE0EA804F0C3FE0BA804F0C0FE60
:1038E000CAE6C04610050020C6F60000FF0F000023
:1038F000B6EC00003BF1000001ED000009ED000016
:1039000010ED000014ED0000E5EC00008EF000006A
:103910009BF00000EDF000003B00B8331B68CC2B9F
:1039200000D1D1E60023A04A0B993000FFF7A5FD96
:10393000431C1FD09D4B0EAA0B993000FFF7B1FD21
:10394000109B002B07D09A490E9808F0D1F8002858
:1039500001D1029B0493974B0EAA0B993000FFF7FD
:10396000A0FD109B002B05D00E9807F0EAFA3B0053
:10397000BC3318600BA8FFF7CCF8002502F0F4F870
:10398000099BC01A3B00DC331B88984200D89BE699
:103990000A223B005242B8331A60002307930EE715
:1039A00007900CE7380011A9AC3004F0C7FE0023E3
:1039B000814A0B993000FFF760FD0400431C4BD196
:1039C000059C0B997D4B0EAA3000FFF76AFD1099FC
:1039D00000292BD0012201390EA804F059FF0EA9AD
:1039E000069804F0ABFE0EA8FFF793F83A6F390083
:1039F0003000FFF78FFD396F3000FFF75FF93B00B4
:103A000060331A881880002C09D000230593904257
:103A100005D03B0001224D331B785A4005926A467F
:103A20003B00127D4C331A7001229A703B00002239
:103A30004D331A7039007A6D5131012A00D08DE072
:103A40000A703B00B8331B68C82B00D13FE75A42CD
:103A50005341DBB203933AE70300594A08330B9909
:103A600030000493FFF709FD431CA9D0041B083C58
:103A700021003000FFF73EF90B9A05009446049BA5
:103A800022006344190008F05DF8796E280008F000
:103A90002FF84442444138002900643004F068FEA5
:103AA0002800E4B2FFF72FF88BE70BA9069804F083
:103AB00045FE0B9A39003000FFF72CFD3B005E33CA
:103AC0001B78022BB6D1049B3E4A0B993000FFF7BE
:103AD000D4FC0400431CADD0050009352B00384A46
:103AE0000B993000FFF7C9FC431CA3D0041B093C11
:103AF00021003000FFF7FEF806000B9B2200591949
:103B000008F020F83100089804F032FE3000FEF78B
:103B1000FAFF049B06987B65FEF7FBFF8AE73900F6
:103B20004A310978002913D0CC2A83D13800043ACD
:103B30001A606430FEF7EDFF0698FEF7EAFF08987A
:103B4000FEF7E7FF3A0000234E327B65137071E702
:103B500001223B005242BC331A606BE70023029CF7
:103B60000B70062A04D00120911E88425B41DCB212
:103B7000B96D042308009843030038005030022B2D
:103B80000ED0002909D0CB1E5D426B41DBB28A42C8
:103B900003D0002C06D0002B04D00023037050E784
:103BA000029BF4E70123F9E7C2EC0000C4EC00003B
:103BB000D3EC0000F0EC00001AED000023ED000053
:103BC000B2EC000030ED00000B00F0B552331D7870
:103BD00087B0723306000C000093002D05D018004A
:103BE00000F0ACFB280007B0F0BDFFF70DF8210096
:103BF0003000FFF7CDF9210003A87C3104F0AEFDC1
:103C000023002700483301931B78C037002B1BD0BB
:103C100001F0AAFF019B38601D70009800F07FFB47
:103C2000002804D1039A21003000FFF7B7FA2100E1
:103C30003000FFF7CFFC051E02D1009800F07EFB9C
:103C400003A804F00DFDCDE73B68002BE5D001F0A3
:103C50008BFF3B68C01A054B9842DED90123019ABD
:103C60000098137000F06AFBD7E7C046409C000044
:103C7000F0B587B01D000CAB1B78049203930B00CA
:103C800000220600080052331A70A0300C00FEF724
:103C900040FF049B1B78002B05D0B368002B02D09B
:103CA0007369002B05D1C823B8345B002360002062
:103CB0002BE002232A009A4302D06B1F012B06D867
:103CC0000D9B1B78002B02D1039B082BEBD13000FE
:103CD000FEF79AFF324800F002FD032803D00423C8
:103CE000B8345B42E2E7230027005E3305931B787C
:103CF000C437042D0BD1042B0BD1380000F00FFB7F
:103D000000280AD0042D08D1012007B0F0BD042BF3
:103D1000F3D1380000F012FBEFE720009430FEF7FB
:103D2000F8FE059B6A461D702300127B5F331A70F4
:103D30000D9B049A0193039B2100009330002B00FC
:103D4000FFF734F90590002806D0059BB8342360AE
:103D5000380000F0F3FAAAE7380000F0E0FA002893
:103D6000F3D0039BA365042D0BD101F0FDFE2300CE
:103D7000C033186021003000FFF726FF0028E7D08D
:103D8000C2E720000499643004F0F2FC2100300006
:103D9000FFF720FCA36F4E345A1E93412370EDE7CA
:103DA00010050020F0B5136889B003930023049038
:103DB000059107A8802107930E9D0F9CFEF7B6FE84
:103DC0008020FEF78FFE070006007E372B0023437E
:103DD000B91B0293002B11D0280021000A220023D6
:103DE00004F066FF30323A70280021000A220023D6
:103DF00004F05EFF013F05000C00E7E70131711898
:103E0000079807F07FFE3000FEF777FE079B039AC6
:103E100001930323059900930498029BFFF728FF61
:103E2000040007A8FEF77BFE200009B0F0BD10B526
:103E300004006430FEF76DFE20007030FEF769FE6E
:103E4000230049331B78002B03D120007C30FEF780
:103E500060FE20008830FEF75CFE20009430FEF704
:103E600058FE2000A030FEF754FE2000AC30FEF7D4
:103E700050FE10BD10B50400C43000F05FFA2300FE
:103E8000012252331A702000FFF7D1FF10BD00004D
:103E90004B6D70B505000E000024092B04D11749A5
:103EA0001748FEF733FF0400736D16490A2B17D02D
:103EB0001549082B14D01549022B11D01449062B93
:103EC0000ED01449072B0BD01349032B08D01349EC
:103ED000042B05D01249052B02D0012B04D1114926
:103EE0000748FEF713FF04002100280004F007FC38
:103EF0002000FEF708FE280070BDC04673F00000E9
:103F00008C04002046F1000078F00000B5F00000BD
:103F10007FF00000ADF0000085F0000057EE0000DB
:103F2000BCF0000089F0000010B50400643104F01A
:103F300015FC200010BD030000209A6F10B58242CE
:103F400008D05A6D911E012901D9062A02D1186F95
:103F500006F0F7FF10BD836F37B500240025002B56
:103F60000DD0436D5A1F012A02D9023B012B06D8FE
:103F70000A2201A9006F08F04BFE04000D0020008A
:103F8000290003B030BD03009A6F13B50020002153
:103F9000002A0AD05A6D941E022C01D9062A04D197
:103FA0000A2201A9186F08F075FD1CBD836F10B5BA
:103FB000002B09D0436D9A1E012A01D9062B03D18B
:103FC000006F06F0B9FF10BD00200021FBE7836FF2
:103FD00010B5002B0BD0436D9A1E012A01D9062B78
:103FE00005D1006F06F0A8FF06F0F8FE10BD002016
:103FF000FCE70000030000209A6F10B582420AD04F
:104000005A6D072A07D170331800034904F00DFCDC
:10401000431E9841C0B210BDA8EB00008B6F10B5D5
:104020000400002B09D04A6D082A06D1013B7031EB
:10403000073A04F00FFC200010BD0249200004F0F4
:104040005EFBF8E7C6F600008B6F10B50400002B8E
:1040500007D04B6D092B04D1703104F07FFB200099
:1040600010BD0249200004F04AFBF8E7C6F6000044
:104070008B6F10B50400002B07D04B6D0A2B04D1B9
:10408000703104F06BFB200010BD0249200004F0E9
:1040900036FBF8E7C6F600000B00B8331A6870B5B7
:1040A00005000C00C82A07D10A004B321278002AFA
:1040B00020D00C2252421A6019681548FFF7B4F854
:1040C00006000100280004F01AFB002E02D0300088
:1040D00004F024FC2300A8331B68002B08D00D49F2
:1040E000280004F083FB21002800A03104F06CFBC1
:1040F000280070BD0A0050321278002A01D00D222B
:10410000D8E70A0051321278002AD5D00E22D1E722
:104110008C0400204EEC000070B50400FEF7F9FCA2
:104120002500200018350C30FEF7F3FC2800FEF7C0
:10413000F0FC2800FEF7EDFC20002430FEF7E9FC3F
:1041400020003030FEF7E5FC20003C30FEF7E1FCBB
:1041500070BD000070B50400104D290004F0CFFAC6
:10416000200029000C3004F0CAFA20002900183081
:1041700004F0C5FA20002900243004F0C0FA200021
:104180002900303004F0BBFA200029003C3004F054
:10419000B6FA2000FFF7C0FF200070BDC6F6000091
:1041A00070B50400FFF7D6FF220000232000164D53
:1041B0005E32138053802900643004F0A0FA20009E
:1041C0002900703004F09BFA200029007C3004F0B4
:1041D00096FA20002900883004F091FA2000290086
:1041E000943004F08CFA20002900A03004F087FA03
:1041F00020002900AC3004F082FA2000C43000F026
:104200005DF8200070BDC046C6F6000010B5040081
:10421000FFF782FF20003C3004F022FA200030300B
:1042200004F01EFA2000243004F01AFA200018309E
:1042300004F016FA20000C3004F012FA200004F00A
:104240000FFA200010BD10B50400FFF713FE200088
:10425000C43000F054F82000AC3004F001FA200023
:10426000A03004F0FDF92000943004F0F9F92000AA
:10427000883004F0F5F920007C3004F0F1F92000DA
:10428000703004F0EDF92000643004F0E9F920000A
:10429000FFF7BCFF200010BD10B5054C2000FEF755
:1042A00067FC044A0449200004F03CFB10BDC046F2
:1042B0008C04002000000020C12A000010B504007A
:1042C00000F0C0FC2000054B054923831C3004F09E
:1042D00016FA00232000238510BDC0468813000075
:1042E000C6F6000070B5040015001C3004F040FA5A
:1042F00025852000218B04F0B1F9012070BD70B537
:10430000040025001C3500F04BFC2800626A0021E7
:1043100004F0BEFA280004F0A3F9200070BD10B527
:1043200000F05CFC431E9841C0B210BD10B500F017
:10433000B3FB10BD10B500F0BBFB10BD10B5040001
:1043400000F04CFC00280BD0200000F0A5FB00285A
:1043500003D0200000F0ACFBF6E7200000F020FCCA
:104360002000626A1C30002104F092FA10BD70B582
:104370000400FFF7D4FF051E08D0200000F08CFBDE
:1043800000280EDD200000F093FBF6E7228DE169A6
:10439000200000F053FC002803D02000FFF7BFFFEF
:1043A0000500280070BD70B5050008000E0007F07C
:1043B000B1FB04002800FFF7DAFF00280CD0002C26
:1043C00006D03100280003F029FF0023A04201D0CD
:1043D00002235B42180070BD0123FAE770B50600A6
:1043E0000C008D18AC4207D0336821789B683000F0
:1043F000984720700134F5E770BD7047704710B5DD
:104400000400406801F0C6FF0023237610BD10B5FC
:10441000406801F0E4FF10BDF8B5050040680C00ED
:1044200001F0D8FF2B68E7B2260A9B68012810D15B
:1044300039002800FF2798472B68BC4304439B683A
:10444000310028009847030220003840184380B20A
:10445000F8BD310028009847FF262B680002344041
:1044600004439B68390028009847B4432043EEE793
:1044700010B5040004F04EFA200010BD10B54B1C1E
:104480000BD0102909D0EFF3108472B6102905DD86
:1044900002234376002C00D162B610BD0123427E78
:1044A0001A43427618224A430449891816228A562A
:1044B0009340C2691343C361ECE7C0466CF200004D
:1044C0004B1C17D0102915D0437E9B0712D4EFF355
:1044D000108272B618234B430749C9180123897DFE
:1044E00049B28B40C1699943C16100D14176002A2C
:1044F00000D162B67047C0466CF20000437E002BCC
:1045000005D09A0704D5837E002B00D062B6704791
:10451000DB07FCD5C369024A9BB2D360F7E7C0460C
:1045200000180040037E002B04D143768376C361DC
:1045300001330376704700007FB5036902AE0400C3
:104540000D00029172608B4203D1828AB3889A4235
:1045500026D0200006223100103006F055FD60689C
:1045600001F02FFF7379E17A013B581E8341227BD2
:1045700000936068002302F0C1F833790021013B09
:10458000DBB2022B01D8074AD15C074B2A009D42BF
:1045900000D91A00606801F0E5FE606801F007FFCD
:1045A0007FBDC0465EF10000001BB70070B5182645
:1045B0000400FFF7B7FF33000821207A0D4D434375
:1045C000EB18595601F090FD33000821A07A4343BF
:1045D000EB18595601F088FD0821607A4643AD1961
:1045E000695601F081FD044B200006CBFFF7A4FFC4
:1045F00070BDC0466CF200000805002007B5437E80
:1046000000910192002B07D09A070AD5EFF310838F
:104610005A425341837672B60099019AFFF78CFF94
:1046200007BDDB07F8D5C369014A9BB29360F3E786
:1046300000180040F7B500240125194B194A5D7197
:104640001A601C71184B1948083301930360184B0A
:10465000184F4360184B194E038109233A0031006B
:104660004575046104758372063B0476C472037356
:1046700004F058F91248134B019A4360124B4575E8
:1046800003811D233100026004613A0004758372C6
:104690001A3B05730476C37204F044F9F7BDC046B3
:1046A0000805002000093D0064F10000C804002056
:1046B000300A0020000000200A080000FD4300002E
:1046C000E8040020480A00201B1A000010B504006E
:1046D00003F0BAFC200001F085F8200010BD10B5F1
:1046E00001F056F810BD10B50800110001F00EF9E8
:1046F00010BD436810B5002B00D0984710BDF8B529
:10470000050008000E00170007F004FA0400380046
:1047100007F000FAE1B2C3B23A00300000F0F4FF53
:104720000424431C14D001F01FFA0024060001F0F9
:104730001BFA2B68801B98420AD22800FFF7D9FF8A
:10474000642001F047FA01F023F804000228EED9B2
:104750002000F8BD0022024B024906C37047C04644
:104760001005002050C3000013B56B460268D971D4
:104770000733546819000122A04716BD0175704720
:104780007047007CFF38431E9841C0B2704700005C
:1047900070B50E0086B0040002A8150003F054FCAA
:1047A00002AA31000848FFF79EFF00280AD0074AF6
:1047B00023680492039ADB690192059204A92A00F6
:1047C0002000984706B070BD10050020B4F6000028
:1047D00070B5037C04000D001600FF2B02D00368A7
:1047E0009B6A984700F090FC02002074FF281ED0BE
:1047F00068680023310000F0BDFA01F0B5F905004A
:1048000023682000DB6A9847002809D101F0ACF941
:104810000A4B401B984203D8012001F0DBF9EFE777
:1048200023682000DB6A9847431E984170BD044905
:10483000044803F017FD0020F8E7C0460F270000EA
:10484000A0F10000600A002070B5037C04000D0098
:104850001600FF2B02D003689B6A984700F054FCB7
:1048600002002074FF281ED068680223310000F087
:1048700081FA01F079F9050023682000DB6A984786
:10488000002809D101F070F90A4B401B984203D867
:10489000012001F09FF9EFE723682000DB6A9847C9
:1048A000431E984170BD0449044803F0DBFC00201E
:1048B000F8E7C0460F270000A0F10000600A0020C2
:1048C00070B5037C04000D001600FF2B02D00368B6
:1048D0009B6A984700F018FC02002074FF281ED045
:1048E00068680423310000F045FA01F03DF9050045
:1048F00023682000DB6A9847002809D101F034F9C9
:104900000A4B401B984203D8012001F063F9EFE7FE
:1049100023682000DB6A9847431E984170BD044914
:10492000044803F09FFC0020F8E7C0460F27000072
:10493000A0F10000600A0020F7B5037C04000E001F
:104940001700FF2B02D003689B6A984700F0DCFB3E
:1049500005002074FF2825D0300007F0DBF8022383
:10496000C1B2019300953B000022300000F044FAF0
:1049700001F0FAF8050023682000DB6A9847002858
:1049800009D101F0F1F80A4B401B984203D80120ED
:1049900001F020F9EFE723682000DB6A9847431E07
:1049A0009841FEBD0349044803F05CFC0020F8E791
:1049B0000F270000A0F10000600A0020F7B5037C7B
:1049C00004000E001700FF2B02D003689B6A984773
:1049D00000F09AFB05002074FF2825D0300007F076
:1049E00099F80423C1B2019300953B0000223000E6
:1049F00000F002FA01F0B8F8050023682000DB6A35
:104A00009847002809D101F0AFF80A4B401B9842A3
:104A100003D8012001F0DEF8EFE723682000DB6A0D
:104A20009847431E9841FEBD0349044803F01AFC11
:104A30000020F8E70F270000A0F10000600A002026
:104A4000F8B50500007C0E001400FF2804D10123F6
:104A500000246B602000F8BD002AF8D092B200F06C
:104A6000C5FA002815D12B7D002B03D1287C00F03E
:104A700017FAECE72B6822005F6C31000123280055
:104A8000B847041EF2D0287C00F0F2FA0028DED0ED
:104A9000E0E70400F7E7000010B5017C0020FF29E3
:104AA00002D0024800F0FCF810BDC04618050020F6
:104AB000036837B51B6904009847002809D06B4686
:104AC000DD1D217C01232A00034800F025F9287808
:104AD0003EBD01204042FBE71805002010B50C0048
:104AE0001300017C2200024800F016F910BDC046F8
:104AF0001805002010B5017C014800F0FDF810BD3C
:104B00001805002007B500236A4601931380007C36
:104B100001A900F0B5FD6B466A461B7850781B0270
:104B2000C01880B20EBD13B500236A46040001937D
:104B30001380087C01A900F0A3FD01A9200003F067
:104B400099FA200016BDF8B505000E001700002BDD
:104B50000AD00524BAB2287C310000F047FA0028B8
:104B600003D1013C002CF5D10020F8BD00234360A7
:104B7000FA239B008360044B08330360FF23037414
:104B8000FE3B03757047C046B4F1000010B5037CCE
:104B90000020FF2B02D0180000F0B6F910BD000075
:104BA00070B50400007CFF2814D000F079F932259C
:104BB0002000FFF7EBFF002806D0013D002D03D0B9
:104BC000642001F007F8F3E7217C034800F04EF879
:104BD000FF23237470BDC0461805002070B5037C08
:104BE00004000025FF2B05D003681B699847A842E5
:104BF00002D00125280070BD2000FFF7C7FF0A285A
:104C0000F7D8054BC340DB07F3D5217C034800F000
:104C10002DF8FF232374EDE7EF04000018050020B2
:104C20001FB5054B02934B6802A901930393FFF74D
:104C30000BFE05B000BDC046B4F6000010B5FFF78E
:104C40007BFE10BD10B50400FFF790FF024B200063
:104C50000833236010BDC04610F2000010B50400F8
:104C60007822002106F0ECF9200010BD10B50C24CC
:104C70004C4304192068002805D006F0A9F9002348
:104C800063602360A36010BD70B50500002421009F
:104C900028000134FFF7EAFF0A2CF8D1280070BD84
:104CA000F7B50C244C430419A36805000E00002B33
:104CB0001AD12768002F05D10E4806F07FF9A760AA
:104CC000606020606B469F1D0A4BF0B23A0021687D
:104CD0003B8000F04FF9002806D023683A886360D3
:104CE0000C237343EB189A600C235E43AD19A8683C
:104CF000FEBDC046DC05000070B504000D00FFF7E6
:104D0000CFFF002805D00C21694364186368187828
:104D100070BD01204042FBE7F8B506000C0017000B
:104D20001D00FFF7BDFF002811D0854200DD050002
:104D30000C235C4334192A006168380006F064F9DA
:104D4000280063685B196360A3685B1BA360F8BD00
:104D500010B5054C2000FFF781FF044A04492000EC
:104D600003F0E0FD10BDC046180500200000002043
:104D7000894C00007FB50E0069468C1C23701D4BCA
:104D8000CD1C1B7801902A70002B01D100F00CFA89
:104D9000002000F0E3F900F05FFA04212D2000F07C
:104DA0000DFC002201A8042100F0CAFA3000002105
:104DB00000F0F2FB28000022012100F0C1FA0122DC
:104DC0002000110000F0BCFA00F06EFA002000F0A4
:104DD000C5F900F041FA0E220F2300216A446B440A
:104DE000117019702D20013100F0D2FA00F05CFA38
:104DF0007FBDC04691050020F0B51C00274B85B053
:104E00001B7806000D000192002B01D100F0CCF9B7
:104E1000002000F0A3F900F01FFA05212D2000F07A
:104E2000CDFB30000022290000F08AFA0022042184
:104E300001A800F085FA0021200000F0ADFB00225F
:104E400001210AA800F07CFA01220BAE110030000B
:104E500000F076FA03272C0011343C400135002C79
:104E600002D000F04DFAF6E700F01EFA3078043870
:104E700043425841C0B200F071F900F0EDF90E2242
:104E80000F236A446B4401212D2014701C7000F024
:104E90007FFA00F009FA05B0F0BDC0469105002088
:104EA0001FB56B46DC1D174B20701B78002B01D102
:104EB00000F07AF9002000F051F900F0CDF901215D
:104EC0002E2000F07BFB01222000110000F038FAB8
:104ED00000F016FA00F014FA00F0E6F9002000F0F5
:104EE0003DF900F0B9F90E220F2300216A446B440A
:104EF000117019702E20013100F04AFA00F0D4F937
:104F00001FBDC046910500201FB56B46DC1D184B28
:104F100020701B78002B01D100F046F9002000F032
:104F20001DF900F099F901212F2000F047FB012223
:104F30002000110000F004FA00F0E2F900F0E0F9BE
:104F400000F0B2F9002000F009F90E2400F084F915
:104F50000F2300226C446B441A702270012122003E
:104F60002F2000F015FA00F09FF9207804B010BD52
:104F70009105002073B56B46DD1D0E0014002870EE
:104F800000F00AF9002801D1208076BD164B1B786D
:104F9000002B01D100F008F9002000F0DFF800F04C
:104FA0005BF90221452000F009FB002201212800C5
:104FB00000F0DDFA01220221200000F0D8FA00F012
:104FC0009FF900F071F9002000F0C8F800F044F9F2
:104FD00022003100452000F098FA00F065F92088A1
:104FE000431E9841C0B2D0E7910500207FB56B46C3
:104FF000DC1D1E4B0E001B7815002070002B01D10C
:1050000000F0D2F8002000F0A9F800F025F9022104
:10501000442000F0D3FA00220121200000F0A7FA7A
:1050200030000122290000F0A2FA03262C000934E6
:1050300034400135002C02D000F062F9F6E700F0B0
:1050400033F90E25200000F089F800F005F90D2253
:105050006D446A442900442014702C8000F0CCF97F
:1050600000F022F9288804B070BDC04691050020E8
:10507000F0B50E2585B00F2700246B4601266D4440
:105080006F44D8712C703C701E4B1B78002B01D1E3
:1050900000F08AF8002000F061F800F0DDF831003F
:1050A0002A2000F08BFA6B4632003100D81D00F048
:1050B00047F900F025F900F023F900F0F5F8002099
:1050C00000F04CF800F0C8F83B002A0031002A201C
:1050D00000F05EF900F0E8F82B78002B0FD10134D6
:1050E0006420A4B200F076FD2B78002B01D1182C9F
:1050F000CAD9193C601E8441E0B205B0F0BD00245D
:10510000F2E7C04691050020134B13B51B78002B26
:1051100001D100F049F8002000F020F800F09CF8E0
:1051200000213F2000F04AFA00F0BEF8002000F015
:1051300015F800F091F86B469C1DFF2323706B4619
:10514000002207331A70012122003F2000F020F9CD
:1051500000F0AAF8207816BD9105002070B5050072
:1051600000F002FD0400094B187800F0A5FF0028AC
:105170000BD0002DF7D000F0F7FC054B001B984238
:10518000F1D80448FFF7B5FAEDE770BD0400002040
:105190000F2700001005002010B51E2000F08CFF26
:1051A000431E984110BD0000F8B51C23234E244F28
:1051B0003370244C07333B70BD33237000F0B2FBD7
:1051C000214DDF2804D801232B702378DB43237083
:1051D0003078012100F0F8FE3878002100F0F4FE6C
:1051E0002078012100F0F0FE01211E2000F0ECFEED
:1051F00001211E2000F034FF3078012100F030FF43
:105200002978207800F02CFF0A2000F0E3FC2978B0
:1052100001252078694000F023FF0C4800F0DAFCFB
:1052200000211E2000F01CFF00211E2000F0CCFEFB
:105230000748FFF7BBF9074B1D70F8BD06000020BB
:10524000040000200500002090050020EE02000070
:10525000E80400209105002013B500246B466A463F
:105260001C7101235371019A0B490C48FFF7C6F9D1
:105270000B4B2100187800F0F3FE00F075FC0400E1
:10528000084B187800F018FF012804D000F06CFCDF
:10529000001B0428F4D913BD00127A00E804002092
:1052A000060000200400002010B5044B01211878EE
:1052B00000F0D6FE0248FFF721F910BD06000020DD
:1052C000E804002007B56B46D871D9790248C9B205
:1052D000FFF79DF80EBDC046E804002010B504009D
:1052E000FF20FFF7EFFF207010BD70B50C00050028
:1052F0000800FFF7F3FF2078401B4342584170BD80
:1053000013B56B46DC1D002320002370FFF7E6FF7A
:10531000207816BD70B50500084CFFF7F1FFEF28A7
:1053200008D0013C002C01D0A842F6D1401B4342DA
:10533000584170BD01204042FBE7C046E903000030
:10534000F8B5050008000E0017002C00FFF7BAFFA3
:10535000631B9E4204DD2078FFF7B4FF0134F7E7BA
:10536000012F02D1EE20FFF7ADFFF8BD10B504000C
:10537000000AFFF7A7FFE0B2FFF7A4FF10BD10B5CA
:105380000400FF20FFF79EFF002C00D0207010BD0E
:10539000F0B585B01F0002ABDC1D00230500E02046
:1053A000019116002370FFF7B5FF002802D10020FD
:1053B00005B0F0BD2000FFF791FF80222378154350
:1053C000AB42F4D12000FFF789FF2378019A934282
:1053D000EDD13800FFF7D3FF35003A78AB1B9A4286
:1053E00004DD2800FFF77AFF0135F6E72100EE2003
:1053F000FFF77BFF0120DBE7F7B56B46DC1D0023E1
:105400000500E0200E0017002370FFF783FF00283F
:1054100001D10020FEBD2000FFF760FF802223782D
:105420001543AB42F5D1FFF76BFF00280DD03800D4
:10543000FFF7A5FF35003A78AB1B9A4205DDFF2048
:10544000FFF740FF28700135F5E72100EE20FFF758
:105450004CFF0120DEE7F0B587B004ABDE1D002372
:105460000500E020039114003370FFF753FF00287C
:1054700002D1002007B0F0BD3000FFF72FFF8022DF
:1054800033781543AB42F4D1FFF73AFF019000287F
:10549000EFD005234343E3180293029B9C421AD0AA
:1054A000FF20FFF70FFF002720702378BB4210DD9D
:1054B000A37865781B022B43E578FF202D042B434E
:1054C00025792D061D43FFF7FDFEED1928700137E4
:1054D000EBE70534E1E7019B039A9342C9D1310020
:1054E000EE20FFF702FF0120C4E770B50500FF20A2
:1054F000FFF7E8FE0400FF20FFF7E4FE240220434C
:1055000080B2002D00D0288070BDF0B5002485B099
:1055100002AB0700DD1DE020019116002C70FFF7A3
:10552000F9FEA04202D1002005B0F0BD2800FFF72F
:10553000D5FE80222B781743BB42F4D1FFF7E0FE63
:1055400000280ED03000FFF7D0FF3388A34208D9DF
:10555000019BFF201F19FFF7B5FE01343870A4B27C
:10556000F3E72900EE20FFF7C0FE0120DCE770B56D
:1055700004000D0008001600FFF7F8FE6519AC42A4
:1055800004D02078FFF79EFE0134F8E7012E02D107
:10559000EE20FFF797FE70BD70B5040002200D00ED
:1055A000FFF790FE200AFFF78DFEE0B2FFF78AFEBC
:1055B000012D02D1EE20FFF785FE70BD70B504000D
:1055C000E0200D00FFF77EFE7F202040FFF77AFEEF
:1055D0002800FFF777FE002D02D1EE20FFF772FEC4
:1055E00070BD000070B586B0050014000E000B22DF
:1055F000002102A805F024FD09232A0A6B441D702E
:105600005A702A0C2D0E9A70DD700E236B441E808A
:10561000360C5E801323220A6B441C705A70220CD5
:10562000240E9A70DC70154B1B78002B01D1FFF70C
:10563000BBFD0020FFF792FDFFF70EFE21200121A8
:10564000FFF7BCFF6B460122D81DFF23110003703A
:10565000FFF776FEFFF754FEFFF752FEFFF724FE3A
:105660000020FFF77BFDFFF7F7FD02AA03212120B1
:10567000FFF7F1FEFFF718FE06B070BD91050020A0
:1056800070B586B06B46DE1D0C001500307006222A
:10569000002103A805F0D4FC0D23220A6B441C70E2
:1056A0005A70220C240E9A70DC7012236B441D80F9
:1056B0002D0C5D80134B1B78002B01D1FFF774FD7F
:1056C0000020FFF74BFDFFF7C7FD01213A20FFF750
:1056D00075FF012230001100FFF732FEFFF710FEC8
:1056E000FFF70EFEFFF7E0FD0020FFF737FDFFF7A5
:1056F000B3FD03AA02213A20FFF7ADFEFFF7D4FD68
:1057000006B070BD91050020F7B51D001F4B0700C6
:105710001B780C001600002B01D1FFF745FD00207F
:10572000FFF71CFDFFF798FD02211120FFF746FF50
:10573000210000223800FFF703FE3000012229007B
:10574000FFF7FEFD0326063464192500354003D01B
:10575000FFF7D6FD0134F8E7FFF7A6FD2800FFF7B5
:10576000FDFCFFF779FD6B469C1D220007330121EC
:10577000112025701D70FFF70BFE002801D1FF23BB
:105780002370FFF791FD00202056FEBD91050020FB
:10579000134B13B51B78002B01D1FFF705FD00203B
:1057A000FFF7DCFCFFF758FD00212020FFF706FF84
:1057B000FFF77AFD0020FFF7D1FCFFF74DFD6B46A8
:1057C0009C1DFF2323706B46002207331A700121B2
:1057D00022002020FFF7DCFDFFF766FD207816BDD4
:1057E0009105002070B50500054C064A20000649C9
:1057F000FFF7F8FE2800210002F048FC70BDC0460B
:105800009A0500209205002096050020204B73B5D4
:105810001B780400002B01D1FFF7C6FC0020FFF726
:105820009DFCFFF719FD01213420FFF7C7FE200082
:1058300006F070F90122C1B22000FFF781FD2000BF
:1058400006F068F90326441D2500354003D0FFF714
:1058500057FD0134F8E7FFF727FD2800FFF77EFC2E
:10586000FFF7FAFC6B469E1D9D7132000733012144
:1058700034201D70FFF78CFDC4B2FFF715FD002C1E
:1058800004D03478013C60424441E4B2200076BD4B
:1058900091050020FF2130B587B00B000500009175
:1058A0000A0004A802F0D8FB174B1B78002B01D18B
:1058B000FFF77AFC0020FFF751FCFFF7CDFC002139
:1058C0003520FFF77BFEFFF7EFFC0020FFF746FCDB
:1058D000FFF7C2FC0B2300226B441A70012103AABC
:1058E0003520FFF755FD041E08D003A9280002F05B
:1058F000CDFB059B6C68E41A631E9C41FFF7D4FC4A
:10590000200007B030BDC0469105002010B50C0046
:10591000FFF77CFF03000020834202D02000FFF746
:10592000B9FF10BD2420704770B50121202000F080
:105930004BFB0021202000F093FB0A2000F04AF9E5
:105940000021202000F040FB642000F043F92020DB
:1059500000F0CCFA962305009B002F4C984222DDE4
:105960002E49200000F014FF200000F052FD03211A
:105970000B2000F0B9FB03210C2000F0B5FB002246
:105980006B21200000F08CFD0121200000F0CAFDF9
:105990001B21200000F0C6FD2000032100F06AFD5D
:1059A000200000F04BFD1D49200000F0F1FE20001A
:1059B00000F02FFD03210B2000F096FB03210C20AB
:1059C00000F092FB00226B21200000F069FD07210E
:1059D000200000F0A7FD96232B219B009D4200DDB7
:1059E0002039200000F09EFD0321200000F042FD40
:1059F000200000F023FD01211E2000F0E5FA012126
:105A00001E2000F02DFB01211F2000F0DDFA0121F6
:105A10001F2000F025FB70BD380A0020A086010081
:105A200010B5024802F033FA10BDC046A0050020B0
:105A300010B5024802F02BFA10BDC046E407002062
:105A40007FB51949194800F0FDFB1949194800F0C4
:105A5000F9FB1949194800F0F5FB1949194800F0FC
:105A6000F1FB194C1949200000F0ECFB184E1949C4
:105A7000300000F0E7FB012503233100019500937E
:105A80000D220B33144802F07BF91D230393013BD5
:105A900002931A3B0193009518331B2221000F48F3
:105AA00002F02AF97FBDC04600080042280A002003
:105AB000000C0042300A002000100042380A00208A
:105AC00000140042400A0020480A0020001800424A
:105AD000500A0020001C0042A0050020E40700201E
:105AE000FEE70000034B10B51B68002B00D0984761
:105AF00010BDC046580A002070B50F490F4CA14296
:105B000004D100F08FF802F0DDFEFEE70C4D00231B
:105B10008D42F6D0CA18E818A24205D3094B82423A
:105B2000EFD00949002204E0006804331060F1E777
:105B300004C38B42FCD3E4E70000002030020020C5
:105B40009CFA000030020020A010002010B500F0E8
:105B500066F8002801D100F057F810BD014B18601D
:105B60007047C046580A0020014B18687047C0466D
:105B70005C0A0020F7B51348012284461249134CF1
:105B80008E68636805689B0E13400192886862689E
:105B9000019F920E3A4067463F6893420ED1BD4244
:105BA0000CD186420AD35B19FA254868AD00861BE2
