:020000040000FA
:10000000FC7F0020790B0000690B00006D0B0000E5
:1000100000000000000000000000000000000000E0
:10002000000000000000000000000000710B000054
:100030000000000000000000750B0000CD0C000067
:1000400010B5064C2378002B07D1054B002B02D0AE
:10005000044800E000BF0123237010BD5C000020B5
:1000600000000000D01E000008B5084B002B03D094
:100070000748084900E000BF07480368002B03D089
:10008000064B002B00D0984708BDC046000000007A
:10009000D01E00006000002058000020000000007A
:1000A000064B0322104002040549586808401043DB
:1000B0005860DA695107FCD47047C0460008004216
:1000C000FFFFFCFF38B5284A284B5A805A7852B2B5
:1000D000002AFBDB264B04211A6A264D0A431A62CA
:1000E0002B68012213432B602A680123214C1A42FA
:1000F000FAD1E2691A42F7D11423236041001E4865
:1001000001F008FD421EE068FF231A4098431043A7
:10011000E0602368022213432360EA69154B9107CC
:10012000FBD45A8B30218A4310210A435A83EB694E
:1001300001205A07FBD4114B02241A7802431A708B
:100140000F4B0F22197891431970197821431970B8
:100150000C490C782043087019780A401A701A78F4
:1001600020210A431A7038BD14400000000C0040E2
:100170000004004000080042006CDC0248440041DA
:100180003444004149440041F7B500230F1C01925B
:100190001D1C994254D001212A4E4000084333705F
:1001A000C1B2294B0322588B1C1C000910400128A6
:1001B00004D05B8B1B091A40022AF2D1606AC00A84
:1001C000C00208436062217E1F4B0122880708D4C9
:1001D000197E1142F7D05968C02292020A435A6030
:1001E00003E05B8B9B08134201D0002528E03270AE
:1001F000237E9907FCD5154A154B117801251970F6
:100200006268BD4212D0134B022013406360FFF7B7
:1002100047FF33785A1C3270227E9007FCD50B4979
:100220000B480A780135C254EDB2E9E78023DB02BE
:10023000134363600199002902D00320FFF730FFC8
:10024000281CFEBD7800002000080042280800425B
:1002500099000020FFFFFBFF024B00221870024BA9
:100260001A7070477A00002079000020F8B5274BFB
:100270001C786400E4B2264B03215D8B1A1C2D0907
:100280000D40012D04D05B8B1B0919400229F2D1CE
:10029000536ADB0ADB0223435362117E01231942B6
:1002A000FBD01B49498B8908194204D00320FFF772
:1002B000F7FE022427E017490D782B1C002B11D0E4
:1002C000154EEC1A365D154C2670114E177E012422
:1002D000768B274202D12642F7D00BE0B6082642A1
:1002E0000ED007E00B701C1C00280CD00320FFF779
:1002F000D7FE08E003200B700324FFF7D1FE02E0D5
:10030000013BDBB2DAE7201CF8BDC0467A000020D2
:1003100000080042790000207B00002028080042ED
:10032000034A1378591C1170024AD05401207047B7
:10033000790000207B000020154A164B1178002917
:1003400009D11549187809784118C9B21970802067
:1003500012494003C86111780131C9B2117019788E
:10036000F02902D81978092909D80B4908784042A0
:10037000C0B20870187809784118C9B2197012789B
:100380001B789A4203D18022044B5203DA617047F2
:100390007D000020010000200000002000440041FA
:1003A00010B5041C6B20FFF757FF201CFFF7B8FFA8
:1003B0000120FFF75BFF01210A1C6B20FFF7E4FE21
:1003C000014B187810BDC0469900002038B5051CB7
:1003D0006B200C1CFFF740FF281CFFF7A1FF201C1F
:1003E000FFF79EFF0120FFF741FF022038BD08B54F
:1003F0000520FFF7D5FFCE23011C19400520FFF78C
:10040000E5FF012008BD000010B5041C0020FFF727
:10041000C7FF78232D4A9843C1B2944242D018D8DE
:100420002B4B9C4238D009D82A4B9C4230D02A4BC7
:100430009C422FD0294B9C4245D13FE0284B9C4207
:100440002CD0284B9C422BD0274B9C423BD12023C5
:1004500033E0264A94422BD00AD8254B9C4223D025
:10046000244B9C4222D0244B9C422CD1402324E09C
:10047000224A94421ED004D8214B9C4223D16023AF
:100480001BE0204A944217D01F4A944215D01AE02C
:10049000082312E0102310E018230EE028230CE0BC
:1004A00030230AE0382308E0482306E0502304E024
:1004B000582302E0682300E0702319430020FFF76F
:1004C00085FF012000E0002010BDC046581100004B
:1004D00018100000780F0000C80F0000280F00005F
:1004E000B810000008110000681000009812000009
:1004F000F811000048120000A81100003813000095
:10050000E812000088130000D813000010B5041C86
:100510000020FFF745FF07239843E122C1B2920074
:10052000944220D008D8962C18D0FA235B009C4225
:1005300017D0642C22D11CE0114A944215D005D862
:100540009623DB009C4219D1042311E0FA22D20049
:1005500094420CD00B4A94420AD00FE0012421436C
:1005600007E0022304E0032302E0052300E0062362
:1005700019430020FFF72AFF012000E0002010BDF2
:10058000DC050000B80B000070B504AC267805ACA3
:100590002578441EA041C401002901D040210C430C
:1005A000002A01D020221443002B01D010231C4329
:1005B000002E01D008231C43002D01D004231C432E
:1005C0000220FFF7EDFE0125011C294021430220F6
:1005D000FFF7FCFE281C70BD10B5041C0420FFF7BB
:1005E000DFFE03231840084B9C4204D0074B9C427B
:1005F00008D1B02100E0982101430420FFF7E6FE76
:10060000012000E0002010BD10100000701000005C
:1006100008B50120FFF7C4FECF23011C19400120BB
:10062000FFF7D4FE012008BD07B5FFF7E0FEFFF796
:10063000EFFF0948FFF7E8FEFA20C000FFF766FF6A
:10064000002300930193181C191C1A1CFFF79CFF30
:100650000248FFF7C1FF07BD08110000101000009D
:1006600008B50348FFF72EFDFFF7DEFF08BDC046C3
:10067000A086010010B5C3699C07FCD4036802245E
:10068000A3430360C46901231C42FBD104682343D4
:1006900003600368DC07FCD4C46901231C42FBD15E
:1006A000C469DC401C42F7D1084B1A430260C3699D
:1006B0005A07FCD4C0239B0243608181C3699C0715
:1006C000FCD4036802221343036010BD0400004001
:1006D000037EDA07FCD5018570470000027E012306
:1006E0005107FBD5428B1A4207D1428BDA401A429E
:1006F00003D1428B92081A4202D0034B01221A7096
:10070000008DC0B27047C0467E00002070B50368FF
:10071000041C988B1A1C0821FF32084226D0802026
:1007200099839872112353704021144B9171507129
:100730005E68134DC0202E40800506435E605E69F2
:100740003540284358610F4818600F4818615D68AC
:100750000E4828408025AD02284358605868800B19
:100760008003586000235171237105E0137ADA0683
:1007700002D5201C00F0E4FA207970BD9C01002015
:10078000FFFFFF8F9C0000201C010020FF3F00F0B6
:10079000002303714371044B016083600B780222D4
:1007A00013430B707047C0460D07000038B5364B39
:1007B0002021DA6901200A43DA61344B06241A78D1
:1007C00002431A70324B0F2219789143197019782D
:1007D000214319702F490C782043087019780A407A
:1007E0001A701A7860210A431A702B4B2B4A5A80D0
:1007F0005A7852B2002AFBDB294B01211A780A43AE
:100800001A709A78D107FCD426480268510B1F222F
:100810001140914200D1052111408C011D8D2249CA
:100820002940214319850468A10C0A401F2A00D1E0
:100830001D221C8D1F210A408C4322431A85026809
:100840000721D20D0A408A4200D103220A40188DA6
:100850001103164A02400A431A8519787F220A407A
:100860001A701A78042112480A431A7058621A89B9
:100870000C218A431A811A8901218A431A81002195
:10088000802201F0A0F938BD000400405844004126
:100890003C44004159440041000C00400640000027
:1008A00000500041246080003FF8FFFFFF8FFFFFF2
:1008B0009C010020F7B5141C1F4A5F0101971D1C05
:1008C000D319061C5869271C4000400F0330103311
:1008D000C74006D00F1C8022596812060A435A608E
:1008E00009E02F1C7B1E9F41144BBF01FF18381CD1
:1008F000221C01F05FF901990F4808354218176171
:10090000131C5269A104920B890C92030A435A6189
:1009100059690B4A0A405A616B01F3180222DA71D5
:100920005979802252420A435A716B01F318DB79DC
:100930009A07FAD5201CFEBD9C0100201C01002056
:10094000FF3F00F0F8B51A4E051C3378141C002B3D
:1009500012D1184B184A1A645A6C920B92035A64BB
:10096000586C164A02405A64A2235B00EA5C40209D
:100970000243EA54012333704827FF37EA5D01231D
:10098000134012D00B4B5A6C9204920CA24202D22A
:100990005C6CA404A40C081C221C074901F00AF991
:1009A0000123EB550023337000E01C1C201CF8BD14
:1009B0007F0000209C010020DC000020FF3F00F0B1
:1009C000FF3083792022002900D110221343837144
:1009D00070470000084BFF305A69920B92035A612E
:1009E00002230372827980235B4213438371037A6B
:1009F0009A07FCD57047C0469C01002080235B42CB
:100A00001943C9B28172704770B5A02303225B00FD
:100A1000C254134B134A5C6CC021144089050C432B
:100A200046255C64FF35402444550F4D30261D6437
:100A300090256D0046555D6B1540294392255963FD
:100A40006D0080214155094D1D63B0256D00445551
:100A50005C6F22405A67B2235B00C15470BDC04630
:100A60009C010020FFFFFF8FDC0000205C010020C4
:100A7000024B5B785BB2002BFADB7047000C004046
:100A8000024BDB68DA06FBD57047C0460008004021
:100A9000F8B52A4B1E22596891430222114359602E
:100AA000274B28491E1C9982998A0A439A82F36827
:100AB0000227234C3B42FAD0234D0123AB60FFF7C2
:100AC000D7FF224B6B60FFF7D3FF8223DB016B80E4
:100AD000FFF7CEFFA38C80229343A384FFF7D0FFC0
:100AE0001B4BE362FFF7CCFFA38C1A4A1343A3848A
:100AF000FFF7C6FFA38C1F43A784F3681A06FCD533
:100B00000F4BDB685A06F8D50024FFF7B9FFAC603D
:100B1000FFF7AEFF104B6B60FFF7AAFF0F4B104AB9
:100B2000C0215A600F4A0906106A0002000A0143F8
:100B3000116207229C601A60F8BDC0460040004167
:100B4000000800400C060000000C004001050100F8
:100B5000B805FF7D040A00000007030010E000E074
:100B6000E703000000ED00E00EBEFEE70DBEFEE76D
:100B700005BEFEE702BEFEE70E4A0F4838B58242C8
:100B800004D10E4A0E4B93420ED10AE00D4C944212
:100B9000F7D00023D1188842F3D9E55804330D600B
:100BA000F8E700F011F804E09342FAD2002102C302
:100BB000FAE7FEE7000000205C000020AC03002004
:100BC0005C000020D41E000038B5344D2B68013382
:100BD0001AD0334B2A1D1A60EAB2002A14D1314BC5
:100BE000197801231940304B0AD118682F4A9042D6
:100BF00001D1196008E01A602D4A013A002AFCD19F
:100C00001A602C4B01221A70FFF742FF62B6FFF701
:100C100027FD284B284C1B78002B0AD02B6883F328
:100C200008881E4BFF229343A3601D4B1B681B6863
:100C3000184700F09DFD00F04FF8204B8022520332
:100C40009A601F4B1F4A051C5A60216AC022090284
:100C5000090A12060A43226200229A6007221A60D9
:100C6000AB68281C9847184B002801D001221A7045
:100C70001A78002A05D0002000F08CFA00F004FB5E
:100C8000FCE71B78002BEBD100F0E6FD0028E7D055
:100C9000012000F07FFA00F0F7FAFCE700200000E6
:100CA0001C02002038040040FC7F002035817307BF
:100CB00048E801008000002000ED00E00044004111
:100CC00010E000E0E70300008100002008B5FFF716
:100CD00033FB00F0C3FA08BD10B5054B054C23608B
:100CE000FFF764FD201C2168FFF752FD201C10BD9A
:100CF000005000412002002070B5051CC0B0081C47
:100D0000161C0C1C00F067FF40006A4603230230EB
:100D10005370107076080123E218013A11785A00D6
:100D2000002906D1281C69460023FFF7C3FD40B007
:100D300070BDB342F6DA684681520133ECE7000039
:100D4000F7B5BA4A04681378B949271CFF37051C60
:100D5000102038720B705378B648B74E03709378F2
:100D60003380D178338809020B4333801179B34B38
:100D70001980517918880902084318809079B04980
:100D80000880D2790888120202430A8040227A71D0
:100D9000A84F3A78A64F120238780F1C0243A94890
:100DA0008446181C624500D1C2E020DC8021490045
:100DB0008A4200D16EE109DC812A00D192E0822AC8
:100DC00000D195E0802A00D064E18BE081235B00B4
:100DD0009A4200D1CFE000DA58E1C0239B009A424A
:100DE00000D157E1984B9A4200D14FE152E1902354
:100DF0001B019A4269D015DCD023DB009A4222D035
:100E000088231B019A4269D0A023DB009A4200D0BC
:100E100040E1201CFFF7DEFD3188286889B2FFF72A
:100E2000EDFD3BE1894B9A4200D12FE100DC31E13D
:100E3000874B9A4200D11DE1864B9A4200D029E1AE
:100E400033886B7122E133881B0A012B08D10B8890
:100E500012222868934201D80A8892B27E4911E191
:100E600033881B0A022B08D10B884322286893423F
:100E700001D80A8892B2794904E133881B0A032B0E
:100E800000D007E13388DBB2012B17D0002B07D04D
:100E9000022B00D0FEE00A882868D2B2704911E027
:100EA000042201A86F4900F085FE3B8804222868CF
:100EB000934201D83A8892B201A9E3E00A882868EF
:100EC0006949D2B2FFF718FFE8E03388201C2B7184
:100ED000FFF780FD201CFFF797FDDFE0291C01C90B
:100EE0000122CFE0614900230B8028680222CAE07A
:100EF0005E4900220A801888502210405C4A107017
:100F00001E880F20304018801888032800D9C1E0BF
:100F100012781B8808335B01E418A379002A01D0FA
:100F20009B0600E0DB06DB0F0B8028680222A9E0AD
:100F300019887F2291434E4AC9B2117018880F2137
:100F4000014019803188002900D0A3E019880029C8
:100F500000D19FE01988032900D99BE012781B88F3
:100F600008335B01E318002A02D020225A718DE079
:100F7000102159718AE002887F239A433C4BD2B2F8
:100F80001A7001880F220A4002803288002A00D09D
:100F900080E00288002A00D17CE00288032A00D980
:100FA00078E01B78002B1FD0038808335B01E3181F
:100FB0009B799A066AD50388202208335B01E318DF
:100FC0001A71038808335B01E318DB795F065DD58E
:100FD0000388402208335B01E318DA710388022298
:100FE00008335B01E3181EE0038808335B01E31854
:100FF0009B79D9064AD50388102208335B01E31890
:101000001A71038808335B01E318DB799A063DD532
:101010000388202208335B01E318DA710388012278
:1010200008335B01E3181A7130E0C0469C000020D1
:1010300083000020880000208A0000208C0000200F
:1010400086000020020300000103000021200000B0
:10105000A121000021220000241C00000400002027
:101060000C1C0000FC1B0000001C00008400002081
:10107000820000200B8808222868934201D80A8841
:1010800092B207490023FFF715FC07E0201CFFF789
:10109000A1FC03E0201C0121FFF792FCF7BDC04634
:1010A0004800002007B5054B0122019001A91868EE
:1010B000131CFFF7FFFB01200EBDC04620020020DD
:1010C00013B5054B6C4607341868211C0122FFF745
:1010D00039FC207816BDC0462002002010B5074C10
:1010E000201CFFF713FB031C0020834205D022685D
:1010F0004823FF33D05C0123184010BD200200209C
:1011000010B5054A0C1C031C191C10680123221C75
:10111000FFF7D0FB201C10BD2002002070B5084C4A
:10112000061C201C0D1CFFF7F1FA0023984205D085
:101130002068311C2A1CFFF705FC031C181C70BD1D
:1011400020020020F8B50C4C051C201C0E1CFFF7DB
:10115000DDFA0023271C341C98420AD0002C07D04B
:10116000291C221C3868FFF7EDFB241A2D18F5E71F
:10117000331C181CF8BDC0462002002008B5031C13
:10118000081C111C9847024B64221A8008BDC046F7
:1011900092000020012805D1054B064A1A60064B33
:1011A000187004E0002802D1044A014B1A6070470D
:1011B00090020020581C000098000020A41C000091
:1011C00030B50A1C1C4985B00978031C00292AD0B7
:1011D000042A01D1006804E0022A01D1008800E05D
:1011E0000078520004A98B180B3B9C1AA3420BD029
:1011F0000F210140092902D83025294300E0373169
:1012000019700009013BF1E701A930230B70782325
:101210004B700A208B1898700D20D870074B043241
:101220001B68D86803E005490968C868191CFFF7FE
:10123000A5FF05B030BDC0468E0000209002002002
:1012400072B6EFF30883044A1360036883F30888D7
:10125000436818477047C04694020020084B1A881C
:10126000002A03D01A88013A92B21A80054B1A88D4
:10127000002A03D01A88013A92B21A807047C046F9
:101280009200002090000020F0B591B008A9CC4A4F
:101290000B1C31CA31C351CA51C360CA60C3C94BA8
:1012A000C9489A687A255203520F92005258C7498A
:1012B00002609C68A4B262430C60C54900240A60C5
:1012C000C44A1460C44C2570C44CC54D2368281C06
:1012D0001B6940219847002802D0C24B64221A8023
:1012E000C14B00221860C14B1D60C14BC04DBE4FA9
:1012F0001A602A683B689A42E6D2BC4B1B681A788F
:10130000FF2A00D114E2232A00D0EBE1B94E337852
:10131000002B06D0B14BB8491B680222D868FFF7F2
:101320002DFFAD4B1B78532B3CD13B682A68934271
:101330001ED9AE4801322A609A1AB04B01681B6868
:1013400001310160AE4E9A4201D2326000E033605A
:10135000A04832680068049000F02CFC33682968CB
:101360005A182A60A14A1668F1181160A54A13702C
:101370002B68013B2B609D4B1A68013A1A60A14B08
:101380009E4A1B7811688B420AD222689148C91A7A
:10139000006892699047002802D0924B64221A801C
:1013A000C0468DE1522B0AD18A48944A23680068CE
:1013B00011685B69039098476422934B0DE04F2BB3
:1013C00005D1844B8D4A1B6812681A7078E1482B4E
:1013D00005D1804B894A1B6812681A8070E1572B2F
:1013E00005D17C4B854A1B6812681A6068E16F2B37
:1013F00003D1784B0121186807E0682B08D1754BA1
:101400007E481B6802211B880360FFF7D9FE57E165
:10141000772B06D16F4B79481B6804211B6803604A
:10142000F3E7472B13D1754B1868FFF709FF774B8C
:101430001B6883F3088862B6754B1B78002B00D1BC
:101440003EE1664B06201B681B68984738E1542B29
:1014500004D101233370614B1B6864E04E2B0CD127
:101460003378002B06D15D4B63491B680222D86894
:10147000FFF784FE0023337022E1562B57D12368F7
:101480006449D8680122FFF779FE23686249D86869
:101490000322FFF773FE614D2368291CD8680122DF
:1014A000FFF76CFE23685E49D8680D22FFF766FEE1
:1014B0002368291CD8680122FFF760FE4B4F4C4D72
:1014C0005849002339602B603A1C281C13685E1CA5
:1014D00016601B780593002B03D00368013303606B
:1014E000F4E73E4E2A683368D868FFF747FE336852
:1014F0004A49D8680122FFF741FE059929604A4907
:1015000039603A4A1368581C10601B78002B04D0CD
:10151000374B1A6801321A60F3E733682A68D868D3
:10152000FFF72CFE3368D86833490222C6E0334AFD
:10153000582B17D1244E264D366813682A68B100FF
:1015400093420AD21F4D5808E861384828801D4D43
:10155000287DC607FBD55B18F2E7204B34491B6892
:10156000D868AAE0592B79D112681A4B3149002A60
:1015700002D11B680B606CE0124D086819686B683B
:10158000104E8025AB4392087360002A61D02A4B2D
:101590000C4D2B800B4E337DDD07FBD500230A4D10
:1015A0002D680195AD08AB4203D3244D054E35801F
:1015B00046E09342F9D09D00465901334E51EEE783
:1015C000381C00000040004148020020400200207A
:1015D0003C0200208C0200203802002090020020F3
:1015E0004C02002090000020300200203402002035
:1015F000440200208E000020981C00009802002069
:101600009C0200202C020020920000209402002066
:1016100098000020741C00009D1C0000761C000037
:10162000C01C0000781C0000841C000002A5FFFF05
:101630008D1C00009400002044A5FFFF04A5FFFFBF
:101640003F4E357DEE07FBD59D0049194019D21A52
:101650009BE73C4B3C491B68D8682EE05A2B2FD1A6
:101660003A4B17681D680026EF19BD4206D028784E
:10167000311C00F013F90135061CF6E7314B3449F3
:101680001B680122D868FFF779FD07230F2232403B
:10169000111C36093031092A00DD07311820C01825
:1016A0006A468154013BF1D2236806A9D868082212
:1016B000FFF764FD23682749D8680322FFF75EFD22
:1016C000254B7A221A70254B00221A60244B1B7876
:1016D00093422DD01B4B23491B680122D868FFF78A
:1016E0004DFD25E0111C3039C8B21C4B092804D827
:1016F0001D682A01114319601AE0111C413905299E
:1017000003D81E68373A310106E0111C61390529FA
:1017100004D81868573A01010A4308E02C2A03D17B
:101720000A4A1968116001E00B490A7000221A6028
:101730000D4B1A6801321A600C4B1A680132D5E55C
:101740000040004190020020911C00008C0200200B
:10175000951C0000971C0000380200209802002011
:101760008E0000209B1C0000440200203402002058
:1017700010B51C4B01201A78032402431A701A4B2F
:101780000F2219789143197019782143197017495C
:101790000C782043087019780A401A701A783021A2
:1017A0000A431A70124B80211A6A0A431A62114BBB
:1017B000114A5A805A7852B2002AFBDBC4220F48E1
:1017C0000F499203FEF756FF0E4A002313700E4A8C
:1017D00013700E4A13700E4A13700E4A13700E4A9D
:1017E000137010BDD6440041BB440041D7440041B2
:1017F00000040040000C004019400000001C0042A2
:101800002AF60000A002002027030020A1020020E9
:10181000A4020020280300202503002008B5C1B23F
:101820000248FEF755FF012008BDC046001C0042DB
:10183000024B187E4007C00F7047C046001C004294
:1018400008B5FFF7F5FF0028FBD00248FEF746FF7A
:1018500008BDC046001C004208B5FFF7E9FF0023A1
:10186000984205D0FFF7ECFF031C233B5A4253413B
:10187000181C08BD70B5041C0D1C4618B44204D0D9
:101880002078FFF7CBFF0134F8E7281C70BD10B5B6
:10189000041CFFF7D5FF2070012010BD0B0A584033
:1018A000034B4000C05A0902484080B27047C0460E
:1018B000CE1C0000F7B50024051C0F1C261CBC42E2
:1018C00020D0FFF7BDFF114BC0B21B780190002B59
:1018D0001AD1311CFFF7E2FF0D4B061C1A88002AB3
:1018E00004D10C4A11782A1C002907D001996A1CDE
:1018F0002970802F02D11988013919800134A4B2CE
:10190000151CDCE7301C00E00120FEBD2503002093
:10191000A202002026030020F0B53E4E85B0002232
:1019200003900C1C32703C4B914201D1012201E02A
:101930003A490C801A707F231C4201D080349C43AA
:10194000FFF77EFF3378C0B2002B07D0002535703B
:10195000FFF776FF3378C0B2AB4236D1432803D0CD
:10196000712853D01528EBD1012300930120FFF7F4
:1019700055FF0098FFF752FF00998025C843C0B279
:10198000FFF74CFF039B00270293244A1388002B88
:101990001DD1214901930978002918D10198FFF739
:1019A0003DFF391C0198FFF779FF013D071C002D11
:1019B000EBD1000AC0B2FFF731FFF8B2FFF72EFFFC
:1019C000FFF73EFF3378002B0AD035701FE00299F5
:1019D000013B09781380029B019101330293DDE7FB
:1019E000C0B2062807D1009B03990133DBB28031D6
:1019F0000093803C0391002CB8D10420FFF70EFF28
:101A0000FFF71EFF044B01251C7000E00025281C79
:101A100005B0F0BD2503002026030020A20200200F
:101A2000F0B5384C87B0002301902370994201D162
:101A3000012301E0344A1180344A642613704320A4
:101A4000FFF7ECFE324FFFF7F3FE002803D1002F23
:101A500003D0013FF7E7002F03D1013E002EEED166
:101A60004DE00125FFF7ECFE2378002B38D1C0B202
:101A70000290012805D004283DD10620FFF7CEFEB4
:101A800039E005AE0221301CFFF714FF01988021D8
:101A9000FFF710FF23780390002B18D1FFF7D0FE3B
:101AA0000702FFF7CDFEBFB223783F18BFB2012B6C
:101AB0000DD0039B9F4207D13378AB4204D1EB4357
:101AC0007278DBB29A4204D01820FFF7A7FE0023F9
:101AD00003E00620FFF7A2FE029B2278002A02D034
:101AE000002626700BE0012B05D1019A6B1C803279
:101AF000DDB20192B6E7054A002313700126301CBF
:101B000007B0F0BD25030020A2020020260300201C
:101B100000350C00002934D00123002210B4884283
:101B20002CD301242407A14204D2814202D209010C
:101B30001B01F8E7E400A14204D2814202D249002D
:101B40005B00F8E7884201D3401A1A434C08A042D0
:101B500002D3001B5C0822438C08A04202D3001B66
:101B60009C082243CC08A04202D3001BDC0822437D
:101B7000002803D01B0901D00909E3E7101C10BCA1
:101B80007047002801D00020C04307B4024802A1DA
:101B90004018029003BDC046190000000029F0D093
:101BA00003B5FFF7B9FF0EBC4243891A1847C04678
:101BB0007047C04610B50023934203D0CC5CC45498
:101BC0000133F9E710BD031C8218934202D019704B
:101BD0000133FAE770470023C25C0133002AFBD1CE
:101BE000581E7047F8B5C046F8BC08BC9E46704702
:101BF000F8B5C046F8BC08BC9E467047040309040B
:101C000041726475696E6F204C4C4300417264757B
:101C1000696E6F204D4B5220576946692031303133
:101C20003000000012010002020000404123540075
:101C30000002010200010000080000001000000086
:101C400020000000400000008000000000010000B3
:101C500000020000000400001D18000041180000F0
:101C600031180000751800008F18000019190000C5
:101C7000211A00007600200041707220313120329C
:101C80003031390031333A30393A353600580A0D9F
:101C900000590A0D005A00230A0D003E00322E3072
:101CA00000000000A5100000C1100000DD100000C1
:101CB000011100001D11000001110000451100007C
:101CC0005B41726475696E6F3A58595A5D00000045
:101CD0002110422063308440A550C660E77008811F
:101CE00029914AA16BB18CC1ADD1CEE1EFF1311296
:101CF000100273325222B5529442F772D66239936F
:101D000018837BB35AA3BDD39CC3FFF3DEE36224E5
:101D1000433420040114E664C774A44485546AA5BE
:101D20004BB528850995EEE5CFF5ACC58DD5533675
:101D3000722611163006D776F6669556B4465BB70E
:101D40007AA719973887DFF7FEE79DD7BCC7C44845
:101D5000E5588668A7784008611802282338CCC95E
:101D6000EDD98EE9AFF9488969990AA92BB9F55AD5
:101D7000D44AB77A966A711A500A333A122AFDDBAE
:101D8000DCCBBFFB9EEB799B588B3BBB1AABA66CA5
:101D9000877CE44CC55C222C033C600C411CAEEDFE
:101DA0008FFDECCDCDDD2AAD0BBD688D499D977EB5
:101DB000B66ED55EF44E133E322E511E700E9FFF4E
:101DC000BEEFDDDFFCCF1BBF3AAF599F788F889104
:101DD000A981CAB1EBA10CD12DC14EF16FE18010E8
:101DE000A100C230E3200450254046706760B983EB
:101DF0009893FBA3DAB33DC31CD37FE35EF3B10238
:101E00009012F322D2323542145277625672EAB5FA
:101E1000CBA5A89589856EF54FE52CD50DC5E23487
:101E2000C324A01481046674476424540544DBA7CA
:101E3000FAB79987B8975FE77EF71DC73CD7D326D7
:101E4000F2369106B01657667676154634564CD95A
:101E50006DC90EF92FE9C899E9898AB9ABA9445827
:101E6000654806782768C018E1088238A3287DCB2A
:101E70005CDB3FEB1EFBF98BD89BBBAB9ABB754A77
:101E8000545A376A167AF10AD01AB32A923A2EFDBA
:101E90000FED6CDD4DCDAABD8BADE89DC98D267CC7
:101EA000076C645C454CA23C832CE01CC10C1FEF0A
:101EB0003EFF5DCF7CDF9BAFBABFD98FF89F176E17
:101EC000367E554E745E932EB23ED10EF01E00004B
:101ED000000000000114000009024300020100801C
:101EE0003209040000010202000005240010010470
:101EF00024020005240600010524010001070583D2
:101F0000030800FF09040100020A00000007058120
:101F100002400000070502024000000000C201006C
:101F200000000800690000004100000000000000FF
:10200000008000202D5800001558000015580000D1
:1020100000000000000000000000000000000000C0
:102020000000000000000000000000001558000043
:10203000000000000000000015580000815800005A
:1020400015580000155800001558000015580000DC
:1020500015580000155800001558000019580000C8
:10206000155800001558000015580000752900008B
:10207000155800006557000055570000155800001E
:10208000155800001558000015580000155800009C
:1020900000000000155800001558000015580000F9
:1020A000155800001558000015580000155800007C
:1020B0000000000010B5064C2378002B07D1054B1B
:1020C000002B02D0044800E000BF0123237010BDA4
:1020D000300200200000000020DF0000044B10B59B
:1020E000002B03D00349044800E000BF10BDC046E8
:1020F000000000003402002020DF0000034B10B578
:1021000018680368DB68984710BDC0464C02002081
:1021100013B596210D4C8901200004F0C3FB20006B
:1021200004F0C2FB0028FAD0142006F069F904007C
:1021300000F060F8064B074A1C60074B0749009304
:102140002000074B00F03CF813BDC046600A002099
:102150004C02002074D0000085D000007ED000002A
:102160004CD0000010B505494068012406F044FB3E
:10217000002800D1041CE0B210BDC04600007F431F
:10218000074B70B50569083304000360002D05D0C6
:10219000280000F0DFF8280006F03AF9200070BDB2
:1021A000C4D0000010B50400FFF7EAFF200006F0DD
:1021B0002FF9200010BD10B5006900F03FF910BDE7
:1021C000F0B51F00036985B0040003911600002BD1
:1021D0000BD1102006F014F905000A9B3200009381
:1021E00003993B0000F0B0F82561206900F0C6F8C3
:1021F00005B0F0BD0F4B70B5083303600023050038
:102200000D4C0361200000F0EBF92000532100F099
:10221000ABF92D21200000F0C4FA0821200000F0C5
:10222000C0FA200000F0ACF90A2003F06DFB280092
:1022300070BDC046C4D000005002002073B53D4DB3
:1022400004005321280000F08FF93221280000F00B
:10225000A8FA0021280000F0CAFA0123062253211F
:10226000280000F056FA280000F0F4FA06002800D2
:1022700000F0F0FA0002304306F0F4FDEE2189058B
:1022800006F0BEFC6060280000F0E4FA06002800BA
:1022900000F0E0FA0002304306F0E4FDEE2189058B
:1022A00006F0AEFCA060280000F0D4FA060028007A
:1022B00000F0D0FA0002304306F0D4FDEE2189058B
:1022C00006F09EFC1C4DE0601C49280005F040FE15
:1022D000606808F0AFFB022602000B0000962800A1
:1022E00005F05AFF1649280005F032FEA06808F0F4
:1022F000A1FB009602000B00280005F04DFF1149DC
:10230000280005F025FEE06808F094FB0096020026
:102310000B00280005F046FF236820001B69984742
:10232000002806D0236820005B699847002008F049
:1023300011FC73BD50020020600A0020AED00000E6
:10234000B3D00000BBD000008360009B01604260FE
:10235000C360704770B504000025006806F058F8A7
:102360002560606806F054F86560A06806F050F8D3
:10237000A560E06806F04CF8200070BDF0B5294D6E
:102380008FB004002849280005F006FEFA208000DE
:1023900003F0BAFA254E62682168300002F049F86D
:1023A00007009620400003F0AFFA032FF2D1204936
:1023B000280005F0F1FD0BAF1E49280005F0C8FD0F
:1023C0003100380002F01CF83900280005F0EEFD5D
:1023D000A16802A805F043FFE16805A805F03FFFEA
:1023E000216808A805F03BFF6168380005F037FF59
:1023F000114C08AB05AA02A92000009700F046FB8B
:10240000380005F0DDFE08A805F0DAFE05A805F0A5
:10241000D7FE02A805F0D4FE0121200000F04FFBFA
:102420000FB0F0BD600A0020E4D0000010050020CD
:1024300001D100001ED100008C04002030B5D5B0C1
:1024400018A801F043FD06A801F01AFD3B4903A8B6
:1024500005F005FF06AB03AA18A9394801F002FDF3
:10246000050003A805F0ACFE364C002D38D03649E7
:10247000200005F091FD18A903A801F03BFC03A979
:10248000200005F07FFD03A805F09AFE2F4903A860
:1024900005F0E5FE18A9684601F02CFC6B4603AA7E
:1024A00018A9274801F0ECFB0500684605F088FEF6
:1024B00003A805F085FE234C002D28D024492000D8
:1024C00005F06AFD06A801F037FD18A801F0E2FB4F
:1024D00006A801F035FD18A801F04FFD55B030BD3C
:1024E0001C4903A805F0BBFE18A9684601F016FCBC
:1024F000694603A805F03CFF0100200005F042FDFD
:10250000684605F05DFE03A805F05AFEBEE71149D6
:1025100003A805F0A4FE18A9684601F0FFFB694670
:1025200003A805F025FF0100200005F02BFD6846FB
:1025300005F046FE03A805F043FEC3E724D10000E2
:102540008C040020600A002039D1000051D1000025
:1025500068D1000049D100000020704710B5036821
:102560009C6B0123A04710BD8C2300229B00C1540B
:10257000103BC3185A609A60DA6001238375704774
:1025800010B5036801211B6B984710BDF8B5050015
:102590000E0017000024BC4208D02B68315D1B6878
:1025A00028009847002801D00134F4E72000F8BD46
:1025B000FC30406A704770478E239B00C1507047C3
:1025C0008D239B00C15070470300FC335A6A002AD8
:1025D00003D01B6AC018007E704701204042FBE711
:1025E00070B5060018250C49006903F06BFF3069CF
:1025F00003F0A9FD2B000821307D084C4343E3186C
:10260000595603F00BFC0821707D4543641961564F
:1026100003F004FC70BDC046A08601004CD700004A
:1026200070B504000D00006903F0A2FD29002069C7
:1026300003F048FF206903F086FD70BD10B5006906
:1026400003F096FD10BD0000F7B50193FA23802634
:10265000002504009B008360134B760008330F00B5
:1026600045602900009203603200183008F0F2FA49
:1026700023002000FC332530DD6132001D6229007B
:102680005D62FF3008F0E6FA88239B00E3185D6086
:102690009D60DD606B461B78276123756B461B7957
:1026A000A57520006375FEBD74D1000070B50600ED
:1026B0001825006903F0E1FE306903F044FD2B00AA
:1026C0000821307D064C4343E318595603F0A6FB1E
:1026D0000821707D45436419615603F09FFB70BD6E
:1026E0004CD7000010B50022FFF7E0FF10BD03003B
:1026F000802210B5FC33DC685200944208D05A683E
:1027000081545A680132D2B25A60DA680132DA6012
:1027100010BDF7B50400171E019302D10025280053
:10272000FEBD03000022FC33DA611A625A620069BE
:10273000013203F04FFD061EF0D02300206918334C
:10274000009303F0DAFD01000098FFF7D0FF0125A8
:102750002069BD4214D003F0AEFD00280FD02069DF
:1027600003F018FD0221206903F01EFD206903F02B
:10277000C4FD01000098FFF7BAFF0135E8E7060045
:10278000206903F0FFFC019B002B06D0002E06D031
:102790000321206903F008FDC1E7002EBFD1013DF0
:1027A000BDE7002310B5827D9A420CD088229200AA
:1027B0008218D46880225200944204D02530FF3021
:1027C000FFF795FF0123180010BD0300FC33DA6802
:1027D000002A09D09A68805C9A680132D2B29A6065
:1027E000DA68013ADA60704701204042FBE70022D4
:1027F0008C2370B59B00827504000E00C15C0069DB
:1028000003F0E8FC002806D10321206903F0CCFC8A
:102810000225280070BD88239B00E318DD68002D89
:1028200011D020002530FF302569FFF7CEFFC1B25F
:10283000280003F011FD0028EDD10321206903F0E9
:10284000B3FC0325E5E7002EE3D00321206903F064
:10285000ABFCDEE710B51830FFF7B7FF10BD70B561
:102860000400006903F01EFD002815D0206903F064
:1028700030FD002811D0206903F08CFC0321206971
:1028800003F092FC8E239B00E558002D35D10023E8
:10289000FC34E3612362636270BD206903F023FDB1
:1028A000002809D0206903F019FD002804D0206910
:1028B00003F01EFD0028DED0206903F014FD00287F
:1028C00021D1206903F000FD0028E5D0206903F044
:1028D0000FFD002833D088239B00E318DB68FF211D
:1028E000002B05D020002530FF30FFF76EFFC1B26E
:1028F000206903F0C9FCA075CEE7236820001B699E
:102900009847A847C3E7206903F044FC20690321E6
:1029100003F04AFC206903F0EBFC0028BCD08823BC
:1029200000229B00E3185A609A60DA600123A375C5
:102930008D239B00E3589342AED09847ACE7230029
:10294000FC335A6A802320695B009A4206D103F067
:1029500019FC0321206903F027FC9DE703F0CDFC5F
:10296000010020001830FFF7C2FE206903F012FCBE
:10297000EFE7000010B50248FFF771FF10BDC04639
:102980005002002010B50C230B2202490248FFF729
:102990005BFE10BD380A00205002002010B5040074
:1029A000243005F00DFC2000183005F009FC200053
:1029B0000C3005F005FC200005F002FC200010BDE5
:1029C00070B5050005F020FD04002A00002108F084
:1029D00041F9200070BD10B5002801D005F01CFDA4
:1029E00010BD10B5002801D005F016FD10BD10B5C2
:1029F0008268002105F0C9FC10BD10B50400006814
:102A0000FFF7E9FF200010BD70B50C00050000685D
:102A1000FFF7E1FF601CFFF7D3FF286070BD0000E7
:102A200070B50D0004004021FFF7EEFF2A000249B7
:102A3000206808F039FE70BD3BD60000002310B5B9
:102A400004000360FFF7ECFF200010BD70B5040028
:102A50000C4D290005F003FC200029000C3005F086
:102A6000FEFB20002900183005F0F9FB20002900AA
:102A7000243005F0F4FB00236363034B200023871D
:102A800070BDC046A6DB00001027000070B5040032
:102A90001D00160005F002FC200031000C3005F08E
:102AA000FDFB20002900183005F0F8FB20000499F8
:102AB000243005F0F3FBBC23FF33238670BD323096
:102AC0000170704710B506480C0001F0A2FC01230C
:102AD000032803D0053BB83423600023180010BD41
:102AE00010050020030070B532331B780400002B62
:102AF00010D0094D280001F08CFC03280AD0236A6D
:102B0000002B07D0E36A002B04D0626AA169280079
:102B100001F08FFC70BDC04610050020030070B5A9
:102B200032331B780400154D002B1ED0280001F015
:102B300070FC032819D0636B002B05D12000FFF730
:102B4000D1FF02F0ABFE6063280001F062FC0328B5
:102B500009D002F0A3FE636B228FC31A00209342B8
:102B600000D9606370BD00236363280001F051FC4D
:102B7000033843425841C0B2F4E7C0461005002074
:102B800010B50C00FFF7CAFF002803D10423B834A6
:102B90005B42236010BD000010B50C00080008F077
:102BA000BBFD21002218094891420ED00C78031277
:102BB00063401C0963409CB2000258402303584004
:102BC0006401604080B20131EEE710BDFFFF0000FC
:102BD00070B54C1C200005F017FC050022000021F8
:102BE00008F038F8280070BD70B5040008000D002A
:102BF00008F092FD411C2000FFF7EAFF04002900C5
:102C000008F072FD200070BDF0B587B00391C821B7
:102C10001500029349000CAB1E782F00FFF7D8FF78
:102C2000731FDBB2040001934937042E00D080E00B
:102C3000744908F059FD01233B700D9B1B78002B54
:102C400005D02F2B03D07049200008F04DFD0D99C1
:102C5000200008F049FD019B012B03D86A492000A0
:102C600008F042FD6949200008F03EFD0E99200061
:102C700008F03AFD664F032E74D1AB68002B3ED0AE
:102C80006449200008F030FD2968200008F02CFD80
:102C90006B69002B07D06049200008F025FDE9682A
:102CA000200008F021FD2B6A002B07D05B49200093
:102CB00008F01AFDA969200008F016FDEB6A002B48
:102CC00007D05749200008F00FFD696A200008F07E
:102CD0000BFDAB6B002B07D05249200008F004FD20
:102CE000296B200008F000FD6B6C002B07D04E49CB
:102CF000200008F0F9FCE96B200008F0F5FC390031
:102D0000200008F0F1FC4949200008F0EDFC029990
:102D1000200008F0E9FC4649200008F0E5FC4549A0
:102D2000200008F0E1FC4449200008F0DDFC4349A4
:102D30003BE04349012E0CD94249022E09D04249B9
:102D4000032E06D0019B4149012B02D9072E03D146
:102D50003F49200008F0C8FC3E49200008F0C4FCB0
:102D6000002369E7012E01D0062E03D13A49200045
:102D700008F0BAFC3900200008F0B6FC2B4920000E
:102D800008F0B2FC0299200008F0AEFC28492000AF
:102D900008F0AAFC2749200008F0A6FC042EC2D1A6
:102DA0002E49200008F0A0FC2D49200008F09CFCD2
:102DB0002C49200008F098FC022E02D9019B012B1F
:102DC0000ED82949200008F08FFC0F9905A8FFF7BD
:102DD00035FE0599200008F087FC05A8FFF70DFED9
:102DE000134D2000290008F07FFC2900200008F086
:102DF0007BFC2100039805F06BFA200005F00CFB2A
:102E000007B0F0BD5DD20000C4D10000C6D1000003
:102E10008AD20000E1D50000EBD50000FAD5000011
:102E200008D6000012D600001AD6000096D2000084
:102E30005AD200009DD20000E4D20000FDD2000072
:102E400062D2000066D200006BD200006FD2000098
:102E500075D20000E0D100007CD20000B4D20000A6
:102E6000C8D200001FD3000010D200000A000023C7
:102E700010B54B328831137053709370D3700800C3
:102E8000FFF7B5FD10BD0000F0B5050008000C000F
:102E90008FB0059314AB1B78A03009931700FFF790
:102EA000A6FD230052331B780693002B07D0200089
:102EB000C43001F0DDF8002528000FB0F0BD21007E
:102EC0002800FFF7FFFD002800D1C4E03B78002B6D
:102ED00005D0AB68002B02D06B69002B04D1C8254C
:102EE000B8346D002560E7E726002100280064362D
:102EF000FFF7BCFF3000FFF77AFD2300493307934B
:102F0000059B042B00D08CE0E16F380008F0FAFB41
:102F1000002803D0230001224D331A70079B1B7831
:102F2000002B04D023004D331B78002B09D0260042
:102F3000C436300001F08DF8002802D0300001F0D6
:102F400097F826007C363000FFF751FD3B78002BC8
:102F500005D02F2B03D04549300005F0B9F93900D1
:102F6000300005F0F3F921002800FFF709FE089072
:102F7000002870D02300C433079318002A8E2968D4
:102F800001F04AF8059B033B012B05D9159808F081
:102F9000C3FB059B072B61D1159808F0BDFB86B2DA
:102FA00033490BA805F05BF90396EB680197029390
:102FB000059B220000932B680BA92800FFF724FE35
:102FC000069B002B0BD02B492800FFF70DFE0600B7
:102FD00001000BA805F0BAF93000FFF702FD1599C2
:102FE0000BA805F0B3F9069B002B0BD02149280054
:102FF000FFF7FAFD050001000BA805F0A7F928006E
:10300000FFF7EFFC0B99079801F067F8059B0500A7
:10301000062B02D14A34053B23700BA805F0D0F8EB
:103020004AE7079B1B78002B03D02000C43001F037
:103030001FF83B78002B05D02F2B03D00B49300015
:1030400005F046F93900300005F080F92300002230
:1030500048331A7087E704256D422DE7099B082B3A
:103060009AD1089B023086B2069399E73FD60000BA
:10307000A6DB0000D2D100000B00F0B5060008006E
:1030800052331D7885B00C001700C430002D04D0D9
:1030900000F0EEFF280005B0F0BD00F0DAFF0028D8
:1030A0000BD0230049331B780393002B05D0E16F2D
:1030B000380008F027FB002820D03B78002B18D0E0
:1030C000B368002B15D07369002B12D002F0E6FB19
:1030D0002300C03318600A4B3A00019308232100F3
:1030E00000933000043BFFF7CFFE45424541EDB26F
:1030F000D0E7C823B8345B002360CBE7039DC9E762
:10310000A6DB0000C82310B55B00994200D18EE019
:1031100042DCCB1C00D184E0CB1C1DDC0B000B334C
:1031200000D1A8E00B000B330CDC0B000D3300D1F9
:103130009DE00B000D3300DD9FE00E3100D198E0E3
:1031400000206BE08B1D00D16FE00B1D00D16AE009
:103150000A31F5D14A495FE0CC2900D169E007DCAA
:103160004B1C58D04B1C5ADBCB29E9D1454953E0C5
:103170003223FF3399425ED005DC2E23FF33994280
:10318000DED1414948E03423FF33994255D0013321
:103190009942D5D13D493FE09C23FF33994258D015
:1031A00019DC9623FF3399424DD00ADC9423FF3378
:1031B000994244D045DC9223FF339942C0D134492F
:1031C0002AE09823FF33994241D03EDB01339942F4
:1031D000B6D1304920E0FB235B0099423FD00CDCA4
:1031E000B023FF33994236D04533994235D0AE23D0
:1031F000FF339942A4D128490EE0FC235B00994299
:1032000031D02EDBFA23FF3399422ED0234B994243
:1032100096D1234900E02349FFF7E6FC10BD22497F
:10322000FAE72249F8E72249F6E72249F4E722497A
:10323000F2E72249F0E72249EEE72249ECE722498A
:10324000EAE72249E8E72249E6E72249E4E722499A
:10325000E2E72249E0E72249DEE72249DCE72249AA
:10326000DAE72249D8E72249D6E72249D4E72249BA
:10327000D2E72249D0E72249CEE72249CCE7C0462F
:103280005ED50000B0D30000D8D3000007D4000002
:103290001AD4000079D4000099D40000FF01000086
:1032A00029D5000053D3000066D3000077D3000077
:1032B00085D3000095D30000A4D30000CDD3000037
:1032C000EAD30000F4D3000027D4000031D400007A
:1032D0003BD400004CD400005BD4000089D4000033
:1032E000ABD40000CAD40000E0D40000ECD400004D
:1032F00000D5000010D500006BD500007ED5000081
:10330000ACD5000049D50000F8B50D0016001C0032
:1033100000291DD0002A1BD0080008F0FDF9070085
:10332000300008F0F9F9002F12D0002810D0002347
:10333000295D00290CD0F25C002A09D0BC4207DAD2
:1033400001349142F3D101339842F1D1201AF8BDF2
:1033500001204042FBE7F8B50E0011001F000500F8
:10336000FFF742FC3B000200310004002800FFF799
:10337000CBFF05002000FFF734FB2800F8BDF7B5B0
:1033800017000C000190926800213800009304F0AF
:10339000FCFF0023009A21000198FFF7DCFF0500E5
:1033A000431C23D0200008F0B7F90600009808F06D
:1033B000B3F9761B311A0198FFF70AFC061E15D0E7
:1033C000009808F0A9F90090200008F0A5F9009BEA
:1033D000421BED18D21A6119300008F0A4F931002F
:1033E000380004F075FF3000FFF7FBFAF7BD00006E
:1033F000F7B5167807000C001500002E20D0092321
:103400007B2E0FD00A235B2E0CD02549100008F02C
:1034100079F9002805D02349280008F073F900281D
:1034200005D107236365636D5C342370F7BD082302
:10343000222EF7D01C49280008F064F9002801D199
:103440000123EFE70023194A29003800FFF783FF23
:10345000431C07D0280008F05FF906230728E1D9AC
:103460000223DFE72B782D2B0DD10A22681C01A93E
:1034700008F0AEFA2B782D2B0BD1002907D10028AC
:1034800005DB0323CEE70A2201A92800F0E7042385
:10349000C8E7002901D10028F3DA0523C2E7C046B6
:1034A000A6D50000A1D500004BD20000D4D1000069
:1034B000F0B50F0095B00600C1483C0000F0A9FF30
:1034C000B834032805D004235B4223600023039310
:1034D00040E03B00703318000693FFF788FA3A008B
:1034E0000023BC3223601360713A13703B008833B1
:1034F00018000893FFF77BFA02F0D0F93B00029026
:1035000049331B780393002B27D13B00C4331800A9
:1035100004933D0000F09DFDDC35002810D0049898
:1035200000F09EFD049000280AD102F0B7F9029B3A
:10353000C01A2B88984203D2049802F0E5F9E4E718
:1035400002F0ACF9029BC21A2B889A4205D30A23D7
:103550005B422360039815B0F0BD02F09FF93B0079
:10356000C43309901800079300F073FD0290039094
:10357000002802D149373B78A9E7079800F070FD91
:103580000028F7D000258F4C0BA8210004F067FE1F
:1035900021000EA804F063FE210011A804F05FFED4
:1035A00005950495079800F05BFD002800D165E1C2
:1035B000079800F059FD041E0CDB0D2808D00A28DE
:1035C00006D0814B9D4203D8C1B20BA804F0C7FEC0
:1035D0000135ADB280230D9A5B019A4207D93B00B9
:1035E00001214B3319700BA8002104F0CEFE0A2CE8
:1035F00000D031E102F052F90D9B0990002B00D16F
:1036000026E1724B0EAA0B993000FFF7B8FE109B13
:10361000002B00D09BE00B996D4B0EAA3000FFF7FA
:10362000AEFE1099002909D002390EA8022204F03A
:10363000ACFE38000EA9A03004F030FE654B0EAA97
:103640000B993000FFF79BFE109B002B0DD00EA9AD
:1036500011A804F023FE3B00C822B8331A600BA85F
:10366000FFF7C5F9029B059304935B4B0EAA0B99D8
:103670003000FFF784FE109B002B00D1E8E03B00F8
:10368000C822B8331A600BA8FFF7B1F90EA90BA82E
:1036900004F004FE029B079304933B00B8331A68BE
:1036A000C82A00D0A9E1049B002B00D16BE13B00AC
:1036B000002548331D703C00049302F0EFF8079B8F
:1036C000C0342060AB4200D122E1059BAB4200D167
:1036D0001EE12B00414A11993000FFF73CFE431CCC
:1036E00000D0CDE02B003E4A11993000FFF733FEA9
:1036F000431C00D0C4E03B49119808F003F8A842ED
:1037000004D1049B187002F0C9F82060119C36495E
:10371000200007F0F7FF002806D03449200007F00A
:10372000F1FF002800D0F3E00023049A137002F0A8
:10373000B5F83B00C0331860380011A9AC3004F074
:10374000ADFD3B0001224C331A709A70E0E00E98F8
:1037500007F0ECF93B00B83318603423FF3398428C
:1037600048D1234B0EAA0B993000FFF708FE109B9F
:10377000002B3FD03C0094340EA9200004F08EFDB5
:103780003B00104A5E331B7801923A005F32127898
:103790003900009222683000FFF776FB002804D140
:1037A00039003000FFF784FE039011A804F008FDF3
:1037B0000EA804F005FD0BA804F002FDCAE6C04601
:1037C00010050020A6DB0000FF0F0000D6D100008E
:1037D00024D6000021D2000029D2000030D20000FF
:1037E00034D2000005D200008DD500009AD500002B
:1037F000D6D500003B00B8331B68CC2B00D1D1E6F6
:103800000023A04A0B993000FFF7A5FD431C1FD0F1
:103810009D4B0EAA0B993000FFF7B1FD109B002BBA
:1038200007D09A490E9807F06DFF002801D1029B3E
:103830000493974B0EAA0B993000FFF7A0FD109B45
:10384000002B05D00E9807F071F93B00BC331860CF
:103850000BA8FFF7CCF8002502F020F8099BC01A4E
:103860003B00DC331B88984200D89BE60A223B00D1
:103870005242B8331A60002307930EE707900CE713
:10388000380011A9AC3004F009FD0023814A0B99DE
:103890003000FFF760FD0400431C4BD1059C0B99E1
:1038A0007D4B0EAA3000FFF76AFD109900292BD03E
:1038B000012201390EA804F068FD0EA9069804F053
:1038C000EDFC0EA8FFF793F83A6F39003000FFF7D0
:1038D0008FFD396F3000FFF75FF93B0060331A88C6
:1038E0001880002C09D000230593904205D03B009E
:1038F00001224D331B785A4005926A463B00127DE7
:103900004C331A7001229A703B0000224D331A701A
:1039100039007A6D5131012A00D08DE00A703B00E8
:10392000B8331B68C82B00D13FE75A425341DBB282
:1039300003933AE70300594A08330B993000049384
:10394000FFF709FD431CA9D0041B083C21003000EF
:10395000FFF73EF90B9A05009446049B220063444E
:10396000190007F0E0FE796E280007F0CBFE444214
:10397000444138002900643004F0AAFC2800E4B275
:10398000FFF72FF88BE70BA9069804F087FC0B9A3A
:1039900039003000FFF72CFD3B005E331B78022B13
:1039A000B6D1049B3E4A0B993000FFF7D4FC0400CB
:1039B000431CADD0050009352B00384A0B99300067
:1039C000FFF7C9FC431CA3D0041B093C21003000B5
:1039D000FFF7FEF806000B9B2200591907F0A3FE23
:1039E0003100089804F074FC3000FEF7FAFF049BE5
:1039F00006987B65FEF7FBFF8AE739004A310978B4
:103A0000002913D0CC2A83D13800043A1A606430DC
:103A1000FEF7EDFF0698FEF7EAFF0898FEF7E7FFCE
:103A20003A0000234E327B65137071E701223B00A0
:103A30005242BC331A606BE70023029C0B70062ACB
:103A400004D00120911E88425B41DCB2B96D042391
:103A500008009843030038005030022B0ED0002994
:103A600009D0CB1E5D426B41DBB28A4203D0002CF1
:103A700006D0002B04D00023037050E7029BF4E72C
:103A80000123F9E7E2D10000E4D10000F3D1000006
:103A900010D200003AD2000043D20000D2D1000080
:103AA00050D200000B00F0B552331D7887B072334E
:103AB00006000C000093002D05D0180000F0D8FA85
:103AC000280007B0F0BDFFF70DF821003000FFF728
:103AD000CDF9210003A87C3104F0F0FB230027007E
:103AE000483301931B78C037002B1BD001F0D6FE62
:103AF000019B38601D70009800F0ABFA002804D1DB
:103B0000039A21003000FFF7B7FA21003000FFF7D9
:103B1000CFFC051E02D1009800F0AAFA03A804F019
:103B20004FFBCDE73B68002BE5D001F0B7FE3B68CB
:103B3000C01A054B9842DED90123019A00981370F0
:103B400000F096FAD7E7C046409C0000F0B587B079
:103B50001D000CAB1B78049203930B00002206009F
:103B6000080052331A70A0300C00FEF740FF049B8F
:103B70001B78002B05D0B368002B02D07369002B93
:103B800005D1C823B8345B00236000202BE002235A
:103B90002A009A4302D06B1F012B06D80D9B1B787D
:103BA000002B02D1039B082BEBD13000FEF79AFFCC
:103BB000324800F02EFC032803D00423B8345B42C3
:103BC000E2E7230027005E3305931B78C437042DFA
:103BD0000BD1042B0BD1380000F03BFA00280AD09F
:103BE000042D08D1012007B0F0BD042BF3D138001B
:103BF00000F03EFAEFE720009430FEF7F8FE059B58
:103C00006A461D702300127B5F331A700D9B049A65
:103C10000193039B2100009330002B00FFF734F940
:103C20000590002806D0059BB8342360380000F0CA
:103C30001FFAAAE7380000F00CFA0028F3D0039B23
:103C4000A365042D0BD101F029FE2300C0331860B9
:103C500021003000FFF726FF0028E7D0C2E7200050
:103C60000499643004F034FB21003000FFF720FC9D
:103C7000A36F4E345A1E93412370EDE710050020C8
:103C800007B51B680193092300931268073BFFF7F0
:103C90005DFF0EBD10B504006430FEF7A8FE2000E5
:103CA0007030FEF7A4FE230049331B78002B03D1AC
:103CB00020007C30FEF79BFE20008830FEF797FE48
:103CC00020009430FEF793FE2000A030FEF78FFE18
:103CD0002000AC30FEF78BFE10BD10B50400C430E0
:103CE00000F0C6F92300012252331A702000FFF7BA
:103CF000D1FF10BD8B6F10B50400002B07D04B6DAA
:103D0000092B04D1703104F0D9FA200010BD02490A
:103D1000200004F0A4FAF8E7A6DB00000B00B8339B
:103D20001A6870B505000C00C82A07D10A004B328A
:103D30001278002A20D00C2252421A6019681548C5
:103D4000FFF7E0F906000100280004F088FA002ED1
:103D500002D0300004F060FB2300A8331B68002B66
:103D600008D00D49280004F0F1FA21002800A03104
:103D700004F0DAFA280070BD0A0050321278002AE6
:103D800001D00D22D8E70A0051321278002AD5D08E
:103D90000E22D1E78C0400204ED1000070B5040043
:103DA000FEF725FE2500200018350C30FEF71FFE1B
:103DB0002800FEF71CFE2800FEF719FE2000243024
:103DC000FEF715FE20003030FEF711FE20003C30DB
:103DD000FEF70DFE70BD000073B5050008000C0075
:103DE0001600FFF7DBFF084B32680193092321001F
:103DF00000932800063BFFF7A9FE636D093B012BEA
:103E000000D9002076BDC046A6DB000070B51500C5
:103E100008000C00FFF7C2FFAB68002B21D029007F
:103E2000200004F03BFA290020000C310C3004F093
:103E300035FA290020001831183004F02FFA290033
:103E400020002431243004F029FA290020003031E8
:103E5000303004F023FA290020003C313C3004F0DB
:103E60001DFA70BD70B50D00160004001A00FFF7B2
:103E7000CDFF320029002000FFF7AEFF70BD00002B
:103E800070B50400104D290004F0E9F92000290064
:103E90000C3004F0E4F920002900183004F0DFF9B8
:103EA00020002900243004F0DAF920002900303005
:103EB00004F0D5F9200029003C3004F0D0F92000AE
:103EC000FFF76CFF200070BDA6DB000070B504009A
:103ED000FFF7D6FF220000232000164D5E3213802C
:103EE00053802900643004F0BAF9200029007030B2
:103EF00004F0B5F9200029007C3004F0B0F920006E
:103F00002900883004F0ABF920002900943004F037
:103F1000A6F920002900A03004F0A1F92000290012
:103F2000AC3004F09CF92000C43000F061F82000AF
:103F300070BDC046A6DB000010B5FFF72FFF10BD17
:103F400010B50400FFF72AFF20003C3004F038F9D8
:103F50002000303004F034F92000243004F030F92F
:103F60002000183004F02CF920000C3004F028F95F
:103F7000200004F025F9200010BD10B50400FFF763
:103F8000ACFE2000C43000F054F82000AC3004F047
:103F900017F92000A03004F013F92000943004F049
:103FA0000FF92000883004F00BF920007C3004F079
:103FB00007F92000703004F003F92000643004F0A9
:103FC000FFF82000FFF7BCFF200010BD10B5054C26
:103FD0002000FEF73BFD044A0449200004F020FACB
:103FE00010BDC0468C040020000000209D29000068
:103FF00010B5040000F0C0FC2000054B05492383E8
:104000001C3004F02CF900232000238510BDC0468D
:1040100088130000A6DB000070B5040015001C30FA
:1040200004F056F925852000218B04F0C7F8012003
:1040300070BD70B5040025001C3500F04BFC280055
:10404000626A002104F0A1F9280004F0B9F8200008
:1040500070BD10B500F05CFC431E9841C0B210BDAD
:1040600010B500F0B3FB10BD10B500F0BBFB10BDE8
:1040700010B5040000F04CFC00280BD0200000F02C
:10408000A5FB002803D0200000F0ACFBF6E72000E1
:1040900000F020FC2000626A1C30002104F075F959
:1040A00010BD70B50400FFF7D4FF051E08D0200036
:1040B00000F08CFB00280EDD200000F093FBF6E7FB
:1040C000228DE169200000F053FC002803D020007D
:1040D000FFF7BFFF0500280070BD70B505000800A0
:1040E0000E0007F019FB04002800FFF7DAFF002894
:1040F0000CD0002C06D03100280003F029FF00234B
:10410000A04201D002235B42180070BD0123FAE7F0
:1041100070B506000C008D18AC4207D033682178CA
:104120009B683000984720700134F5E770BD7047F8
:10413000704710B50400406801F0C6FF00232376E5
:1041400010BD10B5406801F0E4FF10BDF8B50500E2
:1041500040680C0001F0D8FF2B68E7B2260A9B6884
:10416000012810D139002800FF2798472B68BC434D
:1041700004439B6831002800984703022000384020
:10418000184380B2F8BD310028009847FF262B68FD
:104190000002344004439B68390028009847B44328
:1041A0002043EEE710B5040004F032F9200010BD02
:1041B00010B54B1C0BD0102909D0EFF3108472B648
:1041C000102905DD02234376002C00D162B610BD14
:1041D0000123427E1A43427618224A430449891831
:1041E00016228A569340C2691343C361ECE7C04666
:1041F0004CD700004B1C17D0102915D0437E9B07CD
:1042000012D4EFF3108272B618234B430749C91832
:104210000123897D49B28B40C1699943C16100D1B5
:104220004176002A00D162B67047C0464CD70000E4
:10423000437E002B05D09A0704D5837E002B00D047
:1042400062B67047DB07FCD5C369024A9BB2D360F4
:10425000F7E7C04600180040037E002B04D14376E8
:104260008376C36101330376704700007FB503692D
:1042700002AE04000D00029172608B4203D1828A6B
:10428000B3889A4226D0200006223100103006F072
:10429000C5FC606801F02FFF7379E17A013B581E7D
:1042A0008341227B00936068002302F0C1F83379D8
:1042B0000021013BDBB2022B01D8074AD15C074B3E
:1042C0002A009D4200D91A00606801F0E5FE60688E
:1042D00001F007FF7FBDC04641D60000001BB700BC
:1042E00070B518260400FFF7B7FF33000821207AC5
:1042F0000D4D4343EB18595601F090FD3300082152
:10430000A07A4343EB18595601F088FD0821607AE2
:104310004643AD19695601F081FD044B200006CBE0
:10432000FFF7A4FF70BDC0464CD700000805002071
:1043300007B5437E00910192002B07D09A070AD55A
:10434000EFF310835A425341837672B60099019A73
:10435000FFF78CFF07BDDB07F8D5C369014A9BB2A5
:104360009360F3E700180040F7B500240125194BCE
:10437000194A5D711A601C71184B19480833019372
:104380000360184B184F4360184B194E03810923E3
:104390003A0031004575046104758372063B04766A
:1043A000C472037304F03CF81248134B019A436043
:1043B000124B457503811D233100026004613A00F0
:1043C000047583721A3B05730476C37204F028F8EF
:1043D000F7BDC0460805002000093D0044D6000096
:1043E000C8040020300A0020000000200A08000055
:1043F00031410000E8040020480A00201B1A000098
:1044000010B5040003F0BAFC200001F085F820008C
:1044100010BD10B501F056F810BD10B50800110020
:1044200001F00EF910BD436810B5002B00D098477D
:1044300010BDF8B5050008000E00170007F06CF974
:104440000400380007F068F9E1B2C3B23A00300066
:1044500000F0F4FF0424431C14D001F01FFA0024E0
:10446000060001F01BFA2B68801B98420AD2280034
:10447000FFF7D9FF642001F047FA01F023F80400A8
:104480000228EED92000F8BD0022024B024906C3E3
:104490007047C0461005002050C3000013B56B469E
:1044A0000268D9710733546819000122A04716BD6C
:1044B000017570477047007CFF38431E9841C0B2B9
:1044C0007047000070B50E0086B0040002A8150009
:1044D00003F054FC02AA31000848FFF79EFF0028B1
:1044E0000AD0074A23680492039ADB690192059275
:1044F00004A92A002000984706B070BD10050020CE
:1045000094DB000070B5037C04000D001600FF2B47
:1045100002D003689B6A984700F090FC0200207468
:10452000FF281ED068680023310000F0BDFA01F0BA
:10453000B5F9050023682000DB6A9847002809D1F7
:1045400001F0ACF90A4B401B984203D8012001F05E
:10455000DBF9EFE723682000DB6A9847431E9841A8
:1045600070BD0449044803F017FD0020F8E7C04679
:104570000F27000080D60000600A002070B5037C81
:1045800004000D001600FF2B02D003689B6A9847B9
:1045900000F054FC02002074FF281ED0686802233B
:1045A000310000F081FA01F079F90500236820005C
:1045B000DB6A9847002809D101F070F90A4B401BCB
:1045C000984203D8012001F09FF9EFE7236820000B
:1045D000DB6A9847431E984170BD0449044803F0C4
:1045E000DBFC0020F8E7C0460F27000080D6000063
:1045F000600A002070B5037C04000D001600FF2B3C
:1046000002D003689B6A984700F018FC02002074EF
:10461000FF281ED068680423310000F045FA01F03D
:104620003DF9050023682000DB6A9847002809D17E
:1046300001F034F90A4B401B984203D8012001F0E5
:1046400063F9EFE723682000DB6A9847431E98412F
:1046500070BD0449044803F09FFC0020F8E7C04601
:104660000F27000080D60000600A0020F7B5037C09
:1046700004000E001700FF2B02D003689B6A9847C6
:1046800000F0DCFB05002074FF2825D0300007F087
:1046900043F80223C1B2019300953B000022300091
:1046A00000F044FA01F0FAF8050023682000DB6A04
:1046B0009847002809D101F0F1F80A4B401B9842B5
:1046C00003D8012001F020F9EFE723682000DB6A1E
:1046D0009847431E9841FEBD0349044803F05CFC23
:1046E0000020F8E70F27000080D60000600A0020B5
:1046F000F7B5037C04000E001700FF2B02D00368FF
:104700009B6A984700F09AFB05002074FF2825D08B
:10471000300007F001F80423C1B2019300953B007B
:104720000022300000F002FA01F0B8F8050023681A
:104730002000DB6A9847002809D101F0AFF80A4B46
:10474000401B984203D8012001F0DEF8EFE7236810
:104750002000DB6A9847431E9841FEBD0349044888
:1047600003F01AFC0020F8E70F27000080D60000B5
:10477000600A0020F8B50500007C0E001400FF2838
:1047800004D1012300246B602000F8BD002AF8D07A
:1047900092B200F0C5FA002815D12B7D002B03D171
:1047A000287C00F017FAECE72B6822005F6C3100E0
:1047B00001232800B847041EF2D0287C00F0F2FA4A
:1047C0000028DED0E0E70400F7E7000010B5017C28
:1047D0000020FF2902D0024800F0FCF810BDC046BE
:1047E00018050020036837B51B69040098470028A6
:1047F00009D06B46DD1D217C01232A00034800F00F
:1048000025F928783EBD01204042FBE7180500202D
:1048100010B50C001300017C2200024800F016F9CC
:1048200010BDC0461805002010B5017C014800F0FD
:10483000FDF810BD1805002007B500236A46019356
:104840001380007C01A900F0B5FD6B466A461B7819
:1048500050781B02C01880B20EBD13B500236A4603
:10486000040001931380087C01A900F0A3FD01A9B5
:10487000200003F099FA200016BDF8B505000E00DF
:104880001700002B0AD00524BAB2287C310000F0B2
:1048900047FA002803D1013C002CF5D10020F8BDD7
:1048A00000234360FA239B008360044B08330360BA
:1048B000FF230374FE3B03757047C04694D6000087
:1048C00010B5037C0020FF2B02D0180000F0B6F9D1
:1048D00010BD000070B50400007CFF2814D000F06B
:1048E00079F932252000FFF7EBFF002806D0013DC3
:1048F000002D03D0642001F007F8F3E7217C034882
:1049000000F04EF8FF23237470BDC0461805002048
:1049100070B5037C04000025FF2B05D003681B69DC
:104920009847A84202D00125280070BD2000FFF75B
:10493000C7FF0A28F7D8054BC340DB07F3D5217C16
:10494000034800F02DF8FF232374EDE7EF04000087
:10495000180500201FB5054B02934B6802A901936F
:104960000393FFF70BFE05B000BDC04694DB0000CB
:1049700010B5FFF77BFE10BD10B50400FFF790FFE8
:10498000024B20000833236010BDC046F0D6000063
:1049900010B504007822002106F05CF9200010BD5B
:1049A00010B50C244C4304192068002805D006F0EB
:1049B00019F9002363602360A36010BD70B5050082
:1049C0000024210028000134FFF7EAFF0A2CF8D167
:1049D000280070BDF7B50C244C430419A3680500EA
:1049E0000E00002B1AD12768002F05D10E4806F0C3
:1049F000EFF8A760606020606B469F1D0A4BF0B225
:104A00003A0021683B8000F04FF9002806D0236867
:104A10003A8863600C237343EB189A600C235E435F
:104A2000AD19A868FEBDC046DC05000070B50400E5
:104A30000D00FFF7CFFF002805D00C216943641853
:104A40006368187870BD01204042FBE7F8B50600A6
:104A50000C0017001D00FFF7BDFF002811D0854294
:104A600000DD05000C235C4334192A00616838001E
:104A700006F0D4F8280063685B196360A3685B1BC9
:104A8000A360F8BD10B5054C2000FFF781FF044A74
:104A90000449200003F0C4FC10BDC04618050020E6
:104AA00000000020BD4900007FB50E0069468C1C47
:104AB00023701D4BCD1C1B7801902A70002B01D157
:104AC00000F00CFA002000F0E3F900F05FFA042196
:104AD0002D2000F00DFC002201A8042100F0CAFAEC
:104AE0003000002100F0F2FB28000022012100F03C
:104AF000C1FA01222000110000F0BCFA00F06EFAA9
:104B0000002000F0C5F900F041FA0E220F23002129
:104B10006A446B44117019702D20013100F0D2FAF3
:104B200000F05CFA7FBDC04691050020F0B51C0086
:104B3000274B85B01B7806000D000192002B01D198
:104B400000F0CCF9002000F0A3F900F01FFA0521D5
:104B50002D2000F0CDFB30000022290000F08AFA61
:104B60000022042101A800F085FA0021200000F0B5
:104B7000ADFB002201210AA800F07CFA01220BAE55
:104B80001100300000F076FA03272C0011343C406D
:104B90000135002C02D000F04DFAF6E700F01EFAC5
:104BA0003078043843425841C0B200F071F900F047
:104BB000EDF90E220F236A446B4401212D2014705D
:104BC0001C7000F07FFA00F009FA05B0F0BDC04695
:104BD000910500201FB56B46DC1D174B20701B781C
:104BE000002B01D100F07AF9002000F051F900F01B
:104BF000CDF901212E2000F07BFB012220001100C5
:104C000000F038FA00F016FA00F014FA00F0E6F9B5
:104C1000002000F03DF900F0B9F90E220F23002129
:104C20006A446B44117019702E20013100F04AFA69
:104C300000F0D4F91FBDC046910500201FB56B469A
:104C4000DC1D184B20701B78002B01D100F046F9B9
:104C5000002000F01DF900F099F901212F2000F04B
:104C600047FB01222000110000F004FA00F0E2F9F5
:104C700000F0E0F900F0B2F9002000F009F90E248C
:104C800000F084F90F2300226C446B441A702270E8
:104C9000012122002F2000F015FA00F09FF9207862
:104CA00004B010BD9105002073B56B46DD1D0E00EC
:104CB0001400287000F00AF9002801D1208076BD88
:104CC000164B1B78002B01D100F008F9002000F0F2
:104CD000DFF800F05BF90221452000F009FB00221B
:104CE0000121280000F0DDFA01220221200000F05D
:104CF000D8FA00F09FF900F071F9002000F0C8F830
:104D000000F044F922003100452000F098FA00F04C
:104D100065F92088431E9841C0B2D0E79105002074
:104D20007FB56B46DC1D1E4B0E001B7815002070F6
:104D3000002B01D100F0D2F8002000F0A9F800F01B
:104D400025F90221442000F0D3FA0022012120009D
:104D500000F0A7FA30000122290000F0A2FA032691
:104D60002C00093434400135002C02D000F062F9E7
:104D7000F6E700F033F90E25200000F089F800F086
:104D800005F90D226D446A442900442014702C80DA
:104D900000F0CCF900F022F9288804B070BDC046BC
:104DA00091050020F0B50E2585B00F2700246B4635
:104DB00001266D446F44D8712C703C701E4B1B78DB
:104DC000002B01D100F08AF8002000F061F800F01B
:104DD000DDF831002A2000F08BFA6B4632003100FA
:104DE000D81D00F047F900F025F900F023F900F094
:104DF000F5F8002000F04CF800F0C8F83B002A005D
:104E000031002A2000F05EF900F0E8F82B78002B42
:104E10000FD101346420A4B200F076FD2B78002B72
:104E200001D1182CCAD9193C601E8441E0B205B0EA
:104E3000F0BD0024F2E7C04691050020134B13B5E6
:104E40001B78002B01D100F049F8002000F020F879
:104E500000F09CF800213F2000F04AFA00F0BEF874
:104E6000002000F015F800F091F86B469C1DFF2320
:104E700023706B46002207331A70012122003F2065
:104E800000F020F900F0AAF8207816BD9105002066
:104E900070B5050000F002FD0400094B187800F021
:104EA000A5FF00280BD0002DF7D000F0F7FC054B34
:104EB000001B9842F1D80448FFF7B5FAEDE770BD42
:104EC000040000200F2700001005002010B51E2050
:104ED00000F08CFF431E984110BD0000F8B51C2364
:104EE000234E244F3370244C07333B70BD33237063
:104EF00000F0B2FB214DDF2804D801232B7023786A
:104F0000DB4323703078012100F0F8FE387800216F
:104F100000F0F4FE2078012100F0F0FE01211E20B7
:104F200000F0ECFE01211E2000F034FF307801215A
:104F300000F030FF2978207800F02CFF0A2000F0E4
:104F4000E3FC297801252078694000F023FF0C4814
:104F500000F0DAFC00211E2000F01CFF00211E20C2
:104F600000F0CCFE0748FFF7BBF9074B1D70F8BDFA
:104F7000060000200400002005000020900500200D
:104F8000EE020000E80400209105002013B5002483
:104F90006B466A461C7101235371019A0B490C48F8
:104FA000FFF7C6F90B4B2100187800F0F3FE00F074
:104FB00075FC0400084B187800F018FF012804D095
:104FC00000F06CFC001B0428F4D913BD00127A0019
:104FD000E8040020060000200400002010B5044B67
:104FE0000121187800F0D6FE0248FFF721F910BD24
:104FF00006000020E804002007B56B46D871D97977
:105000000248C9B2FFF79DF80EBDC046E804002073
:1050100010B50400FF20FFF7EFFF207010BD70B542
:105020000C0005000800FFF7F3FF2078401B434207
:10503000584170BD13B56B46DC1D00232000237062
:10504000FFF7E6FF207816BD70B50500084CFFF7A6
:10505000F1FFEF2808D0013C002C01D0A842F6D186
:10506000401B4342584170BD01204042FBE7C0460F
:10507000E9030000F8B5050008000E0017002C0039
:10508000FFF7BAFF631B9E4204DD2078FFF7B4FFF1
:105090000134F7E7012F02D1EE20FFF7ADFFF8BD95
:1050A00010B50400000AFFF7A7FFE0B2FFF7A4FF66
:1050B00010BD10B50400FF20FFF79EFF002C00D0AC
:1050C000207010BDF0B585B01F0002ABDC1D0023C1
:1050D0000500E020019116002370FFF7B5FF0028BE
:1050E00002D1002005B0F0BD2000FFF791FF802223
:1050F00023781543AB42F4D12000FFF789FF2378D2
:10510000019A9342EDD13800FFF7D3FF35003A788A
:10511000AB1B9A4204DD2800FFF77AFF0135F6E762
:105120002100EE20FFF77BFF0120DBE7F7B56B46A0
:10513000DC1D00230500E0200E0017002370FFF7A0
:1051400083FF002801D10020FEBD2000FFF760FF93
:10515000802223781543AB42F5D1FFF76BFF00287F
:105160000DD03800FFF7A5FF35003A78AB1B9A4207
:1051700005DDFF20FFF740FF28700135F5E721002E
:10518000EE20FFF74CFF0120DEE7F0B587B004AB5F
:10519000DE1D00230500E020039114003370FFF7AB
:1051A00053FF002802D1002007B0F0BD3000FFF708
:1051B0002FFF802233781543AB42F4D1FFF73AFF3B
:1051C00001900028EFD005234343E3180293029B8C
:1051D0009C421AD0FF20FFF70FFF00272070237892
:1051E000BB4210DDA37865781B022B43E578FF20D6
:1051F0002D042B4325792D061D43FFF7FDFEED19E8
:1052000028700137EBE70534E1E7019B039A9342ED
:10521000C9D13100EE20FFF702FF0120C4E770B5CD
:105220000500FF20FFF7E8FE0400FF20FFF7E4FE83
:105230002402204380B2002D00D0288070BDF0B53C
:10524000002485B002AB0700DD1DE02001911600AF
:105250002C70FFF7F9FEA04202D1002005B0F0BD8E
:105260002800FFF7D5FE80222B781743BB42F4D1EC
:10527000FFF7E0FE00280ED03000FFF7D0FF3388A4
:10528000A34208D9019BFF201F19FFF7B5FE013487
:105290003870A4B2F3E72900EE20FFF7C0FE01202A
:1052A000DCE770B504000D0008001600FFF7F8FEFB
:1052B0006519AC4204D02078FFF79EFE0134F8E770
:1052C000012E02D1EE20FFF797FE70BD70B50400ED
:1052D00002200D00FFF790FE200AFFF78DFEE0B2DE
:1052E000FFF78AFE012D02D1EE20FFF785FE70BD8B
:1052F00070B50400E0200D00FFF77EFE7F20204007
:10530000FFF77AFE2800FFF777FE002D02D1EE208E
:10531000FFF772FE70BD000070B586B00500140086
:105320000E000B22002102A805F094FC09232A0A92
:105330006B441D705A702A0C2D0E9A70DD700E236E
:105340006B441E80360C5E801323220A6B441C7053
:105350005A70220C240E9A70DC70154B1B78002BAF
:1053600001D1FFF7BBFD0020FFF792FDFFF70EFE16
:1053700021200121FFF7BCFF6B460122D81DFF232E
:1053800011000370FFF776FEFFF754FEFFF752FEA1
:10539000FFF724FE0020FFF77BFDFFF7F7FD02AAD1
:1053A00003212120FFF7F1FEFFF718FE06B070BDC4
:1053B0009105002070B586B06B46DE1D0C0015000F
:1053C00030700622002103A805F044FC0D23220AB8
:1053D0006B441C705A70220C240E9A70DC701223DD
:1053E0006B441D802D0C5D80134B1B78002B01D16D
:1053F000FFF774FD0020FFF74BFDFFF7C7FD01210C
:105400003A20FFF775FF012230001100FFF732FE4E
:10541000FFF710FEFFF70EFEFFF7E0FD0020FFF79D
:1054200037FDFFF7B3FD03AA02213A20FFF7ADFED7
:10543000FFF7D4FD06B070BD91050020F7B51D0043
:105440001F4B07001B780C001600002B01D1FFF743
:1054500045FD0020FFF71CFDFFF798FD02211120FC
:10546000FFF746FF210000223800FFF703FE30005F
:1054700001222900FFF7FEFD0326063464192500EA
:10548000354003D0FFF7D6FD0134F8E7FFF7A6FD5E
:105490002800FFF7FDFCFFF779FD6B469C1D2200FD
:1054A00007330121112025701D70FFF70BFE002826
:1054B00001D1FF232370FFF791FD00202056FEBD90
:1054C00091050020134B13B51B78002B01D1FFF77A
:1054D00005FD0020FFF7DCFCFFF758FD0021202030
:1054E000FFF706FFFFF77AFD0020FFF7D1FCFFF77B
:1054F0004DFD6B469C1DFF2323706B460022073336
:105500001A70012122002020FFF7DCFDFFF766FD65
:10551000207816BD9105002070B50500054C064A9F
:1055200020000649FFF7F8FE2800210002F048FCA1
:1055300070BDC0469A050020920500209605002007
:10554000204B73B51B780400002B01D1FFF7C6FC7C
:105550000020FFF79DFCFFF719FD01213420FFF724
:10556000C7FE200006F0D8F80122C1B22000FFF7E4
:1055700081FD200006F0D0F80326441D25003540AB
:1055800003D0FFF757FD0134F8E7FFF727FD2800A8
:10559000FFF77EFCFFF7FAFC6B469E1D9D71320003
:1055A0000733012134201D70FFF78CFDC4B2FFF7D3
:1055B00015FD002C04D03478013C60424441E4B233
:1055C000200076BD91050020FF2130B587B00B008B
:1055D000050000910A0004A802F0D8FB174B1B78C5
:1055E000002B01D1FFF77AFC0020FFF751FCFFF7F9
:1055F000CDFC00213520FFF77BFEFFF7EFFC0020FC
:10560000FFF746FCFFF7C2FC0B2300226B441A7025
:10561000012103AA3520FFF755FD041E08D003A978
:10562000280002F0CDFB059B6C68E41A631E9C41C8
:10563000FFF7D4FC200007B030BDC0469105002024
:1056400010B50C00FFF77CFF03000020834202D05E
:105650002000FFF7B9FF10BD2420704770B501216D
:10566000202000F04BFB0021202000F093FB0A20BB
:1056700000F04AF90021202000F040FB642000F0F7
:1056800043F9202000F0CCFA962305009B002F4C14
:10569000984222DD2E49200000F014FF200000F087
:1056A00052FD03210B2000F0B9FB03210C2000F078
:1056B000B5FB00226B21200000F08CFD01212000B1
:1056C00000F0CAFD1B21200000F0C6FD20000321D0
:1056D00000F06AFD200000F04BFD1D49200000F0A5
:1056E000F1FE200000F02FFD03210B2000F096FBBF
:1056F00003210C2000F092FB00226B21200000F01F
:1057000069FD0721200000F0A7FD96232B219B00B7
:105710009D4200DD2039200000F09EFD0321200085
:1057200000F042FD200000F023FD01211E2000F0CA
:10573000E5FA01211E2000F02DFB01211F2000F0C1
:10574000DDFA01211F2000F025FB70BD380A002082
:10575000A086010010B5024802F033FA10BDC04621
:10576000A005002010B5024802F02BFA10BDC0467B
:10577000E40700207FB51949194800F0FDFB1949DD
:10578000194800F0F9FB1949194800F0F5FB1949CF
:10579000194800F0F1FB194C1949200000F0ECFB0E
:1057A000184E1949300000F0E7FB012503233100B2
:1057B000019500930D220B33144802F07BF91D2351
:1057C0000393013B02931A3B0193009518331B226C
:1057D00021000F4802F02AF97FBDC04600080042B0
:1057E000280A0020000C0042300A0020001000426D
:1057F000380A002000140042400A0020480A002015
:1058000000180042500A0020001C0042A0050020A1
:10581000E4070020FEE70000034B10B51B68002BD7
:1058200000D0984710BDC046580A002070B50F49F7
:105830000F4CA14204D100F08FF802F0C1FDFEE749
:105840000C4D00238D42F6D0CA18E818A24205D3A9
:10585000094B8242EFD00949002204E0006804337A
:105860001060F1E704C38B42FCD3E4E700000020A2
:10587000300200202CDF000030020020A0100020A9
:1058800010B500F066F8002801D100F057F810BDFF
:10589000014B18607047C046580A0020014B186839
:1058A0007047C0465C0A0020F7B5134801228446C1
:1058B0001249134C8E68636805689B0E1340019271
:1058C00088686268019F920E3A4067463F6893423B
:1058D0000ED1BD420CD186420AD35B19FA25486825
:1058E000AD00861B07486B437043000DC018FEBD1A
:1058F0003D0013000600E3E75C0A002010E000E032
:1059000000ED00E05555000070B5041E10D0FFF703
:10591000CBFF050000F01CF8FFF7C6FF054B401B4E
:105920009842F7D9FA23013C9B00ED18002CF3D1E3
:1059300070BDC046E70300007047000010B5034A81
:1059400013680133136000F0DBFA10BD5C0A00201D
:1059500070470020704700001E2270B54648474936
:10596000436893431C3A1343436008238C692343E1
:105970008B61434C434B9C829C8A14439C82DC6821
:105980001442FCD00124404A14701578254203D0FB
:1059900055786DB2002DF8DB01249460547864B220
:1059A000002CFBDB394C5460547864B2002CFBDBD8
:1059B0008224E4015480547864B2002CFBDB02247E
:1059C0009C840E34DD682542FCD0314CDC6210240E
:1059D000DD682542FCD09D8C2E4C2C439C841024E9
:1059E000DD682542FCD002249D8C80262C439C84BB
:1059F0004024DD683542FCD0DD682542F9D0102412
:105A0000DD682542FCD000249460547864B2002CF8
:105A1000FBDB214C5460547864B2002CFBDB1C6A25
:105A20001E4D2C4080251C621C6AAC431C62032363
:105A300093601B4B536053785BB2002BFBDB00235E
:105A4000FF240B72174A4B728B72CB72164B1A6083
:105A5000164B174A1B6811689A065B01C90E234052
:105A6000520F12020B431343124A138580234268DC
:105A70001343436070BDC046004000410004004035
:105A80000C06000000080040000C00400105010069
:105A9000B905FF7D040A000000070300FFFCFFFFBB
:105AA00003060100006CDC02080000202460800076
:105AB0002060800000400042FA21314B10B5186888
:105AC000890002F0BFFC2F4B0138984256D82E496E
:105AD0002E4A4860C020136A00061B021B0A0343BB
:105AE0001362002407238C600B608021136A09066F
:105AF0001B021B0A0B431362FC22254B196A0A4343
:105B00001A62FC22196A92010A431A62A022196AD7
:105B1000D2020A431A62E0B20021013400F0EEF82A
:105B20000F2CF8D11B4B1C005A7852B2002AFBDB19
:105B3000194A5A80194B1A00597EC9090129FBD00C
:105B4000E421C90099803F21D970537EDB09012BE4
:105B5000FBD0C02300205B011361907000F02EF891
:105B600063785BB2002BFBDB0D4B0E4A6380D3796D
:105B7000DB09012BFBD04123537010BDFEE7C0466B
:105B800008000020FFFFFF0010E000E000ED00E053
:105B900000040040000C00401E4000000040004295
:105BA0002140000000480042914202D002D98A1AE6
