:020000040000FA
:10000000FC7F0020790B0000690B00006D0B0000E5
:1000100000000000000000000000000000000000E0
:10002000000000000000000000000000710B000054
:100030000000000000000000750B0000CD0C000067
:1000400010B5064C2378002B07D1054B002B02D0AE
:10005000044800E000BF0123237010BD5C000020B5
:1000600000000000D01E000008B5084B002B03D094
:100070000748084900E000BF07480368002B03D089
:10008000064B002B00D0984708BDC046000000007A
:10009000D01E00006000002058000020000000007A
:1000A000064B0322104002040549586808401043DB
:1000B0005860DA695107FCD47047C0460008004216
:1000C000FFFFFCFF38B5284A284B5A805A7852B2B5
:1000D000002AFBDB264B04211A6A264D0A431A62CA
:1000E0002B68012213432B602A680123214C1A42FA
:1000F000FAD1E2691A42F7D11423236041001E4865
:1001000001F008FD421EE068FF231A4098431043A7
:10011000E0602368022213432360EA69154B9107CC
:10012000FBD45A8B30218A4310210A435A83EB694E
:1001300001205A07FBD4114B02241A7802431A708B
:100140000F4B0F22197891431970197821431970B8
:100150000C490C782043087019780A401A701A78F4
:1001600020210A431A7038BD14400000000C0040E2
:100170000004004000080042006CDC0248440041DA
:100180003444004149440041F7B500230F1C01925B
:100190001D1C994254D001212A4E4000084333705F
:1001A000C1B2294B0322588B1C1C000910400128A6
:1001B00004D05B8B1B091A40022AF2D1606AC00A84
:1001C000C00208436062217E1F4B0122880708D4C9
:1001D000197E1142F7D05968C02292020A435A6030
:1001E00003E05B8B9B08134201D0002528E03270AE
:1001F000237E9907FCD5154A154B117801251970F6
:100200006268BD4212D0134B022013406360FFF7B7
:1002100047FF33785A1C3270227E9007FCD50B4979
:100220000B480A780135C254EDB2E9E78023DB02BE
:10023000134363600199002902D00320FFF730FFC8
:10024000281CFEBD7800002000080042280800425B
:1002500099000020FFFFFBFF024B00221870024BA9
:100260001A7070477A00002079000020F8B5274BFB
:100270001C786400E4B2264B03215D8B1A1C2D0907
:100280000D40012D04D05B8B1B0919400229F2D1CE
:10029000536ADB0ADB0223435362117E01231942B6
:1002A000FBD01B49498B8908194204D00320FFF772
:1002B000F7FE022427E017490D782B1C002B11D0E4
:1002C000154EEC1A365D154C2670114E177E012422
:1002D000768B274202D12642F7D00BE0B6082642A1
:1002E0000ED007E00B701C1C00280CD00320FFF779
:1002F000D7FE08E003200B700324FFF7D1FE02E0D5
:10030000013BDBB2DAE7201CF8BDC0467A000020D2
:1003100000080042790000207B00002028080042ED
:10032000034A1378591C1170024AD05401207047B7
:10033000790000207B000020154A164B1178002917
:1003400009D11549187809784118C9B21970802067
:1003500012494003C86111780131C9B2117019788E
:10036000F02902D81978092909D80B4908784042A0
:10037000C0B20870187809784118C9B2197012789B
:100380001B789A4203D18022044B5203DA617047F2
:100390007D000020010000200000002000440041FA
:1003A00010B5041C6B20FFF757FF201CFFF7B8FFA8
:1003B0000120FFF75BFF01210A1C6B20FFF7E4FE21
:1003C000014B187810BDC0469900002038B5051CB7
:1003D0006B200C1CFFF740FF281CFFF7A1FF201C1F
:1003E000FFF79EFF0120FFF741FF022038BD08B54F
:1003F0000520FFF7D5FFCE23011C19400520FFF78C
:10040000E5FF012008BD000010B5041C0020FFF727
:10041000C7FF78232D4A9843C1B2944242D018D8DE
:100420002B4B9C4238D009D82A4B9C4230D02A4BC7
:100430009C422FD0294B9C4245D13FE0284B9C4207
:100440002CD0284B9C422BD0274B9C423BD12023C5
:1004500033E0264A94422BD00AD8254B9C4223D025
:10046000244B9C4222D0244B9C422CD1402324E09C
:10047000224A94421ED004D8214B9C4223D16023AF
:100480001BE0204A944217D01F4A944215D01AE02C
:10049000082312E0102310E018230EE028230CE0BC
:1004A00030230AE0382308E0482306E0502304E024
:1004B000582302E0682300E0702319430020FFF76F
:1004C00085FF012000E0002010BDC046581100004B
:1004D00018100000780F0000C80F0000280F00005F
:1004E000B810000008110000681000009812000009
:1004F000F811000048120000A81100003813000095
:10050000E812000088130000D813000010B5041C86
:100510000020FFF745FF07239843E122C1B2920074
:10052000944220D008D8962C18D0FA235B009C4225
:1005300017D0642C22D11CE0114A944215D005D862
:100540009623DB009C4219D1042311E0FA22D20049
:1005500094420CD00B4A94420AD00FE0012421436C
:1005600007E0022304E0032302E0052300E0062362
:1005700019430020FFF72AFF012000E0002010BDF2
:10058000DC050000B80B000070B504AC267805ACA3
:100590002578441EA041C401002901D040210C430C
:1005A000002A01D020221443002B01D010231C4329
:1005B000002E01D008231C43002D01D004231C432E
:1005C0000220FFF7EDFE0125011C294021430220F6
:1005D000FFF7FCFE281C70BD10B5041C0420FFF7BB
:1005E000DFFE03231840084B9C4204D0074B9C427B
:1005F00008D1B02100E0982101430420FFF7E6FE76
:10060000012000E0002010BD10100000701000005C
:1006100008B50120FFF7C4FECF23011C19400120BB
:10062000FFF7D4FE012008BD07B5FFF7E0FEFFF796
:10063000EFFF0948FFF7E8FEFA20C000FFF766FF6A
:10064000002300930193181C191C1A1CFFF79CFF30
:100650000248FFF7C1FF07BD08110000101000009D
:1006600008B50348FFF72EFDFFF7DEFF08BDC046C3
:10067000A086010010B5C3699C07FCD4036802245E
:10068000A3430360C46901231C42FBD104682343D4
:1006900003600368DC07FCD4C46901231C42FBD15E
:1006A000C469DC401C42F7D1084B1A430260C3699D
:1006B0005A07FCD4C0239B0243608181C3699C0715
:1006C000FCD4036802221343036010BD0400004001
:1006D000037EDA07FCD5018570470000027E012306
:1006E0005107FBD5428B1A4207D1428BDA401A429E
:1006F00003D1428B92081A4202D0034B01221A7096
:10070000008DC0B27047C0467E00002070B50368FF
:10071000041C988B1A1C0821FF32084226D0802026
:1007200099839872112353704021144B9171507129
:100730005E68134DC0202E40800506435E605E69F2
:100740003540284358610F4818600F4818615D68AC
:100750000E4828408025AD02284358605868800B19
:100760008003586000235171237105E0137ADA0683
:1007700002D5201C00F0E4FA207970BD9C01002015
:10078000FFFFFF8F9C0000201C010020FF3F00F0B6
:10079000002303714371044B016083600B780222D4
:1007A00013430B707047C0460D07000038B5364B39
:1007B0002021DA6901200A43DA61344B06241A78D1
:1007C00002431A70324B0F2219789143197019782D
:1007D000214319702F490C782043087019780A407A
:1007E0001A701A7860210A431A702B4B2B4A5A80D0
:1007F0005A7852B2002AFBDB294B01211A780A43AE
:100800001A709A78D107FCD426480268510B1F222F
:100810001140914200D1052111408C011D8D2249CA
:100820002940214319850468A10C0A401F2A00D1E0
:100830001D221C8D1F210A408C4322431A85026809
:100840000721D20D0A408A4200D103220A40188DA6
:100850001103164A02400A431A8519787F220A407A
:100860001A701A78042112480A431A7058621A89B9
:100870000C218A431A811A8901218A431A81002195
:10088000802201F0A0F938BD000400405844004126
:100890003C44004159440041000C00400640000027
:1008A00000500041246080003FF8FFFFFF8FFFFFF2
:1008B0009C010020F7B5141C1F4A5F0101971D1C05
:1008C000D319061C5869271C4000400F0330103311
:1008D000C74006D00F1C8022596812060A435A608E
:1008E00009E02F1C7B1E9F41144BBF01FF18381CD1
:1008F000221C01F05FF901990F4808354218176171
:10090000131C5269A104920B890C92030A435A6189
:1009100059690B4A0A405A616B01F3180222DA71D5
:100920005979802252420A435A716B01F318DB79DC
:100930009A07FAD5201CFEBD9C0100201C01002056
:10094000FF3F00F0F8B51A4E051C3378141C002B3D
:1009500012D1184B184A1A645A6C920B92035A64BB
:10096000586C164A02405A64A2235B00EA5C40209D
:100970000243EA54012333704827FF37EA5D01231D
:10098000134012D00B4B5A6C9204920CA24202D22A
:100990005C6CA404A40C081C221C074901F00AF991
:1009A0000123EB550023337000E01C1C201CF8BD14
:1009B0007F0000209C010020DC000020FF3F00F0B1
:1009C000FF3083792022002900D110221343837144
:1009D00070470000084BFF305A69920B92035A612E
:1009E00002230372827980235B4213438371037A6B
:1009F0009A07FCD57047C0469C01002080235B42CB
:100A00001943C9B28172704770B5A02303225B00FD
:100A1000C254134B134A5C6CC021144089050C432B
:100A200046255C64FF35402444550F4D30261D6437
:100A300090256D0046555D6B1540294392255963FD
:100A40006D0080214155094D1D63B0256D00445551
:100A50005C6F22405A67B2235B00C15470BDC04630
:100A60009C010020FFFFFF8FDC0000205C010020C4
:100A7000024B5B785BB2002BFADB7047000C004046
:100A8000024BDB68DA06FBD57047C0460008004021
:100A9000F8B52A4B1E22596891430222114359602E
:100AA000274B28491E1C9982998A0A439A82F36827
:100AB0000227234C3B42FAD0234D0123AB60FFF7C2
:100AC000D7FF224B6B60FFF7D3FF8223DB016B80E4
:100AD000FFF7CEFFA38C80229343A384FFF7D0FFC0
:100AE0001B4BE362FFF7CCFFA38C1A4A1343A3848A
:100AF000FFF7C6FFA38C1F43A784F3681A06FCD533
:100B00000F4BDB685A06F8D50024FFF7B9FFAC603D
:100B1000FFF7AEFF104B6B60FFF7AAFF0F4B104AB9
:100B2000C0215A600F4A0906106A0002000A0143F8
:100B3000116207229C601A60F8BDC0460040004167
:100B4000000800400C060000000C004001050100F8
:100B5000B805FF7D040A00000007030010E000E074
:100B6000E703000000ED00E00EBEFEE70DBEFEE76D
:100B700005BEFEE702BEFEE70E4A0F4838B58242C8
:100B800004D10E4A0E4B93420ED10AE00D4C944212
:100B9000F7D00023D1188842F3D9E55804330D600B
:100BA000F8E700F011F804E09342FAD2002102C302
:100BB000FAE7FEE7000000205C000020AC03002004
:100BC0005C000020D41E000038B5344D2B68013382
:100BD0001AD0334B2A1D1A60EAB2002A14D1314BC5
:100BE000197801231940304B0AD118682F4A9042D6
:100BF00001D1196008E01A602D4A013A002AFCD19F
:100C00001A602C4B01221A70FFF742FF62B6FFF701
:100C100027FD284B284C1B78002B0AD02B6883F328
:100C200008881E4BFF229343A3601D4B1B681B6863
:100C3000184700F09DFD00F04FF8204B8022520332
:100C40009A601F4B1F4A051C5A60216AC022090284
:100C5000090A12060A43226200229A6007221A60D9
:100C6000AB68281C9847184B002801D001221A7045
:100C70001A78002A05D0002000F08CFA00F004FB5E
:100C8000FCE71B78002BEBD100F0E6FD0028E7D055
:100C9000012000F07FFA00F0F7FAFCE700200000E6
:100CA0001C02002038040040FC7F002035817307BF
:100CB00048E801008000002000ED00E00044004111
:100CC00010E000E0E70300008100002008B5FFF716
:100CD00033FB00F0C3FA08BD10B5054B054C23608B
:100CE000FFF764FD201C2168FFF752FD201C10BD9A
:100CF000005000412002002070B5051CC0B0081C47
:100D0000161C0C1C00F067FF40006A4603230230EB
:100D10005370107076080123E218013A11785A00D6
:100D2000002906D1281C69460023FFF7C3FD40B007
:100D300070BDB342F6DA684681520133ECE7000039
:100D4000F7B5BA4A04681378B949271CFF37051C60
:100D5000102038720B705378B648B74E03709378F2
:100D60003380D178338809020B4333801179B34B38
:100D70001980517918880902084318809079B04980
:100D80000880D2790888120202430A8040227A71D0
:100D9000A84F3A78A64F120238780F1C0243A94890
:100DA0008446181C624500D1C2E020DC8021490045
:100DB0008A4200D16EE109DC812A00D192E0822AC8
:100DC00000D195E0802A00D064E18BE081235B00B4
:100DD0009A4200D1CFE000DA58E1C0239B009A424A
:100DE00000D157E1984B9A4200D14FE152E1902354
:100DF0001B019A4269D015DCD023DB009A4222D035
:100E000088231B019A4269D0A023DB009A4200D0BC
:100E100040E1201CFFF7DEFD3188286889B2FFF72A
:100E2000EDFD3BE1894B9A4200D12FE100DC31E13D
:100E3000874B9A4200D11DE1864B9A4200D029E1AE
:100E400033886B7122E133881B0A012B08D10B8890
:100E500012222868934201D80A8892B27E4911E191
:100E600033881B0A022B08D10B884322286893423F
:100E700001D80A8892B2794904E133881B0A032B0E
:100E800000D007E13388DBB2012B17D0002B07D04D
:100E9000022B00D0FEE00A882868D2B2704911E027
:100EA000042201A86F4900F085FE3B8804222868CF
:100EB000934201D83A8892B201A9E3E00A882868EF
:100EC0006949D2B2FFF718FFE8E03388201C2B7184
:100ED000FFF780FD201CFFF797FDDFE0291C01C90B
:100EE0000122CFE0614900230B8028680222CAE07A
:100EF0005E4900220A801888502210405C4A107017
:100F00001E880F20304018801888032800D9C1E0BF
:100F100012781B8808335B01E418A379002A01D0FA
:100F20009B0600E0DB06DB0F0B8028680222A9E0AD
:100F300019887F2291434E4AC9B2117018880F2137
:100F4000014019803188002900D0A3E019880029C8
:100F500000D19FE01988032900D99BE012781B88F3
:100F600008335B01E318002A02D020225A718DE079
:100F7000102159718AE002887F239A433C4BD2B2F8
:100F80001A7001880F220A4002803288002A00D09D
:100F900080E00288002A00D17CE00288032A00D980
:100FA00078E01B78002B1FD0038808335B01E3181F
:100FB0009B799A066AD50388202208335B01E318DF
:100FC0001A71038808335B01E318DB795F065DD58E
:100FD0000388402208335B01E318DA710388022298
:100FE00008335B01E3181EE0038808335B01E31854
:100FF0009B79D9064AD50388102208335B01E31890
:101000001A71038808335B01E318DB799A063DD532
:101010000388202208335B01E318DA710388012278
:1010200008335B01E3181A7130E0C0469C000020D1
:1010300083000020880000208A0000208C0000200F
:1010400086000020020300000103000021200000B0
:10105000A121000021220000241C00000400002027
:101060000C1C0000FC1B0000001C00008400002081
:10107000820000200B8808222868934201D80A8841
:1010800092B207490023FFF715FC07E0201CFFF789
:10109000A1FC03E0201C0121FFF792FCF7BDC04634
:1010A0004800002007B5054B0122019001A91868EE
:1010B000131CFFF7FFFB01200EBDC04620020020DD
:1010C00013B5054B6C4607341868211C0122FFF745
:1010D00039FC207816BDC0462002002010B5074C10
:1010E000201CFFF713FB031C0020834205D022685D
:1010F0004823FF33D05C0123184010BD200200209C
:1011000010B5054A0C1C031C191C10680123221C75
:10111000FFF7D0FB201C10BD2002002070B5084C4A
:10112000061C201C0D1CFFF7F1FA0023984205D085
:101130002068311C2A1CFFF705FC031C181C70BD1D
:1011400020020020F8B50C4C051C201C0E1CFFF7DB
:10115000DDFA0023271C341C98420AD0002C07D04B
:10116000291C221C3868FFF7EDFB241A2D18F5E71F
:10117000331C181CF8BDC0462002002008B5031C13
:10118000081C111C9847024B64221A8008BDC046F7
:1011900092000020012805D1054B064A1A60064B33
:1011A000187004E0002802D1044A014B1A6070470D
:1011B00090020020581C000098000020A41C000091
:1011C00030B50A1C1C4985B00978031C00292AD0B7
:1011D000042A01D1006804E0022A01D1008800E05D
:1011E0000078520004A98B180B3B9C1AA3420BD029
:1011F0000F210140092902D83025294300E0373169
:1012000019700009013BF1E701A930230B70782325
:101210004B700A208B1898700D20D870074B043241
:101220001B68D86803E005490968C868191CFFF7FE
:10123000A5FF05B030BDC0468E0000209002002002
:1012400072B6EFF30883044A1360036883F30888D7
:10125000436818477047C04694020020084B1A881C
:10126000002A03D01A88013A92B21A80054B1A88D4
:10127000002A03D01A88013A92B21A807047C046F9
:101280009200002090000020F0B591B008A9CC4A4F
:101290000B1C31CA31C351CA51C360CA60C3C94BA8
:1012A000C9489A687A255203520F92005258C7498A
:1012B00002609C68A4B262430C60C54900240A60C5
:1012C000C44A1460C44C2570C44CC54D2368281C06
:1012D0001B6940219847002802D0C24B64221A8023
:1012E000C14B00221860C14B1D60C14BC04DBE4FA9
:1012F0001A602A683B689A42E6D2BC4B1B681A788F
:10130000FF2A00D114E2232A00D0EBE1B94E337852
:10131000002B06D0B14BB8491B680222D868FFF7F2
:101320002DFFAD4B1B78532B3CD13B682A68934271
:101330001ED9AE4801322A609A1AB04B01681B6868
:1013400001310160AE4E9A4201D2326000E033605A
:10135000A04832680068049000F02CFC33682968CB
:101360005A182A60A14A1668F1181160A54A13702C
:101370002B68013B2B609D4B1A68013A1A60A14B08
:101380009E4A1B7811688B420AD222689148C91A7A
:10139000006892699047002802D0924B64221A801C
:1013A000C0468DE1522B0AD18A48944A23680068CE
:1013B00011685B69039098476422934B0DE04F2BB3
:1013C00005D1844B8D4A1B6812681A7078E1482B4E
:1013D00005D1804B894A1B6812681A8070E1572B2F
:1013E00005D17C4B854A1B6812681A6068E16F2B37
:1013F00003D1784B0121186807E0682B08D1754BA1
:101400007E481B6802211B880360FFF7D9FE57E165
:10141000772B06D16F4B79481B6804211B6803604A
:10142000F3E7472B13D1754B1868FFF709FF774B8C
:101430001B6883F3088862B6754B1B78002B00D1BC
:101440003EE1664B06201B681B68984738E1542B29
:1014500004D101233370614B1B6864E04E2B0CD127
:101460003378002B06D15D4B63491B680222D86894
:10147000FFF784FE0023337022E1562B57D12368F7
:101480006449D8680122FFF779FE23686249D86869
:101490000322FFF773FE614D2368291CD8680122DF
:1014A000FFF76CFE23685E49D8680D22FFF766FEE1
:1014B0002368291CD8680122FFF760FE4B4F4C4D72
:1014C0005849002339602B603A1C281C13685E1CA5
:1014D00016601B780593002B03D00368013303606B
:1014E000F4E73E4E2A683368D868FFF747FE336852
:1014F0004A49D8680122FFF741FE059929604A4907
:1015000039603A4A1368581C10601B78002B04D0CD
:10151000374B1A6801321A60F3E733682A68D868D3
:10152000FFF72CFE3368D86833490222C6E0334AFD
:10153000582B17D1244E264D366813682A68B100FF
:1015400093420AD21F4D5808E861384828801D4D43
:10155000287DC607FBD55B18F2E7204B34491B6892
:10156000D868AAE0592B79D112681A4B3149002A60
:1015700002D11B680B606CE0124D086819686B683B
:10158000104E8025AB4392087360002A61D02A4B2D
:101590000C4D2B800B4E337DDD07FBD500230A4D10
:1015A0002D680195AD08AB4203D3244D054E35801F
:1015B00046E09342F9D09D00465901334E51EEE783
:1015C000381C00000040004148020020400200207A
:1015D0003C0200208C0200203802002090020020F3
:1015E0004C02002090000020300200203402002035
:1015F000440200208E000020981C00009802002069
:101600009C0200202C020020920000209402002066
:1016100098000020741C00009D1C0000761C000037
:10162000C01C0000781C0000841C000002A5FFFF05
:101630008D1C00009400002044A5FFFF04A5FFFFBF
:101640003F4E357DEE07FBD59D0049194019D21A52
:101650009BE73C4B3C491B68D8682EE05A2B2FD1A6
:101660003A4B17681D680026EF19BD4206D028784E
:10167000311C00F013F90135061CF6E7314B3449F3
:101680001B680122D868FFF779FD07230F2232403B
:10169000111C36093031092A00DD07311820C01825
:1016A0006A468154013BF1D2236806A9D868082212
:1016B000FFF764FD23682749D8680322FFF75EFD22
:1016C000254B7A221A70254B00221A60244B1B7876
:1016D00093422DD01B4B23491B680122D868FFF78A
:1016E0004DFD25E0111C3039C8B21C4B092804D827
:1016F0001D682A01114319601AE0111C413905299E
:1017000003D81E68373A310106E0111C61390529FA
:1017100004D81868573A01010A4308E02C2A03D17B
:101720000A4A1968116001E00B490A7000221A6028
:101730000D4B1A6801321A600C4B1A680132D5E55C
:101740000040004190020020911C00008C0200200B
:10175000951C0000971C0000380200209802002011
:101760008E0000209B1C0000440200203402002058
:1017700010B51C4B01201A78032402431A701A4B2F
:101780000F2219789143197019782143197017495C
:101790000C782043087019780A401A701A783021A2
:1017A0000A431A70124B80211A6A0A431A62114BBB
:1017B000114A5A805A7852B2002AFBDBC4220F48E1
:1017C0000F499203FEF756FF0E4A002313700E4A8C
:1017D00013700E4A13700E4A13700E4A13700E4A9D
:1017E000137010BDD6440041BB440041D7440041B2
:1017F00000040040000C004019400000001C0042A2
:101800002AF60000A002002027030020A1020020E9
:10181000A4020020280300202503002008B5C1B23F
:101820000248FEF755FF012008BDC046001C0042DB
:10183000024B187E4007C00F7047C046001C004294
:1018400008B5FFF7F5FF0028FBD00248FEF746FF7A
:1018500008BDC046001C004208B5FFF7E9FF0023A1
:10186000984205D0FFF7ECFF031C233B5A4253413B
:10187000181C08BD70B5041C0D1C4618B44204D0D9
:101880002078FFF7CBFF0134F8E7281C70BD10B5B6
:10189000041CFFF7D5FF2070012010BD0B0A584033
:1018A000034B4000C05A0902484080B27047C0460E
:1018B000CE1C0000F7B50024051C0F1C261CBC42E2
:1018C00020D0FFF7BDFF114BC0B21B780190002B59
:1018D0001AD1311CFFF7E2FF0D4B061C1A88002AB3
:1018E00004D10C4A11782A1C002907D001996A1CDE
:1018F0002970802F02D11988013919800134A4B2CE
:10190000151CDCE7301C00E00120FEBD2503002093
:10191000A202002026030020F0B53E4E85B0002232
:1019200003900C1C32703C4B914201D1012201E02A
:101930003A490C801A707F231C4201D080349C43AA
:10194000FFF77EFF3378C0B2002B07D0002535703B
:10195000FFF776FF3378C0B2AB4236D1432803D0CD
:10196000712853D01528EBD1012300930120FFF7F4
:1019700055FF0098FFF752FF00998025C843C0B279
:10198000FFF74CFF039B00270293244A1388002B88
:101990001DD1214901930978002918D10198FFF739
:1019A0003DFF391C0198FFF779FF013D071C002D11
:1019B000EBD1000AC0B2FFF731FFF8B2FFF72EFFFC
:1019C000FFF73EFF3378002B0AD035701FE00299F5
:1019D000013B09781380029B019101330293DDE7FB
:1019E000C0B2062807D1009B03990133DBB28031D6
:1019F0000093803C0391002CB8D10420FFF70EFF28
:101A0000FFF71EFF044B01251C7000E00025281C79
:101A100005B0F0BD2503002026030020A20200200F
:101A2000F0B5384C87B0002301902370994201D162
:101A3000012301E0344A1180344A642613704320A4
:101A4000FFF7ECFE324FFFF7F3FE002803D1002F23
:101A500003D0013FF7E7002F03D1013E002EEED166
:101A60004DE00125FFF7ECFE2378002B38D1C0B202
:101A70000290012805D004283DD10620FFF7CEFEB4
:101A800039E005AE0221301CFFF714FF01988021D8
:101A9000FFF710FF23780390002B18D1FFF7D0FE3B
:101AA0000702FFF7CDFEBFB223783F18BFB2012B6C
:101AB0000DD0039B9F4207D13378AB4204D1EB4357
:101AC0007278DBB29A4204D01820FFF7A7FE0023F9
:101AD00003E00620FFF7A2FE029B2278002A02D034
:101AE000002626700BE0012B05D1019A6B1C803279
:101AF000DDB20192B6E7054A002313700126301CBF
:101B000007B0F0BD25030020A2020020260300201C
:101B100000350C00002934D00123002210B4884283
:101B20002CD301242407A14204D2814202D209010C
:101B30001B01F8E7E400A14204D2814202D249002D
:101B40005B00F8E7884201D3401A1A434C08A042D0
:101B500002D3001B5C0822438C08A04202D3001B66
:101B60009C082243CC08A04202D3001BDC0822437D
:101B7000002803D01B0901D00909E3E7101C10BCA1
:101B80007047002801D00020C04307B4024802A1DA
:101B90004018029003BDC046190000000029F0D093
:101BA00003B5FFF7B9FF0EBC4243891A1847C04678
:101BB0007047C04610B50023934203D0CC5CC45498
:101BC0000133F9E710BD031C8218934202D019704B
:101BD0000133FAE770470023C25C0133002AFBD1CE
:101BE000581E7047F8B5C046F8BC08BC9E46704702
:101BF000F8B5C046F8BC08BC9E467047040309040B
:101C000041726475696E6F204C4C4300417264757B
:101C1000696E6F204D4B5220576946692031303133
:101C20003000000012010002020000404123540075
:101C30000002010200010000080000001000000086
:101C400020000000400000008000000000010000B3
:101C500000020000000400001D18000041180000F0
:101C600031180000751800008F18000019190000C5
:101C7000211A00007600200041707220313120329C
:101C80003031390031333A30393A353600580A0D9F
:101C900000590A0D005A00230A0D003E00322E3072
:101CA00000000000A5100000C1100000DD100000C1
:101CB000011100001D11000001110000451100007C
:101CC0005B41726475696E6F3A58595A5D00000045
:101CD0002110422063308440A550C660E77008811F
:101CE00029914AA16BB18CC1ADD1CEE1EFF1311296
:101CF000100273325222B5529442F772D66239936F
:101D000018837BB35AA3BDD39CC3FFF3DEE36224E5
:101D1000433420040114E664C774A44485546AA5BE
:101D20004BB528850995EEE5CFF5ACC58DD5533675
:101D3000722611163006D776F6669556B4465BB70E
:101D40007AA719973887DFF7FEE79DD7BCC7C44845
:101D5000E5588668A7784008611802282338CCC95E
:101D6000EDD98EE9AFF9488969990AA92BB9F55AD5
:101D7000D44AB77A966A711A500A333A122AFDDBAE
:101D8000DCCBBFFB9EEB799B588B3BBB1AABA66CA5
:101D9000877CE44CC55C222C033C600C411CAEEDFE
:101DA0008FFDECCDCDDD2AAD0BBD688D499D977EB5
:101DB000B66ED55EF44E133E322E511E700E9FFF4E
:101DC000BEEFDDDFFCCF1BBF3AAF599F788F889104
:101DD000A981CAB1EBA10CD12DC14EF16FE18010E8
:101DE000A100C230E3200450254046706760B983EB
:101DF0009893FBA3DAB33DC31CD37FE35EF3B10238
:101E00009012F322D2323542145277625672EAB5FA
:101E1000CBA5A89589856EF54FE52CD50DC5E23487
:101E2000C324A01481046674476424540544DBA7CA
:101E3000FAB79987B8975FE77EF71DC73CD7D326D7
:101E4000F2369106B01657667676154634564CD95A
:101E50006DC90EF92FE9C899E9898AB9ABA9445827
:101E6000654806782768C018E1088238A3287DCB2A
:101E70005CDB3FEB1EFBF98BD89BBBAB9ABB754A77
:101E8000545A376A167AF10AD01AB32A923A2EFDBA
:101E90000FED6CDD4DCDAABD8BADE89DC98D267CC7
:101EA000076C645C454CA23C832CE01CC10C1FEF0A
:101EB0003EFF5DCF7CDF9BAFBABFD98FF89F176E17
:101EC000367E554E745E932EB23ED10EF01E00004B
:101ED000000000000114000009024300020100801C
:101EE0003209040000010202000005240010010470
:101EF00024020005240600010524010001070583D2
:101F0000030800FF09040100020A00000007058120
:101F100002400000070502024000000000C201006C
:101F200000000800690000004100000000000000FF
:1020000000800020553200003D3200003D320000CB
:1020100000000000000000000000000000000000C0
:102020000000000000000000000000003D32000041
:1020300000000000000000003D320000A932000056
:102040003D3200003D3200003D3200003D320000D4
:102050003D3200003D3200003D32000041320000C0
:102060003D3200003D3200003D320000A527000057
:102070003D3200008D3100007D3100003D32000016
:102080003D3200003D3200003D3200003D32000094
:10209000000000003D3200003D3200003D320000F3
:1020A0003D3200003D3200003D3200003D32000074
:1020B0000000000010B5064C2378002B07D1054B1B
:1020C000002B02D0044800E000BF0123237010BDA4
:1020D000C00000200000000078850000044B10B50F
:1020E000002B03D00349044800E000BF10BDC046E8
:1020F00000000000C400002078850000962170B523
:10210000154C8901200002F0E1F8200002F0E0F80F
:102110000028FAD0002000F0D3F8104C0500206011
:102120000C2003F053FD06000D4A0E4900F024F97F
:102130003100280000F0D4F8206800F0DCF810200E
:10214000256803F043FD040000F01EF8280021007C
:1021500000F0C6F870BDC046B8080020DC000020C2
:10216000DC7E0000E67E000010B5024B186800F02F
:10217000C2F810BDDC000020704710B5040003F069
:1021800029FD200010BD000070B505000D4B0E4C60
:1021900008330360200000F03BF92000532100F0D9
:1021A000FBF82D21200000F014FA0821200000F097
:1021B00010FA200000F0FCF80A2001F0B9F828001D
:1021C00070BDC046047F0000E400002073B5374CAA
:1021D00005005321200000F0DFF83221200000F03C
:1021E000F8F90021200000F01AFA012306225321F9
:1021F000200000F0A6F9200000F044FA06002000BC
:1022000000F040FA0002304303F014FFEE2189058C
:1022100003F0DEFD6860200000F034FA06002000C4
:1022200000F030FA0002304303F004FFEE2189058C
:1022300003F0CEFDA860200000F024FA0600200084
:1022400000F020FA0002304303F0F4FEEE2189058D
:1022500003F0BEFD164CE8601649200003F06BFB4E
:10226000686805F095FC022602000B00009620002D
:1022700003F07AFC1049200003F05DFBA86805F02C
:1022800087FC009602000B00200003F06DFC0B4958
:10229000200003F050FBE86805F07AFC009602008D
:1022A0000B00200003F066FC73BDC046E400002074
:1022B000B8080020ED7E0000F27E0000FA7E0000EB
:1022C00070B5064C05002368002B04D1042003F0F0
:1022D0007DFC05602060206870BDC046E0000020E5
:1022E00070B5040000680D00002802D003685B6828
:1022F0009847256070BD10B5006803689B689847D3
:1023000010BD7047F7B5144C06001449200003F0C7
:102310002BFBFA20800001F00BF8114DB2687168B8
:10232000280000F0DAFB07009620400001F000F8DA
:10233000032FF2D10B49200003F016FB0A492000BD
:1023400003F0F9FA2900684600F0B8FB694620005E
:1023500003F014FBF7BDC046B8080020187F00004A
:1023600068030020357F0000527F000010B5040094
:1023700003F030FC200010BD024B416008330360C5
:1023800082607047587F00000020704710B50368D6
:102390009C6B0123A04710BD8C2300229B00C154DD
:1023A000103BC3185A609A60DA6001238375704746
:1023B00010B5036801211B6B984710BDF8B50500E7
:1023C0000E0017000024BC4208D02B68315D1B684A
:1023D00028009847002801D00134F4E72000F8BD18
:1023E000FC30406A704770478E239B00C150704795
:1023F0008D239B00C15070470300FC335A6A002AAA
:1024000003D01B6AC018007E704701204042FBE7E2
:1024100070B5060018250C49006901F067FD3069A8
:1024200001F0A5FB2B000821307D084C4343E31845
:10243000595601F007FA0821707D45436419615629
:1024400001F000FA70BDC046A0860100FC7F0000CC
:1024500070B504000D00006901F09EFB29002069A1
:1024600001F044FD206901F082FB70BD10B50069E8
:1024700001F092FB10BD0000F7B50193FA2380260E
:10248000002504009B008360134B760008330F0087
:1024900045602900009203603200183005F037FCD7
:1024A00023002000FC332530DD6132001D6229004D
:1024B0005D62FF3005F02BFC88239B00E3185D6014
:1024C0009D60DD606B461B78276123756B461B7929
:1024D000A57520006375FEBD6C7F000070B5060019
:1024E0001825006901F0DDFC306901F040FB2B008C
:1024F0000821307D064C4343E318595601F0A2F9F8
:102500000821707D45436419615601F09BF970BD47
:10251000FC7F000010B50022FFF7E0FF10BD0300B4
:10252000802210B5FC33DC685200944208D05A680F
:1025300081545A680132D2B25A60DA680132DA60E4
:1025400010BDF7B50400171E019302D10025280025
:10255000FEBD03000022FC33DA611A625A62006990
:10256000013201F04BFB061EF0D023002069183326
:10257000009301F0D6FB01000098FFF7D0FF012582
:102580002069BD4214D001F0AAFB00280FD02069B9
:1025900001F014FB0221206901F01AFB206901F00F
:1025A000C0FB01000098FFF7BAFF0135E8E706001D
:1025B000206901F0FBFA019B002B06D0002E06D00B
:1025C0000321206901F004FBC1E7002EBFD1013DCA
:1025D000BDE7002310B5827D9A420CD0882292007C
:1025E0008218D46880225200944204D02530FF30F3
:1025F000FFF795FF0123180010BD0300FC33DA68D4
:10260000002A09D09A68805C9A680132D2B29A6036
:10261000DA68013ADA60704701204042FBE70022A5
:102620008C2370B59B00827504000E00C15C0069AC
:1026300001F0E4FA002806D10321206901F0C8FA6C
:102640000225280070BD88239B00E318DD68002D5B
:1026500011D020002530FF302569FFF7CEFFC1B231
:10266000280001F00DFB0028EDD10321206901F0C5
:10267000AFFA0325E5E7002EE3D00321206901F03E
:10268000A7FADEE710B51830FFF7B7FF10BD70B539
:102690000400006901F01AFB002815D0206901F040
:1026A0002CFB002811D0206901F088FA0321206951
:1026B00001F08EFA8E239B00E558002D35D10023C2
:1026C000FC34E3612362636270BD206901F01FFB8B
:1026D000002809D0206901F015FB002804D02069EA
:1026E00001F01AFB0028DED0206901F010FB002861
:1026F00021D1206901F0FCFA0028E5D0206901F021
:102700000BFB002833D088239B00E318DB68FF21F4
:10271000002B05D020002530FF30FFF76EFFC1B23F
:10272000206901F0C5FAA075CEE7236820001B6977
:102730009847A847C3E7206901F040FA20690321C0
:1027400001F046FA206901F0E7FA0028BCD088239E
:1027500000229B00E3185A609A60DA600123A37597
:102760008D239B00E3589342AED09847ACE72300FB
:10277000FC335A6A802320695B009A4206D101F03B
:1027800015FA0321206901F023FA9DE701F0C9FA47
:10279000010020001830FFF7C2FE206901F00EFA98
:1027A000EFE7000010B50248FFF771FF10BDC0460B
:1027B000E400002010B50C230B2202490248FFF769
:1027C0005BFE10BD90080020E400002070B50600FC
:1027D0000C008D18AC4207D0336821789B6830001C
:1027E000984720700134F5E770BD7047704710B509
:1027F0000400406801F07CF90023237610BD10B579
:10280000406801F09AF910BDF8B5050040680C0069
:1028100001F08EF92B68E7B2260A9B68012810D1D7
:1028200039002800FF2798472B68BC4304439B6866
:10283000310028009847030220003840184380B236
:10284000F8BD310028009847FF262B68000234406D
:1028500004439B68390028009847B4432043EEE7BF
:1028600010B5040003F0B6F9200010BD10B54B1CE4
:102870000BD0102909D0EFF3108472B6102905DDB2
:1028800002234376002C00D162B610BD0123427EA4
:102890001A43427618224A430449891816228A5656
:1028A0009340C2691343C361ECE7C046FC7F00005C
:1028B0004B1C17D0102915D0437E9B0712D4EFF381
:1028C000108272B618234B430749C9180123897D2A
:1028D00049B28B40C1699943C16100D14176002A58
:1028E00000D162B67047C046FC7F0000437E002BDB
:1028F00005D09A0704D5837E002B00D062B67047BE
:10290000DB07FCD5C369024A9BB2D360F7E7C04638
:1029100000180040037E002B04D143768376C36108
:1029200001330376704700007FB5036902AE0400EF
:102930000D00029172608B4203D1828AB3889A4261
:1029400026D0200006223100103005F0D7F960684B
:1029500001F0E5F87379E17A013B581E8341227B4F
:1029600000936068002301F077FA33790021013B7E
:10297000DBB2022B01D8074AD15C074B2A009D42EB
:1029800000D91A00606801F09BF8606801F0BDF89A
:102990007FBDC046BC7F0000001BB70070B5182685
:1029A0000400FFF7B7FF33000821207A0D4D4343A1
:1029B000EB18595600F046FF33000821A07A434334
:1029C000EB18595600F03EFF0821607A4643AD19D6
:1029D000695600F037FF044B200006CBFFF7A4FF39
:1029E00070BDC046FC7F00006003002007B5437E39
:1029F00000910192002B07D09A070AD5EFF31083BC
:102A00005A425341837672B60099019AFFF78CFFC0
:102A100007BDDB07F8D5C369014A9BB29360F3E7B2
:102A200000180040F7B500240125194B194A5D71C3
:102A30001A601C71184B1948083301930360184B36
:102A4000184F4360184B194E038109233A00310097
:102A50004575046104758372063B0476C472037382
:102A600003F0BCF81248134B019A4360124B4575B2
:102A700003811D233100026004613A0004758372F2
:102A80001A3B05730476C37203F0A8F8F7BDC0467D
:102A90006003002000093D00C07F000020030020EB
:102AA00088080020000000200A080000ED27000030
:102AB00040030020A00800201B1A000010B50400ED
:102AC00002F070FE200000F0C7FA200010BD43683D
:102AD00010B5002B00D0984710BDF8B505000800D0
:102AE0000E00170005F0D6F90400380005F0D2F901
:102AF000E1B2C3B23A00300000F040FA0424431CB3
:102B000014D000F0DFFB0024060000F0DBFB2B6894
:102B1000801B98420AD22800FFF7D9FF642000F0FA
:102B200007FC00F06FFA04000228EED92000F8BD7F
:102B30000022024B024906C37047C04668030020CA
:102B400050C3000010B504007822002105F0DFF822
:102B5000200010BD10B50C244C4304192068002837
:102B600005D005F0C1F8002363602360A36010BDA9
:102B700070B505000024210028000134FFF7EAFFAA
:102B80000A2CF8D1280070BD10B5054C2000FFF7C5
:102B9000D9FF044A0449200003F020F810BDC046C4
:102BA0007003002000000020712B000070B50500AC
:102BB00000F088FB0400094B187800F02BFE002879
:102BC0000BD0002DF7D000F07DFB054B001B984289
:102BD000F1D80448FFF77BFFEDE770BD040000204B
:102BE0000F27000068030020F8B51C23234E244F54
:102BF0003370244C07333B70BD33237000F040FA30
:102C0000214DDF2804D801232B702378DB43237068
:102C10003078012100F086FD3878002100F082FD37
:102C20002078012100F07EFD01211E2000F07AFDB8
:102C300001211E2000F0C2FD3078012100F0BEFD10
:102C40002978207800F0BAFD0A2000F071FB29787D
:102C500001252078694000F0B1FD0C4800F068FBC8
:102C600000211E2000F0AAFD00211E2000F05AFDC8
:102C70000748FFF793FE074B1D70F8BD06000020C4
:102C80000400002005000020E8030020EE02000000
:102C900040030020E903002013B500246B466A4678
:102CA0001C7101235371019A0B490C48FFF79EFEDA
:102CB0000B4B2100187800F081FD00F003FB0400AD
:102CC000084B187800F0A6FD012804D000F0FAFAAD
:102CD000001B0428F4D913BD00127A004003002021
:102CE000060000200400002010B5044B01211878D4
:102CF00000F064FD0248FFF7F9FD10BD060000205A
:102D00004003002007B56B46D871D9790248C9B293
:102D1000FFF775FD0EBDC0464003002010B504004E
:102D2000FF20FFF7EFFF207010BD70B50C0005000D
:102D30000800FFF7F3FF2078401B4342584170BD65
:102D400013B56B46DC1D002320002370FFF7E6FF60
:102D5000207816BD70B50500084CFFF7F1FFEF288D
:102D600008D0013C002C01D0A842F6D1401B4342C0
:102D7000584170BD01204042FBE7C046E903000016
:102D8000F8B5050008000E0017002C00FFF7BAFF89
:102D9000631B9E4204DD2078FFF7B4FF0134F7E7A0
:102DA000012F02D1EE20FFF7ADFFF8BD10B50400F2
:102DB000FF20FFF7A7FF002C00D0207010BDF0B55A
:102DC00085B01F0002ABDC1D00230500E02001914F
:102DD00016002370FFF7BEFF002802D1002005B0C7
:102DE000F0BD2000FFF79AFF802223781543AB4205
:102DF000F4D12000FFF792FF2378019A9342EDD19E
:102E00003800FFF7D3FF35003A78AB1B9A4204DD58
:102E10002800FFF783FF0135F6E72100EE20FFF7DA
:102E200084FF0120DBE7F0B587B004ABDE1D002393
:102E30000500E020039114003370FFF78BFF00289A
:102E400002D1002007B0F0BD3000FFF767FF8022FD
:102E500033781543AB42F4D1FFF772FF019000289D
:102E6000EFD005234343E3180293029B9C421AD000
:102E7000FF20FFF747FF002720702378BB4210DDBB
:102E8000A37865781B022B43E578FF202D042B43A4
:102E900025792D061D43FFF735FFED192870013701
:102EA000EBE70534E1E7019B039A9342C9D1310076
:102EB000EE20FFF73AFF0120C4E770B50400E020E0
:102EC0000D00FFF71FFF7F202040FFF71BFF2800AA
:102ED000FFF718FF002D02D1EE20FFF713FF70BDA2
:102EE00070B586B0050014000E000B22002102A868
:102EF00004F00DFF09232A0A6B441D705A702A0C36
:102F00002D0E9A70DD700E236B441E80360C5E8091
:102F10001323220A6B441C705A70220C240E9A70E0
:102F2000DC70154B1B78002B01D1FFF75DFE0020F4
:102F3000FFF73CFEFFF7B0FE21200121FFF7BDFFA8
:102F40006B460122D81DFF2311000370FFF718FF05
:102F5000FFF7F6FEFFF7F4FEFFF7C6FE0020FFF7CF
:102F600025FEFFF799FE02AA03212120FFF75BFF50
:102F7000FFF7BAFE06B070BDE9030020F7B51D00EB
:102F80001F4B07001B780C001600002B01D1FFF728
:102F90002BFE0020FFF70AFEFFF77EFE0221112024
:102FA000FFF78BFF210000223800FFF7E9FE300019
:102FB00001222900FFF7E4FE0326063464192500E8
:102FC000354003D0FFF7BCFE0134F8E7FFF78CFE75
:102FD0002800FFF7EBFDFFF75FFE6B469C1D22000C
:102FE00007330121112025701D70FFF7E8FE00282E
:102FF00001D1FF232370FFF777FE00202056FEBD8E
:10300000E9030020134B13B51B78002B01D1FFF708
:10301000EBFD0020FFF7CAFDFFF73EFE0021202058
:10302000FFF74BFFFFF760FE0020FFF7BFFDFFF744
:1030300033FE6B469C1DFF2323706B460022073333
:103040001A70012122002020FFF7B9FEFFF74CFE85
:10305000207816BDE903002070B50500054C064A2E
:1030600020000649FFF73CFF2800210002F0A2FBE8
:1030700070BDC046F2030020EA030020EE030020EA
:103080002420704770B50121202000F04BFB002167
:10309000202000F093FB0A2000F04AF900212020B4
:1030A00000F040FB642000F043F9202000F0CCFA4F
:1030B000962305009B002F4C984222DD2E492000CC
:1030C00000F014FF200000F052FD03210B2000F05F
:1030D000B9FB03210C2000F0B5FB00226B2120007E
:1030E00000F08CFD0121200000F0CAFD1B21200012
:1030F00000F0C6FD2000032100F06AFD200000F072
:103100004BFD1D49200000F0F1FE200000F02FFDD6
:1031100003210B2000F096FB03210C2000F092FB12
:1031200000226B21200000F069FD0721200000F043
:10313000A7FD96232B219B009D4200DD2039200016
:1031400000F09EFD0321200000F042FD200000F071
:1031500023FD01211E2000F0E5FA01211E2000F0D0
:103160002DFB01211F2000F0DDFA01211F2000F0BE
:1031700025FB70BD90080020A086010010B5024814
:1031800002F033FA10BDC046F803002010B5024823
:1031900002F02BFA10BDC0463C0600207FB519494D
:1031A000194800F0FDFB1949194800F0F9FB1949CD
:1031B000194800F0F5FB1949194800F0F1FB194CCA
:1031C0001949200000F0ECFB184E1949300000F0BE
:1031D000E7FB012503233100019500930D220B33FA
:1031E000144802F07BF91D230393013B02931A3B21
:1031F0000193009518331B2221000F4802F02AF991
:103200007FBDC0460008004280080020000C00423C
:10321000880800200010004290080020001400429E
:1032200098080020A008002000180042A8080020EC
:10323000001C0042F80300203C060020FEE70000CE
:10324000034B10B51B68002B00D0984710BDC0463B
:10325000B008002070B50F490F4CA14204D100F016
:103260008FF802F093FCFEE70C4D00238D42F6D060
:10327000CA18E818A24205D3094B8242EFD0094987
:10328000002204E0006804331060F1E704C38B42BD
:10329000FCD3E4E700000020C00000207C85000093
:1032A000C0000020F80E002010B500F066F80028DD
:1032B00001D100F057F810BD014B18607047C046AF
:1032C000B0080020014B18687047C046B4080020C1
:1032D000F7B51348012284461249134C8E6863687F
:1032E00005689B0E1340019288686268019F920EE8
:1032F0003A4067463F6893420ED1BD420CD18642A8
:103300000AD35B19FA254868AD00861B07486B4352
:103310007043000DC018FEBD3D0013000600E3E73A
:10332000B408002010E000E000ED00E0555500007A
:1033300070B5041E10D0FFF7CBFF050000F01CF89D
:10334000FFF7C6FF054B401B9842F7D9FA23013C13
:103350009B00ED18002CF3D170BDC046E7030000C0
:103360007047000010B5034A13680133136000F082
:10337000DBFA10BDB4080020704700207047000041
:103380001E2270B546484749436893431C3A13438D
:10339000436008238C6923438B61434C434B9C82DD
:1033A0009C8A14439C82DC681442FCD00124404A6D
:1033B00014701578254203D055786DB2002DF8DBD6
:1033C00001249460547864B2002CFBDB394C5460C7
:1033D000547864B2002CFBDB8224E40154805478DE
:1033E00064B2002CFBDB02249C840E34DD68254291
:1033F000FCD0314CDC621024DD682542FCD09D8C71
:103400002E4C2C439C841024DD682542FCD00224E1
:103410009D8C80262C439C844024DD683542FCD062
:10342000DD682542F9D01024DD682542FCD0002457
:103430009460547864B2002CFBDB214C54605478C7
:1034400064B2002CFBDB1C6A1E4D2C4080251C62E4
:103450001C6AAC431C62032393601B4B536053787C
:103460005BB2002BFBDB0023FF240B72174A4B726D
:103470008B72CB72164B1A60164B174A1B68116879
:103480009A065B01C90E2340520F12020B431343ED
:10349000124A1385802342681343436070BDC046BF
:1034A00000400041000400400C06000000080040FD
:1034B000000C004001050100B905FF7D040A000071
:1034C00000070300FFFCFFFF03060100006CDC02A5
:1034D000080000202460800020608000004000423E
:1034E000FA21314B10B51868890002F089FB2F4B87
:1034F0000138984256D82E492E4A4860C020136A97
:1035000000061B021B0A03431362002407238C607E
:103510000B608021136A09061B021B0A0B4313620E
:10352000FC22254B196A0A431A62FC22196A92018D
:103530000A431A62A022196AD2020A431A62E0B24E
:103540000021013400F0EEF80F2CF8D11B4B1C00C9
:103550005A7852B2002AFBDB194A5A80194B1A00DA
:10356000597EC9090129FBD0E421C90099803F2176
:10357000D970537EDB09012BFBD0C02300205B01F7
:103580001361907000F02EF863785BB2002BFBDBC8
:103590000D4B0E4A6380D379DB09012BFBD041230D
:1035A000537010BDFEE7C04608000020FFFFFF007B
:1035B00010E000E000ED00E000040040000C0040DE
:1035C0001E40000000400042214000000048004230
:1035D000914202D002D98A1AD0407047521A9040C4
:1035E000FBE70000164A00B51300517EC909012906
:1035F000FBD00138042816D81969124A0A400F2155
:103600001A615A788A4302F0F1FA0308060B0300A4
:10361000110001220A435A7000BD11000322F9E78C
:1036200011000222F6E7F02311691B050B430F215D
:10363000136153788B43190002230B435370EBE75C
:1036400000400042FFFFFFF010B504000E2801D833
:103650000F34E4B20121200000F0F4F81823102107
:1036600063432B4CE4186156002901D014290DD175
:10367000284B1800DA79D209012AFBD002241A78E3
:10368000A2431A70C379DB09012BFBD02248030047
:10369000427ED209012AFBD01F2402692140A243A5
:1036A0000A4302615A7ED209012AFBD0022219780C
:1036B0000A431A705A7ED209012AFBD00222197BD2
:1036C0000A431A731A7ED207FCD501221A765A7E53
:1036D000D209012AFBD00222197B0A431A731A7EEF
:1036E000D207FCD5588B80B25A7ED209012AFBD072
:1036F00002211A788A431A705A7ED209012AFBD015
:10370000064B1A68064B1968FFF762FF10BDC046EA
:10371000FC7F0000004800420040004210000020F2
:103720000C000020182330B51D000400454308207C
:10373000204A55192856013014D0032912D8080000
:103740006343D156D31802F051FA02280E1B586871
:10375000CB010221184A9B181A184032117001221D
:1037600082405A6030BD5868CB010621124A9B182E
:103770001A1840321170012282405A609A61F1E7B2
:103780005868CB0106210C4A9B181A184032117058
:10379000012282405A605A61E4E75868CB01022155
:1037A000054A9B181A1840321170012282409A6013
:1037B000D8E7C046FC7F0000004400411823F0B564
:1037C00008245843114A13181C5701341BD00126F2
:1037D00035005F688356BD400D4ADB019A1890683A
:1037E00005420BD10C00601E8441D2194032107882
:1037F00034400336A400B04320431070044A9B18A1
:10380000002901D15D61F0BD9D61FCE7FC7F0000F6
:1038100000440041182310B5082443430749002001
:10382000CA181457013408D05B560549DB015B18F0
:10383000186A5368D8400123184010BDFC7F00006F
:103840000044004118224243F8B52C4E0300B21840
:10385000127A52B2140001320ED0481C00240C28F7
:103860000AD802F0C3F90720202020202020200BB6
:103870000B0B0B00012464422000F8BD092905D17F
:103880000021D8B2FFF74EFF0024F5E70A2902D144
:10389000D8B20839F6E700240B29EDD1D8B20A399D
:1038A000FFF740FFE8E718204343F2185568F35646
:1038B0002C00134ADB016E0817389B18C9B204406C
:1038C0009E19002C0DD00F24303632780901224089
:1038D0001143C9B25B19317040331A781043187024
:1038E000D2E732000F27303216785B19BE433143DE
:1038F000117040331A7810431870BDE7FC7F000048
:103900000044004110B50400FFF72AFD014B1C6084
:1039100010BDC046140000200122024B52421A6022
:103920007047C04614000020164A10B51368591C91
:1039300026D0013B1360002B22D172B6124B134AE2
:103940000433934213D9124A01211000147D0C4212
:10395000FCD02021148BFF319B085B002143118395
:10396000D3610C4B13800123027D1A42FCD0BFF3BC
:103970004F8F094B094ADA60BFF34F8FC046FDE70E
:1039800010BDC0461400002000200000030200000B
:103990000040004102A5FFFF00ED00E00400FA0531
:1039A00000230371016070479446F0B59E1E721E9D
:1039B00096416246056892072F6836063A433243BD
:1039C0002A60072505AC24780068A401294021431A
:1039D00042680024022B00D05C0311432143416064
:1039E000F0BD30B5C0250368AD031C6812052A4040
:1039F0002243C0240904A402214011431960036832
:103A00005A6814435C6030BD0123026811680B439F
:103A1000136003681A68D207FCD4DA69D207F9D4B4
:103A200070470223026811680B4313600268D36970
:103A30009B07FCD470470268137E9B0702D403796E
:103A4000002BF9D1002303717047002203685A83C9
:103A500070470368187E4007C00F70470368187EE0
:103A6000C0097047802302685B42117E0B431376C6
:103A700070470368588B8007C00F704702230268A5
:103A8000518B0B43538370470368187EC007C00FE8
:103A900070470368188DC0B2704703681A7ED2075A
:103AA000FCD589B2198501230371180070470122E2
:103AB00003689A757047012203681A757047000001
:103AC00070B5012604684B0833403140256809076A
:103AD0005B070B432B43236004685100034802F04B
:103AE0008FF80138C0B2207370BDC046006CDC0294
:103AF0000123026811680B43136003681A68D20738
:103B0000FCD4DA69D207F9D470470223026811683D
:103B10000B4313600268D3699B07FCD470470368AA
:103B2000DA699207FCD402211A688A431A60704746
:103B3000036818684000C00F70470268936A5B0A08
:103B40005B021943916203681A7E5207FCD5986A9A
:103B5000C0B270470123026811680B431360036809
:103B60001A68D207FCD4DA69D207F9D47047022365
:103B7000026811680B4313600368DA699207FCD48A
:103B800030215A8B8A43110010220A435A8302685B
:103B9000D3695B07FCD470470221026813688B432A
:103BA00013600268D3699B07FCD4704780230268C6
:103BB000DB02116851680B43536070470368034987
:103BC0001A685A680A405A607047C046FFFFFBFFF8
:103BD000032230B5036811401C68074D5A68090478
:103BE0002A40E4061143640F5960052C03D1026892
:103BF000D3695B07FCD430BDFFFFFCFF70B50568DF
:103C000004006B8B9B069B0F022B0DD06B8B00204F
:103C10009B069B0F032B32D06B8B9B0704D56B8BC2
:103C20009B069B0F012B2AD16B6A49001143DB0ACB
:103C3000C9B2DB020B436B622368002A13D11A7EE0
:103C4000D207FCD55B8B9B069B0F022B04D0490847
:103C500000222000FFF7D2FF2368588B4007C30FD4
:103C6000012058400BE0187E8007C00FF4D11A7E67
:103C7000D207F8D5C022596892020A435A6070BD33
:103C80000368283319700268107EC007C30F508B79
:103C9000002B06D1C007C00F08D1538B9B07F3D56B
:103CA00070474007C30F01205840F9E71800F7E7B5
:103CB000036828331970036800201A7E520704D560
:103CC000588B01234007C00F58407047036818689D
:103CD000C006400F043843425841C0B270470368E1
:103CE000588B8006800F023843425841C0B270475B
:103CF0000368187E4007C00F70470368187EC0072E
:103D0000C00F70470368588BC006C00F7047036828
:103D1000187E8007C00F70470368588B0007C00FDC
:103D2000704703681A68D206520F052A05D11A7E19
:103D3000920702D41A7ED207F9D528331878C0B278
:103D4000704700000368214A30B593422FD0204AC3
:103D500093422FD01F4A93422FD01F4A93422FD015
:103D60001E4A93422FD01E4A93421FD10E2319227E
:103D70000121032599401B48C024016099082B406C
:103D8000AB40FC359D4089000918A4000859A843A0
:103D9000C0259D402B0003430B518023DB011A43B8
:103DA000114B5A805A7852B2002AFBDB30BD0923EE
:103DB0001422DDE70A231522DAE70B231622D7E7C0
:103DC0000C231722D4E70D231822D1E70008004264
:103DD000000C004200100042001400420018004293
:103DE000001C004200E100E0000C0040F8B50400B7
:103DF0000F0016001D00FFF7A5FF2000FFF704FECF
:103E00001C21BB000B4071072268090C0B43136097
:103E1000842322689375012F1AD11021012E00D01E
:103E200008390C4B69431868C00001F0E9FE07220D
:103E3000216802408B895203DB04DB0C13438B8126
:103E4000226803049089DB0C400B400318439081E7
:103E5000F8BDC04608000020F7B50600019308AB86
:103E60001F780D001400FFF743FE3000FFF76AFFD4
:103E7000C022240592031440BA070C2717433C4381
:103E8000C0270722BF022D0433683D4025431D6033
:103E9000019B316813401A0080239B0213434B603F
:103EA000F7BD70B504000D001600FFF74BFF2000B2
:103EB000FFF750FE1C2221686D000B6893431A0027
:103EC00010231343FF220B60236815405D62002E10
:103ED00004D001232268516A0B43536207232268EE
:103EE00093752268D3695B07FCD470BDF8B50400F4
:103EF0000F00FFF727FF2000FFF72CFE1422236896
:103F000079001A600C4B25681E68300001F078FEBD
:103F10000A490400300001F073FE7D23FA21584362
:103F2000C90001F06DFEFF23241AE868053C1C401F
:103F300098430443EC60F8BD0800002040420F00A5
:103F40000020704770B50F26CB1D013902003240AA
:103F5000D5B22C0000093034092A00DD07341C706A
:103F6000013B8B42F2D170BD10B50C000B4B1868B1
:103F7000FFF7E8FF21000A4B08311868FFF7E2FF5E
:103F80002100084B10311868FFF7DCFF2100064BB9
:103F900018311868FFF7D6FF202010BD0CA0800054
:103FA00040A0800044A0800048A0800008B4024BDC
:103FB0009C46103808BC6047693F00003F207047AE
:103FC00013B56B460268D971073354681900012292
:103FD000A04716BD70B50A260B7892B06E44023326
:103FE00005000B703C220021300003F090FE3948A0
:103FF00001AC0690384824210790062020776846B7
:10400000364AA1742281364A364BA281FD3AFF3AE4
:104010008018C177684623390630C1776846073073
:10402000C17702A8C1770720F277032608316944D7
:10403000C87703A9CE7710212B366E44317009263C
:1040400021851F3169440E700CA9053E0E70332185
:104050002380022369440B7006360DA90E70224995
:104060003536A1863B216E44307010A86274E27729
:1040700002703D3269446A440B7013704021002283
:10408000E37023716371A37341336B44218719700B
:104090005A702B7DC039A370A37263770133DBB2F2
:1040A000A3776A7D0B200D0068441543C577312046
:1040B000684403703A23501C6B4418704123023249
:1040C0000A436B441A7021004222084800F0A4FD04
:1040D00012B070BD1001042402060524090400007A
:1040E00001020000080B0000070500001409002071
:1040F00008B4024B9C46103808BC6047D53F00000E
:1041000070B5027D0B790C0000259A420BD10B781B
:104110004E78A12B09D1212E05D107221B491C481D
:1041200000F07AFD0135280070BD212BFBD1202E37
:1041300022D107221549164800F0B0FC9622134BF5
:10414000D200196891421DD1DB79DB071AD4FA201D
:10415000FFF7D8FB00210E4800F066FE0125232E54
:10416000E1D1E378A2781B0213430A4A00210848F0
:10417000136000F059FED6E7222EEFD18A78034B68
:10418000DA71DBE7FFF7C8FBE4E7C0461C0000205C
:10419000140900201800002008B4024B9C46103877
:1041A00008BC60470141000010B5417D006A013143
:1041B00000F0ACFB034B1B6801335A1E93411818E7
:1041C00010BDC0462400002010B5417D006A0231B8
:1041D00000F0B2FB10BD10B5417D006A023100F065
:1041E00079FB10BD70B50D00417D04001300023154
:1041F0002A00006A00F066FC002801D101236360F8
:1042000070BD000010B5054C23685A1C04D103682A
:104210005B69984703002060180010BD240000204F
:10422000074A0300106810B5411C03D001235B420C
:10423000136010BD597D186A013100F0F3FBF8E7F7
:10424000240000200020704770470000FA239B00E4
:1042500010B583600F4B0022C382030028338361B3
:104260000D4B04004260C2611800403323610830E6
:10427000631D21622060DA778323A362813BE362BE
:104280008033236301F01CFB2100103101F0E9FAB7
:10429000200010BD030200005C830000022110B565
:1042A000094B1A68437D5B01D318FF339C7A214385
:1042B0009972437D0133DBB25B01D3180122FF33D6
:1042C000997A0A439A7210BDCC0D00207047000005
:1042D00010B5FEF7F7FFF423FF330024984207D907
:1042E000044B0A20DC79631E9C41E4B2FFF720F8FE
:1042F000200010BD1C00002010B502490248FFF745
:10430000A5FF10BD14090020B8080020704710B5A3
:10431000040001F05FFC200010BD0000F0B5822910
:1043200019D1C3B2294D5A01AA189169284C8001AC
:104330000C40C0218905214391612649083340186A
:104340007021506128685B011A5C8A431100302299
:104350000A431A54F0BD0029FCD1C026C1B21B4C3F
:104360004B01E3189A681A4DB6052A4032439A6009
:10437000194A800182185A600A0007272468083207
:104380005201115DB9430F000121394311559F6955
:1043900010493D4040182E439E6158617020115DC8
:1043A0008143080010210143115599680B48A21858
:1043B000084080214903014399609968890B89036A
:1043C0009960402311790B431371C3E7CC0D002092
:1043D000FFFFFF8F40090020000B0020FF3F00F08F
:1043E000EFF3108303600123436072B670470368E4
:1043F000002B02D162B6BFF36F8F704773B5836D28
:104400000400002B1BD10600A83635786846FFF75C
:10441000E7FF019BEDB2013B02D33578EDB2FAE73D
:1044200068460193FFF7E3FF002D01D1002076BD20
:104430002300A4331868A0342368C01AF7E768463D
:10444000FFF7CEFF22000025019BF432013B02D38F
:104450001578EDB2FAE768460193FFF7C8FF002D23
:10446000E4D02300F0331868EC34E5E710B5436D71
:104470004468DBB25A01A218916809480833084021
:10448000802149030143916091685B01890B890395
:1044900091602268D318402219790A431A7110BD1D
:1044A000FF3F00F0F7B5436D4268DBB2190004002E
:1044B0000831106849014118C979C90711D55B0154
:1044C000D21893689B049B0C0CD12000FFF7CEFF01
:1044D00063681A68636DDBB208335B01D3187F220F
:1044E000DA71F7BDE16D002923D12100A4310B6001
:1044F00023000125AC33E56568465360FFF770FF84
:10450000260020002100019BA836013BF430F53144
:104510005A1C33D0357002785F1ED2B20A700A7806
:10452000002A04D120000193FFF7A0FFE8E73B0039
:10453000EEE72100F0310B600023E36523006033D8
:1045400053606846FFF74CFF01252600200021003C
:10455000019BF436013BA830F5315A1C0ED0357062
:1045600002785F1ED2B20A700A78002A04D12000B5
:104570000193FFF77BFFE8E73B00EEE76846019316
:10458000FFF735FFA4E737B56B46DC1D00230D00B0
:10459000237001F095F9210001F020F92B6818181B
:1045A000286020783EBD00002023F7B5474A05006B
:1045B000D1690F200B43D361012245490B78134386
:1045C0000B70444B19788143197006211C782143E4
:1045D000197041490C7822430A701A7802401A7007
:1045E000602219780A431A703C4B3D4A5A805F7822
:1045F000FF09FCD13B48FEF75FFE01233A4C3B4EDE
:104600002268300011780B43137080223900520069
:1046100003F07DFB22689378DB07FCD456621F26EB
:10462000334B1B68590B980C9B01314030405B0F9A
:10463000B14200D105211F2800D10238072B00D13B
:10464000043B31408901178D01912A4930400F40C8
:10465000019939431185118D0700B1430800384392
:104660001085118D1803244B7F260B4003430C202B
:1046700013850823D17881430B430321D37022682B
:10468000D3788B4301390B43D370226813783340BE
:104690001370042322681678334313702268C124F0
:1046A0001389A40083431548138103591B021B0A75
:1046B00003518023036013781148194301231170BB
:1046C0002B700021FFF702FEF7BDC046000400403A
:1046D000584400413C44004159440041000C004012
:1046E0000640000039500000CC0D0020D00D002005
:1046F000246080003FF8FFFFFF8FFFFF00E100E034
:10470000B80800200078002810D00121084B1B6851
:104710001A898A431A810822198B0A431A830422B0
:10472000198B0A431A830022024B1A607047C04655
:10473000CC0D0020C40D002010B50F4A93699B0BCF
:104740009B03936113680222FF331A729879823AAD
:1047500002439A711A7A9207FCD57F24074A2140B6
:10476000937A0800A3431900802301439172917A40
:104770005B420B43937210BDCC0D002000500041F2
:1047800010B50C0001F09CF8210001F05AF8002847
:1047900004D1034A93699B0B9B03936110BDC046F0
:1047A000CC0D0020F8B50D00832A19D1CBB23B4CBB
:1047B0005A01A21891693A48AD010840C021890503
:1047C00001439161374920686D18702108335561A4
:1047D0005B011A5C8A43110040220A431A54F8BD57
:1047E000022A55D1304A8B009858002802D003681D
:1047F0005B699847F82001F0E9F90400274E2B4B3C
:104800004660036040220021083003F080FA220055
:104810000023A032A3646565E3642365A365E365B3
:104820005360D3641372136013654C321372537266
:10483000FF222B001340590171188868184F083364
:104840000740C020800538438860306807265B0138
:10485000195CAD00B1430E0003213143195423000C
:10486000616D606811404901411860334B60616DB2
:1048700063680A401B6852019B180122FF33997A32
:1048800020000A439A72FFF7F1FD074B5C51A6E73F
:1048900011002800FFF742FDA1E7C046CC0D002023
:1048A000FFFFFF8F4009002018090020B48300009B
:1048B00070B505000124064BA200D258002A06D08C
:1048C000210028000134FFF76DFF0A2CF3D170BDE1
:1048D000EC0800200B4BCAB20B488901C9185301E0
:1048E000C318596199690832890B89039961036872
:1048F00052019A180223D3715179823B0B435371B1
:104900007047C04640090020CC0D0020084B8A00AB
:10491000D05810B5002803D003689B68984710BD95
:10492000C9B2044B4901591888688004800CF6E725
:1049300018090020CC0D002010B50C00FFF7E6FF91
:1049400000280CD0064BE4B21B68083464011C1923
:10495000802362795B42134363710223E37110BDCC
:10496000CC0D0020F0B51C002A4B85B01B68070059
:104970000D000292002B4AD0274B8A00D058002805
:1049800008D0036822005B68029998470400200061
:1049900005B0F0BD3800FFF7B9FF844204D9290003
:1049A0003800FFF7B3FF04000121EBB21B4E039365
:1049B0005B010193F21893689B0B9B039360019A30
:1049C000336802989B18FF335A7A0A435A72144B81
:1049D000A901C918220003F091F9002CD7D02900B1
:1049E0003800FFF793FF0028D1D14021039B3268A4
:1049F00008335B01D3181879014319710121D9716A
:104A0000019BD318FF339A7A0A439A72BFE70124B5
:104A10006442BCE7C40D002018090020CC0D002022
:104A2000000B002013B56B46DC1D22000123FFF7AD
:104A300099FF012801D1207816BD01204042FBE7F3
:104A400070B5CBB2124A13485C018901891802196A
:104A500051609168104D08330D408021490329436E
:104A6000402591609168890B8903916001685A0122
:104A70008A1816793543157195796D06FCD55B0159
:104A8000C918CB79DB07FCD500198068C0B270BDAE
:104A9000000B0020CC0D0020FF3F00F070B50D0092
:104AA00000211400FFF7CCFFA04200D92000002312
:104AB0000349A34203D0CA5CEA540133F9E770BD4D
:104AC000000B0020F0B51E003A4B85B01B680F00AC
:104AD0000192002B35D08023DB019E4231D8002586
:104AE000354B8A01D3180293002E2CD0334B1B6810
:104AF0000393FF233B401C0000930834039B640195
:104B00001C19A379DB0921D02D4B2E49186801F01F
:104B100077F82D4B1721584301F072F82B4BE279AF
:104B2000920713D4DA5D002A01D10138F7D20122AD
:104B3000DA55009B5A01214B9B189A69920B9203FC
:104B40009A6101256D42280005B0F0BD00221F4B7F
:104B50003400DA553F2E09D9009B40245A01174BE7
:104B60009B188022996912060A439A6122000199D2
:104B7000029803F0C3F8009BA1045A010F4B890C63
:104B80009B18029A2D195A619A69361B920B92034F
:104B90000A439A61009B039A08335B01D3180222EF
:104BA000DA715979823A0A435A71019B1B190193B0
:104BB0009AE7C046C40D002040090020CC0D00201B
:104BC0000800002040420F0070110100350900204C
:104BD00070B50D001C000D4BAE01F6181100300031
:104BE000220003F08BF8EDB209496D014D196E6199
:104BF000AB69084A20001340AB61AB69A2049B0B70
:104C0000920C9B031343AB6170BDC046400900206A
:104C1000CC0D0020FF3F00F0F7B5104B01901B7842
:104C20000F001500002B0CD10D4B16001C78002C2A
:104C300009D00C4E0C4834882018641903F05EF833
:104C400034802800FEBD002EFBD03A19330000212D
:104C50000198FFF7BDFF2418361AF4E7C00C0020B6
:104C6000C10D0020C20D0020C10C0020F8B50F00BE
:104C700016000024012A26D9100003F02BF80500A5
:104C8000380003F007F903230222013040002870A6
:104C90006B7096420DD9397800290AD0531CDBB2CB
:104CA0000137A9549E4203D00232EC54D2B2F0E74D
:104CB000320029000548FFF7AFFF441EA041C4B2EF
:104CC000280003F011F82000F8BDC04614090020A8
:104CD000F0B50024012685B0184B0F0069461E7000
:104CE00005000094FFF74FFC154B01A90B806A3BB0
:104CF000FF3BCB715A330B72009B8C7109334B8095
:104D00000E4B4E7108711C703A00092F0FD00D4FD9
:104D100009223E700C4E280000943480FFF77CFF7F
:104D200069462800FFF72FFC328808493C702800AC
:104D3000FFF772FF012005B0F0BDC046C00C002097
:104D400009020000C10D0020C20D0020C10C00208E
:104D500070B5CE7892B005000C00022E0BD18B7985
:104D6000C9792C4809021943FFF7B2FF411E884157
:104D7000C0B212B070BD00F0A3FD210000F042FDF2
:104D8000002803D0C117081AC00FF2E7012E0ED178
:104D9000E279A37912021A431F49112A13D8D2B219
:104DA000002A10D02800FFF737FF0120E1E7032E8B
:104DB000DFD1A378002B08D1E279A37912021A433C
:104DC0001649032AEBD90A78ECE7022B08D1E279DD
:104DD000A379120212491A432800FFF747FFC8E7D8
:104DE000012B05D1E279A37912021A430D49F3E7A9
:104DF000032BBED14122010001A802F088FF00F080
:104E00005FFD01A900F00EFDE279A37912021A43B9
:104E100001A9E1E714090020F6830000E683000001
:104E2000D0830000EA830000CBB204495B01C918BB
:104E30008B699B0B9B038B617047C046CC0D002098
:104E400037B5050048780C000B2810D800F0CEFECE
:104E5000061B0F2B0F404561494C5A5D097801AA8A
:104E6000002906D1022311802800FFF7B1FE01209E
:104E70003EBD00231380284B1B78012B00D11370FB
:104E800002230021F0E78A780023012A03D101AA36
:104E90001380224BF0E7204A1370214A93699B0B41
:104EA0009B039361E3E78C78012C06D100211B4B17
:104EB00001AA1C7011702300D6E70120002CD7D165
:104EC000154B174A187093699B0B9B039361CFE7AF
:104ED00089782800FFF730FCC9E72800FFF738FF82
:104EE000C6E701230F4ACCE70B780020DB06BFD1D1
:104EF0002800FFF7DDFCA2780A4B0B481A60FFF789
:104F0000CDF9CAE70123094ABBE78A78074B1A6043
:104F1000C3E70020ACE7C046340900203C0900206C
:104F2000CC0D0020C40D0020B8080020C80D0020C2
:104F30003A4BF7B51E780500002E5FD1384C236838
:104F40009A8B12070DD5082231009A833000FFF7A3
:104F5000E5F910222368FF33997A0A439A72314B9C
:104F60001E6023689A8B520701D504229A83FF336F
:104F70001A7A920603D52022597A0A435A721A7A6B
:104F8000D20623D569460800274AC0CAC0C0A26815
:104F9000920B9203A2604022587902435A71602317
:104FA0000A7828001A422AD1FFF74AFF2368FF3304
:104FB000002827D08022997952420A439A711A7A9E
:104FC000520603D54022597A0A435A727F26012598
:104FD0002368FF331E722F00236808377F01DB1917
:104FE000DB79002B07D0114BAA00D05800280DD038
:104FF00003681B6898470135082DECD1F7BDFFF712
:10500000BFFBD3E720210A4A9171D8E7290009485C
:10501000FFF71AF92368DF19FE71ECE7C10D0020D4
:10502000CC0D0020C40D0020000B0020180900202A
:10503000FF500041B808002010B50248FFF778FF84
:1050400010BDC0461409002080235B0003800023AC
:10505000436007330372704783000148C0187047EC
:10506000EC080020836C402B09D03F22036CC15414
:10507000036C013313400364836C01338364704712
:10508000F7B505006846FFF7ABF900264022019B03
:10509000013B02D32E6D961BFAE768460193FFF79A
:1050A000A6F9AB6D6846002B4FD1FFF799F929009F
:1050B000019BA831013B5A1C0CD00C785A1EE4B25B
:1050C000002C05D168460193FFF791F92000FEBD41
:1050D0001300F0E7684601930024FFF788F92A00DF
:1050E0002900A0321368A431B4420ED00868984257
:1050F0000BD92800591CEB1811606033197808305F
:10510000C9B2FFF7AFFF0134E9E709689942DDD181
:10511000002313600133AB656846FFF761F92F0088
:105120002A000021019BA837013BF532581CC9D049
:10513000397010785E1E002805D011702800019388
:10514000FFF794F9EBE73300F0E7FFF749F929009F
:10515000019BF431013B5A1C06D00C785A1EE4B274
:10516000002CAFD01300F6E7684601930024FFF748
:105170003EF92A002900EC321368F031B44202D023
:10518000086898421DD8096899429FD10023684653
:105190001360AB65FFF724F92F002A000021019B63
:1051A000F437013BF532581C00D18BE73970107889
:1051B0005E1E002811D0117028000193FFF756F9E8
:1051C000EAE72800591CEB181160AC331978083055
:1051D000C9B2FFF747FF0134CBE73300E3E710B56F
:1051E0000400FFF74DFF206D10BD10B50400FFF760
:1051F00047FF236D002B03D0E36CE418207A10BD29
:1052000001204042FBE7F7B517000E000400FFF74E
:1052100037FF6846FFF7E4F83F2200259446019BDC
:10522000013B5A1C19D0BD4215D2226D002A12D062
:105230000121226D4942002A0AD06046E26CA21880
:10524000117AE26C01320240E264226D013A226579
:1052500071550135E7E7013BE3E768460193FFF746
:10526000C6F82800FEBD0000014B024A1A607047D4
:10527000CC0D0020005000410120704710B503689C
:10528000014A1B6A984710BD13040000FC30006AF5
:10529000704787239B00C018C36880204000C01A55
:1052A00070470300FC331A6A002A03D0DB69C01878
:1052B000007D704701204042FBE710B50400006903
:1052C000FEF7A2FB22000023FC329361D36113623C
:1052D00087229200A4186360A360E36010BD872357
:1052E00010B59B00C218D368002BFCD10069FEF7F3
:1052F000A2FB10BDF02001403039484248417047C0
:10530000F0231B011940802306209B0099420AD0FC
:105310000133FF330130994205D0802302385B000E
:10532000994200D0002070470F2001400020012941
:1053300003D00239481E8141481C70478B23F0B5C9
:10534000182685B002919B000400C05C3300082140
:105350004343324D1700EB185956FEF773FA304BA2
:105360000821E05C33004343EB185956FEF76AFA14
:105370002C4BE25C0393022A09D11133E05CFF2835
:1053800005D008214643AE197156FEF75BFA8C260C
:10539000B600A05DFF2819D00121FEF7C3F918223D
:1053A000A35D21495A43AB56AD18DB0158188D2136
:1053B000890060501D4901225B188E2189006350CD
:1053C00069688A408F21890062501A600122029B1D
:1053D00011002069FEF70AFD39002000FFF790FF59
:1053E000390005002000FFF79FFF3900060020006C
:1053F000FFF780FF33000090290020690122FEF7AB
:10540000D3FA0B4B2069E25C039BE15CFEF7E9FAFF
:105410002069FEF706FB05B0F0BDC046FC7F00002A
:105420002D0200002F0200001844004114440041E6
:105430002E020000802210B504005200002102F06C
:1054400066FC23000022FC335A6020009A60DA6078
:1054500010BD0000F0B585B01D000AAB1B7804003C
:1054600000930BAB1B78160001930CAB1B780F005D
:1054700002930DAB1B78039300234360FA239B0038
:105480008360124B083303601430FFF7D3FF200012
:105490002130FF30FFF7CEFF8B236A469B00276148
:1054A000E6540B4B1278E5540A4B2000E2546A464E
:1054B000094B1279E2546A46127A0133E2546A4681
:1054C000127B1033E25405B0F0BDC04608840000E2
:1054D0002D0200002E0200002F020000F7B51D0073
:1054E00008AB1B780400009309AB1B7816000193EE
:1054F00000234360FA239B008360114B0F000833A5
:1055000003601430FFF796FF20002130FF30FFF7D3
:1055100091FF8B236A469B002761E654094B127862
:10552000E554094B2000E2546A46084B1279E254D4
:105530008C22313BFF3B9200A3541032A354FEBD9A
:10554000088400002D0200002E0200002F0200003F
:10555000F7B5EFF3108300930123019372B6802611
:105560000200FF25019BFC327600013B5C1C0FD042
:10557000D4685F1EB44209D05468015554680134A0
:105580002C405460D4680134D460EEE73B00EDE772
:1055900068460193FEF72BFFF7BD13B5EFF31083B9
:1055A00000930123019372B6019B5A1E0192002BB6
:1055B00015D00300FC33DA68002A0DD09A68845CA9
:1055C0009A680132D2B29A60DA68013ADA606846C3
:1055D000FEF70DFF200016BD01246442F7E7012409
:1055E0006846FEF704FF6442F4E710B50400006962
:1055F000FEF73FFA002805D02069FEF74AFA206935
:10560000FEF73CFA2069FEF724FA00281BD0206937
:10561000FEF73FFA010020001430FFF799FF8C23BA
:105620009B00E35CFF2B0ED02300FC331A6A80231F
:105630005B009B1A092B06DC8D238F229B009200B6
:10564000E358A2581A602069FEF71EFA00280ED00F
:1056500087239B00E318DB68002B14D02000213047
:10566000FF30FFF79AFFC1B22069FEF716FA2069F2
:10567000FEF7F4F9002805D02069FEF7F3F9206958
:10568000FEF7E3F910BD2069FEF715FAEFE7000019
:10569000F8B5040000690D00FEF7F6F987239B00BA
:1056A000E618002802D0F368002B34D001278022AE
:1056B000F3685200934223D1EFF310833B4210D1A1
:1056C000174B5B68DB05DB0DF1D0103B5BB2002BA9
:1056D00010DAF13A1340083B9B08124A9B009B18D2
:1056E0001B682069FEF7D0F90028E0D02000FFF702
:1056F0007CFFDCE79B08C0330B4A9B009B58F0E71C
:1057000020002130FF302900FFF722FF2069FEF73B
:10571000CEF90120F8BD29002069FEF7BEF9F8E7AF
:1057200000ED00E01CED00E000E100E010B5040039
:105730001430FFF732FF8C239B00E35CFF2B0ED06D
:105740002300FC331A6A80235B009B1A0A2B06DDB8
:105750008E238F229B009200E358A2581A6010BD3E
:10576000F7B5C31D0193002306000D00041D00932F
:1057700021780A22280000F03BF92E21070028009A
:1057800000F0DDF8009B3F18DB190093019B01340A
:105790009C42EDD1F17928000A2200F029F9009B02
:1057A0001818FEBD024B08330360002343607047A6
:1057B0003C84000010B504000422043002F09EFA7C
:1057C000200010BD034B044A0833136000235360CC
:1057D0007047C0463C840000D00E002070B50E001B
:1057E00000254468002C0BD0236831005B68200042
:1057F0009847002802DB2D18E468F3E701256D4285
:10580000280070BD70B50D004468002C08D02368D6
:1058100029009B6820009847002802D1E468F4E73B
:10582000200070BD70B50D004468002C07D02368BF
:1058300029002000DB689847E4682D18F5E72C70F4
:1058400070BD70B50D004468002C08D02368290095
:105850001B6820009847002802D1E468F4E7200084
:1058600070BDF8B542788B790D00017A9B18040061
:1058700000208B4222DC6368834219D165600026D8
:1058800023786A71EA792B719B182370AB79B34244
:1058900013D9AB68B7006078DF19FFF7DDFB3B6811
:1058A000013603606378F6B201336370EEE70B00F4
:1058B000D9680029FBD1DD60E1E70120F8BD0000D7
:1058C00070B50126054D064C2B68334203D12000EC
:1058D000FFF7BAFB2E60200070BDC046D80E002036
:1058E000DC0E0020F7B506000D000C008B180193AC
:1058F000019B671B9C4207D0336821781B683000EE
:10590000984701340028F3D13800FEBD70B504007B
:1059100008000D0002F0BEFA2368020029005B684F
:105920002000984770BD10B50B1E02D0FFF7EEFFA8
:105930000300180010BD10B5FFF7F5FF10BD10B53E
:1059400003681B68984710BD0B0010B50A6801007A
:1059500012681800904710BD10B50249FFF7D6FF36
:1059600010BDC0465484000070B50400FFF7DBFF93
:1059700005002000FFF7F0FF401970BD70B505006D
:10598000FFF7E2FF04002800FFF7E6FF201870BDD4
:10599000F0B58BB06B461500002205330600DA77B0
:1059A0000800012D00D80A2509AC290000F0AEF945
:1059B000CAB2130037330700DBB2092902D813003B
:1059C0003033DBB2013C2370002FEED121003000D8
:1059D000FFF7A9FF0BB0F0BD10B5002A04D1036892
:1059E000C9B21B68984710BDD2B2FFF7D1FFFAE7E2
:1059F00010B5FFF7F1FF10BDF7B51E00089B0500BD
:105A00001700002B01DA0223089331003A0033001B
:105A1000380002F039F84B49002814D101227400F3
:105A200064085242484B3800210002F02DF800284B
:105A30000FD10122444B52423800210000F08CF972
:105A4000002806D141492800FFF760FF040020002C
:105A5000FEBDE0223E4B12063800310000F086F910
:105A6000002801D03B49EEE7E0223B4B120638000C
:105A7000310000F067F90028F4D10022002338003B
:105A8000310000F05FF9002814D02D212800FFF725
:105A900056FF80231B060090F618002400202F4993
:105AA000089B9C4208DA00222D4B013400F028FEAE
:105AB000E4B2F5E70090F0E70B0002003100380097
:105AC00000F002FB0F00060000F064F90A220190CA
:105AD00001002800FFF75CFF009B1C18089B002BAF
:105AE000B5D0019802F022F802000B003000390016
:105AF00001F082FC06000F0028001A49FFF706FF9C
:105B00002418089B5A1E0892A1D3154B002230007E
:105B1000390001F0FFF90F00060000F03BF90A22FE
:105B2000010000902800FFF733FF2418009801F0CF
:105B3000FDFF02000B003000390001F05DFC0600A3
:105B40000F00DEE748840000FFFFEF7F4C84000079
:105B5000FFFFEF4150840000FFFFEFC10000E03F76
:105B600000002440337F000007B504990091FFF73F
:105B700043FF0EBD37B5069904000091FFF73CFFC7
:105B800005002000FFF7E8FE40193EBD10B5FDF707
:105B9000A7FC02F07BF8FDF775FA0120FDF7C8FBC2
:105BA000084C2000FEF700FD2000FEF7ABFDFCF7DF
